{
  "_format": "hh-sol-artifact-1",
  "contractName": "PsyDucks",
  "sourceName": "contracts/psyducks.sol",
  "abi": [
    {
      "inputs": [],
      "stateMutability": "nonpayable",
      "type": "constructor"
    },
    {
      "inputs": [
        {
          "internalType": "address",
          "name": "operator",
          "type": "address"
        }
      ],
      "name": "OperatorNotAllowed",
      "type": "error"
    },
    {
      "anonymous": false,
      "inputs": [
        {
          "indexed": true,
          "internalType": "address",
          "name": "owner",
          "type": "address"
        },
        {
          "indexed": true,
          "internalType": "address",
          "name": "approved",
          "type": "address"
        },
        {
          "indexed": true,
          "internalType": "uint256",
          "name": "tokenId",
          "type": "uint256"
        }
      ],
      "name": "Approval",
      "type": "event"
    },
    {
      "anonymous": false,
      "inputs": [
        {
          "indexed": true,
          "internalType": "address",
          "name": "owner",
          "type": "address"
        },
        {
          "indexed": true,
          "internalType": "address",
          "name": "operator",
          "type": "address"
        },
        {
          "indexed": false,
          "internalType": "bool",
          "name": "approved",
          "type": "bool"
        }
      ],
      "name": "ApprovalForAll",
      "type": "event"
    },
    {
      "anonymous": false,
      "inputs": [
        {
          "indexed": false,
          "internalType": "address",
          "name": "sentTo",
          "type": "address"
        },
        {
          "indexed": false,
          "internalType": "uint256",
          "name": "amount",
          "type": "uint256"
        },
        {
          "indexed": false,
          "internalType": "uint256",
          "name": "timestamp",
          "type": "uint256"
        }
      ],
      "name": "Cashback",
      "type": "event"
    },
    {
      "anonymous": false,
      "inputs": [
        {
          "indexed": false,
          "internalType": "address",
          "name": "from",
          "type": "address"
        },
        {
          "indexed": false,
          "internalType": "string",
          "name": "message",
          "type": "string"
        }
      ],
      "name": "LimitExceeded",
      "type": "event"
    },
    {
      "anonymous": false,
      "inputs": [
        {
          "indexed": false,
          "internalType": "address",
          "name": "purchasedBy",
          "type": "address"
        },
        {
          "indexed": false,
          "internalType": "uint256",
          "name": "amount",
          "type": "uint256"
        },
        {
          "indexed": false,
          "internalType": "uint256",
          "name": "number",
          "type": "uint256"
        },
        {
          "indexed": false,
          "internalType": "uint256",
          "name": "timestamp",
          "type": "uint256"
        }
      ],
      "name": "Purchased",
      "type": "event"
    },
    {
      "anonymous": false,
      "inputs": [
        {
          "indexed": true,
          "internalType": "address",
          "name": "from",
          "type": "address"
        },
        {
          "indexed": true,
          "internalType": "address",
          "name": "to",
          "type": "address"
        },
        {
          "indexed": true,
          "internalType": "uint256",
          "name": "tokenId",
          "type": "uint256"
        }
      ],
      "name": "Transfer",
      "type": "event"
    },
    {
      "inputs": [],
      "name": "BASE_URI",
      "outputs": [
        {
          "internalType": "string",
          "name": "",
          "type": "string"
        }
      ],
      "stateMutability": "view",
      "type": "function"
    },
    {
      "inputs": [],
      "name": "CONTRACT_URI",
      "outputs": [
        {
          "internalType": "string",
          "name": "",
          "type": "string"
        }
      ],
      "stateMutability": "view",
      "type": "function"
    },
    {
      "inputs": [],
      "name": "INIT_CASH_BACK",
      "outputs": [
        {
          "internalType": "bool",
          "name": "",
          "type": "bool"
        }
      ],
      "stateMutability": "view",
      "type": "function"
    },
    {
      "inputs": [],
      "name": "MAX_CONTRACT_VALUE",
      "outputs": [
        {
          "internalType": "uint256",
          "name": "",
          "type": "uint256"
        }
      ],
      "stateMutability": "view",
      "type": "function"
    },
    {
      "inputs": [],
      "name": "MAX_INITIAL_SUPPLY",
      "outputs": [
        {
          "internalType": "uint256",
          "name": "",
          "type": "uint256"
        }
      ],
      "stateMutability": "view",
      "type": "function"
    },
    {
      "inputs": [],
      "name": "MAX_MINTABLE",
      "outputs": [
        {
          "internalType": "uint256",
          "name": "",
          "type": "uint256"
        }
      ],
      "stateMutability": "view",
      "type": "function"
    },
    {
      "inputs": [],
      "name": "MAX_SUPPLY",
      "outputs": [
        {
          "internalType": "uint256",
          "name": "",
          "type": "uint256"
        }
      ],
      "stateMutability": "view",
      "type": "function"
    },
    {
      "inputs": [],
      "name": "MIN_CASH_BACK_VALUE",
      "outputs": [
        {
          "internalType": "uint256",
          "name": "",
          "type": "uint256"
        }
      ],
      "stateMutability": "view",
      "type": "function"
    },
    {
      "inputs": [],
      "name": "OPERATOR_FILTER_REGISTRY",
      "outputs": [
        {
          "internalType": "contract IOperatorFilterRegistry",
          "name": "",
          "type": "address"
        }
      ],
      "stateMutability": "view",
      "type": "function"
    },
    {
      "inputs": [],
      "name": "OWNERS_SHARE",
      "outputs": [
        {
          "internalType": "uint256",
          "name": "",
          "type": "uint256"
        }
      ],
      "stateMutability": "view",
      "type": "function"
    },
    {
      "inputs": [],
      "name": "OWNERS_SHARE_MINTED",
      "outputs": [
        {
          "internalType": "bool",
          "name": "",
          "type": "bool"
        }
      ],
      "stateMutability": "view",
      "type": "function"
    },
    {
      "inputs": [],
      "name": "PHASE",
      "outputs": [
        {
          "internalType": "uint256",
          "name": "",
          "type": "uint256"
        }
      ],
      "stateMutability": "view",
      "type": "function"
    },
    {
      "inputs": [],
      "name": "PURCHASE_LIMIT",
      "outputs": [
        {
          "internalType": "uint256",
          "name": "",
          "type": "uint256"
        }
      ],
      "stateMutability": "view",
      "type": "function"
    },
    {
      "inputs": [],
      "name": "SOLD_OUT",
      "outputs": [
        {
          "internalType": "bool",
          "name": "",
          "type": "bool"
        }
      ],
      "stateMutability": "view",
      "type": "function"
    },
    {
      "inputs": [
        {
          "internalType": "uint256",
          "name": "",
          "type": "uint256"
        }
      ],
      "name": "WINNERS",
      "outputs": [
        {
          "internalType": "address",
          "name": "_address",
          "type": "address"
        },
        {
          "internalType": "uint256",
          "name": "amount",
          "type": "uint256"
        },
        {
          "internalType": "uint256",
          "name": "timestamp",
          "type": "uint256"
        }
      ],
      "stateMutability": "view",
      "type": "function"
    },
    {
      "inputs": [],
      "name": "_PRICE",
      "outputs": [
        {
          "internalType": "uint256",
          "name": "",
          "type": "uint256"
        }
      ],
      "stateMutability": "view",
      "type": "function"
    },
    {
      "inputs": [],
      "name": "activatePhaseTwo",
      "outputs": [],
      "stateMutability": "nonpayable",
      "type": "function"
    },
    {
      "inputs": [
        {
          "internalType": "address",
          "name": "operator",
          "type": "address"
        },
        {
          "internalType": "uint256",
          "name": "tokenId",
          "type": "uint256"
        }
      ],
      "name": "approve",
      "outputs": [],
      "stateMutability": "nonpayable",
      "type": "function"
    },
    {
      "inputs": [
        {
          "internalType": "address",
          "name": "owner",
          "type": "address"
        }
      ],
      "name": "balanceOf",
      "outputs": [
        {
          "internalType": "uint256",
          "name": "",
          "type": "uint256"
        }
      ],
      "stateMutability": "view",
      "type": "function"
    },
    {
      "inputs": [],
      "name": "contractURI",
      "outputs": [
        {
          "internalType": "string",
          "name": "",
          "type": "string"
        }
      ],
      "stateMutability": "view",
      "type": "function"
    },
    {
      "inputs": [],
      "name": "endPhase",
      "outputs": [],
      "stateMutability": "nonpayable",
      "type": "function"
    },
    {
      "inputs": [
        {
          "internalType": "uint256",
          "name": "tokenId",
          "type": "uint256"
        }
      ],
      "name": "getApproved",
      "outputs": [
        {
          "internalType": "address",
          "name": "",
          "type": "address"
        }
      ],
      "stateMutability": "view",
      "type": "function"
    },
    {
      "inputs": [],
      "name": "initiateCashback",
      "outputs": [],
      "stateMutability": "nonpayable",
      "type": "function"
    },
    {
      "inputs": [
        {
          "internalType": "address",
          "name": "owner",
          "type": "address"
        },
        {
          "internalType": "address",
          "name": "operator",
          "type": "address"
        }
      ],
      "name": "isApprovedForAll",
      "outputs": [
        {
          "internalType": "bool",
          "name": "",
          "type": "bool"
        }
      ],
      "stateMutability": "view",
      "type": "function"
    },
    {
      "inputs": [
        {
          "internalType": "uint256",
          "name": "amount",
          "type": "uint256"
        }
      ],
      "name": "mint",
      "outputs": [],
      "stateMutability": "payable",
      "type": "function"
    },
    {
      "inputs": [],
      "name": "name",
      "outputs": [
        {
          "internalType": "string",
          "name": "",
          "type": "string"
        }
      ],
      "stateMutability": "view",
      "type": "function"
    },
    {
      "inputs": [
        {
          "internalType": "uint256",
          "name": "tokenId",
          "type": "uint256"
        }
      ],
      "name": "ownerOf",
      "outputs": [
        {
          "internalType": "address",
          "name": "",
          "type": "address"
        }
      ],
      "stateMutability": "view",
      "type": "function"
    },
    {
      "inputs": [],
      "name": "reserve",
      "outputs": [],
      "stateMutability": "nonpayable",
      "type": "function"
    },
    {
      "inputs": [
        {
          "internalType": "uint256",
          "name": "_tokenId",
          "type": "uint256"
        },
        {
          "internalType": "uint256",
          "name": "_salePrice",
          "type": "uint256"
        }
      ],
      "name": "royaltyInfo",
      "outputs": [
        {
          "internalType": "address",
          "name": "",
          "type": "address"
        },
        {
          "internalType": "uint256",
          "name": "",
          "type": "uint256"
        }
      ],
      "stateMutability": "view",
      "type": "function"
    },
    {
      "inputs": [
        {
          "internalType": "address",
          "name": "from",
          "type": "address"
        },
        {
          "internalType": "address",
          "name": "to",
          "type": "address"
        },
        {
          "internalType": "uint256",
          "name": "tokenId",
          "type": "uint256"
        }
      ],
      "name": "safeTransferFrom",
      "outputs": [],
      "stateMutability": "nonpayable",
      "type": "function"
    },
    {
      "inputs": [
        {
          "internalType": "address",
          "name": "from",
          "type": "address"
        },
        {
          "internalType": "address",
          "name": "to",
          "type": "address"
        },
        {
          "internalType": "uint256",
          "name": "tokenId",
          "type": "uint256"
        },
        {
          "internalType": "bytes",
          "name": "data",
          "type": "bytes"
        }
      ],
      "name": "safeTransferFrom",
      "outputs": [],
      "stateMutability": "nonpayable",
      "type": "function"
    },
    {
      "inputs": [
        {
          "internalType": "address",
          "name": "operator",
          "type": "address"
        },
        {
          "internalType": "bool",
          "name": "approved",
          "type": "bool"
        }
      ],
      "name": "setApprovalForAll",
      "outputs": [],
      "stateMutability": "nonpayable",
      "type": "function"
    },
    {
      "inputs": [
        {
          "internalType": "string",
          "name": "uri",
          "type": "string"
        }
      ],
      "name": "setBaseURI",
      "outputs": [],
      "stateMutability": "nonpayable",
      "type": "function"
    },
    {
      "inputs": [
        {
          "internalType": "string",
          "name": "uri",
          "type": "string"
        }
      ],
      "name": "setContractURI",
      "outputs": [],
      "stateMutability": "nonpayable",
      "type": "function"
    },
    {
      "inputs": [
        {
          "internalType": "address",
          "name": "_receiver",
          "type": "address"
        },
        {
          "internalType": "uint96",
          "name": "fee",
          "type": "uint96"
        }
      ],
      "name": "setCreatorsFee",
      "outputs": [],
      "stateMutability": "nonpayable",
      "type": "function"
    },
    {
      "inputs": [
        {
          "internalType": "bytes4",
          "name": "interfaceId",
          "type": "bytes4"
        }
      ],
      "name": "supportsInterface",
      "outputs": [
        {
          "internalType": "bool",
          "name": "",
          "type": "bool"
        }
      ],
      "stateMutability": "view",
      "type": "function"
    },
    {
      "inputs": [],
      "name": "symbol",
      "outputs": [
        {
          "internalType": "string",
          "name": "",
          "type": "string"
        }
      ],
      "stateMutability": "view",
      "type": "function"
    },
    {
      "inputs": [
        {
          "internalType": "uint256",
          "name": "tokenId",
          "type": "uint256"
        }
      ],
      "name": "tokenURI",
      "outputs": [
        {
          "internalType": "string",
          "name": "",
          "type": "string"
        }
      ],
      "stateMutability": "view",
      "type": "function"
    },
    {
      "inputs": [],
      "name": "totalSupply",
      "outputs": [
        {
          "internalType": "uint256",
          "name": "",
          "type": "uint256"
        }
      ],
      "stateMutability": "view",
      "type": "function"
    },
    {
      "inputs": [],
      "name": "totalWinners",
      "outputs": [
        {
          "internalType": "uint256",
          "name": "",
          "type": "uint256"
        }
      ],
      "stateMutability": "view",
      "type": "function"
    },
    {
      "inputs": [
        {
          "internalType": "address",
          "name": "from",
          "type": "address"
        },
        {
          "internalType": "address",
          "name": "to",
          "type": "address"
        },
        {
          "internalType": "uint256",
          "name": "tokenId",
          "type": "uint256"
        }
      ],
      "name": "transferFrom",
      "outputs": [],
      "stateMutability": "nonpayable",
      "type": "function"
    },
    {
      "inputs": [
        {
          "internalType": "address",
          "name": "to",
          "type": "address"
        }
      ],
      "name": "transferOwnership",
      "outputs": [],
      "stateMutability": "nonpayable",
      "type": "function"
    },
    {
      "inputs": [],
      "name": "withdraw",
      "outputs": [],
      "stateMutability": "nonpayable",
      "type": "function"
    }
  ],
  "bytecode": "0x60806040526001600a556000600b60006101000a81548160ff0219169083151502179055506000600b60016101000a81548160ff0219169083151502179055506000600b60026101000a81548160ff021916908315150217905550601e6127106200006b919062000721565b600c5567013fbe85edc90000600d556014600e55683635c9adc5dea00000600f5560405180606001604052806036815260200162005e2e6036913960119081620000b69190620009cc565b5060405180606001604052806036815260200162005e2e6036913960129081620000e19190620009cc565b50348015620000ef57600080fd5b50733cc6cdda760b79bafa08df41ecfa224f810dceb660016040518060400160405280600881526020017f5073794475636b730000000000000000000000000000000000000000000000008152506040518060400160405280600381526020017f50535900000000000000000000000000000000000000000000000000000000008152508160009081620001849190620009cc565b508060019081620001969190620009cc565b50505060006daaeb6d7670e522a718067333cd4e73ffffffffffffffffffffffffffffffffffffffff163b11156200038e57801562000254576daaeb6d7670e522a718067333cd4e73ffffffffffffffffffffffffffffffffffffffff16637d3e3dbe30846040518363ffffffff1660e01b81526004016200021a92919062000af8565b600060405180830381600087803b1580156200023557600080fd5b505af11580156200024a573d6000803e3d6000fd5b505050506200038d565b600073ffffffffffffffffffffffffffffffffffffffff168273ffffffffffffffffffffffffffffffffffffffff16146200030e576daaeb6d7670e522a718067333cd4e73ffffffffffffffffffffffffffffffffffffffff1663a0af290330846040518363ffffffff1660e01b8152600401620002d492919062000af8565b600060405180830381600087803b158015620002ef57600080fd5b505af115801562000304573d6000803e3d6000fd5b505050506200038c565b6daaeb6d7670e522a718067333cd4e73ffffffffffffffffffffffffffffffffffffffff16634420e486306040518263ffffffff1660e01b815260040162000357919062000b25565b600060405180830381600087803b1580156200037257600080fd5b505af115801562000387573d6000803e3d6000fd5b505050505b5b5b5050620003a06200040960201b60201c565b600960006101000a81548173ffffffffffffffffffffffffffffffffffffffff021916908373ffffffffffffffffffffffffffffffffffffffff16021790555062000403620003f46200040960201b60201c565b6103e86200041160201b60201c565b62000d41565b600033905090565b620004216200040960201b60201c565b73ffffffffffffffffffffffffffffffffffffffff16600960009054906101000a900473ffffffffffffffffffffffffffffffffffffffff1673ffffffffffffffffffffffffffffffffffffffff1614620004b3576040517f08c379a0000000000000000000000000000000000000000000000000000000008152600401620004aa9062000ba3565b60405180910390fd5b600073ffffffffffffffffffffffffffffffffffffffff168273ffffffffffffffffffffffffffffffffffffffff160362000525576040517f08c379a00000000000000000000000000000000000000000000000000000000081526004016200051c9062000c15565b60405180910390fd5b6200053782826200053b60201b60201c565b5050565b6200054b620006de60201b60201c565b6bffffffffffffffffffffffff16816bffffffffffffffffffffffff161115620005ac576040517f08c379a0000000000000000000000000000000000000000000000000000000008152600401620005a39062000cad565b60405180910390fd5b600073ffffffffffffffffffffffffffffffffffffffff168273ffffffffffffffffffffffffffffffffffffffff16036200061e576040517f08c379a0000000000000000000000000000000000000000000000000000000008152600401620006159062000d1f565b60405180910390fd5b60405180604001604052808373ffffffffffffffffffffffffffffffffffffffff168152602001826bffffffffffffffffffffffff16815250600660008201518160000160006101000a81548173ffffffffffffffffffffffffffffffffffffffff021916908373ffffffffffffffffffffffffffffffffffffffff16021790555060208201518160000160146101000a8154816bffffffffffffffffffffffff02191690836bffffffffffffffffffffffff1602179055509050505050565b6000612710905090565b6000819050919050565b7f4e487b7100000000000000000000000000000000000000000000000000000000600052601160045260246000fd5b60006200072e82620006e8565b91506200073b83620006e8565b9250828203905081811115620007565762000755620006f2565b5b92915050565b600081519050919050565b7f4e487b7100000000000000000000000000000000000000000000000000000000600052604160045260246000fd5b7f4e487b7100000000000000000000000000000000000000000000000000000000600052602260045260246000fd5b60006002820490506001821680620007de57607f821691505b602082108103620007f457620007f362000796565b5b50919050565b60008190508160005260206000209050919050565b60006020601f8301049050919050565b600082821b905092915050565b6000600883026200085e7fffffffffffffffffffffffffffffffffffffffffffffffffffffffffffffffff826200081f565b6200086a86836200081f565b95508019841693508086168417925050509392505050565b6000819050919050565b6000620008ad620008a7620008a184620006e8565b62000882565b620006e8565b9050919050565b6000819050919050565b620008c9836200088c565b620008e1620008d882620008b4565b8484546200082c565b825550505050565b600090565b620008f8620008e9565b62000905818484620008be565b505050565b5b818110156200092d5762000921600082620008ee565b6001810190506200090b565b5050565b601f8211156200097c576200094681620007fa565b62000951846200080f565b8101602085101562000961578190505b6200097962000970856200080f565b8301826200090a565b50505b505050565b600082821c905092915050565b6000620009a16000198460080262000981565b1980831691505092915050565b6000620009bc83836200098e565b9150826002028217905092915050565b620009d7826200075c565b67ffffffffffffffff811115620009f357620009f262000767565b5b620009ff8254620007c5565b62000a0c82828562000931565b600060209050601f83116001811462000a44576000841562000a2f578287015190505b62000a3b8582620009ae565b86555062000aab565b601f19841662000a5486620007fa565b60005b8281101562000a7e5784890151825560018201915060208501945060208101905062000a57565b8683101562000a9e578489015162000a9a601f8916826200098e565b8355505b6001600288020188555050505b505050505050565b600073ffffffffffffffffffffffffffffffffffffffff82169050919050565b600062000ae08262000ab3565b9050919050565b62000af28162000ad3565b82525050565b600060408201905062000b0f600083018562000ae7565b62000b1e602083018462000ae7565b9392505050565b600060208201905062000b3c600083018462000ae7565b92915050565b600082825260208201905092915050565b7f43616c6c6572206973206e6f7420746865206f776e6572210000000000000000600082015250565b600062000b8b60188362000b42565b915062000b988262000b53565b602082019050919050565b6000602082019050818103600083015262000bbe8162000b7c565b9050919050565b7f52656365697665722063616e6e6f742062652061207830206164647265737321600082015250565b600062000bfd60208362000b42565b915062000c0a8262000bc5565b602082019050919050565b6000602082019050818103600083015262000c308162000bee565b9050919050565b7f455243323938313a20726f79616c7479206665652077696c6c2065786365656460008201527f2073616c65507269636500000000000000000000000000000000000000000000602082015250565b600062000c95602a8362000b42565b915062000ca28262000c37565b604082019050919050565b6000602082019050818103600083015262000cc88162000c86565b9050919050565b7f455243323938313a20696e76616c696420726563656976657200000000000000600082015250565b600062000d0760198362000b42565b915062000d148262000ccf565b602082019050919050565b6000602082019050818103600083015262000d3a8162000cf8565b9050919050565b6150dd8062000d516000396000f3fe60806040526004361061025c5760003560e01c806370a0823111610144578063c87b56dd116100b6578063d7a43faf1161007a578063d7a43faf14610896578063dbddb26a146108c1578063e8a3d485146108ec578063e985e9c514610917578063f2fde38b14610954578063fc96f3601461097d5761025c565b8063c87b56dd146107d5578063cd3293de14610812578063cd4a892e14610829578063d21efc3514610854578063d75e61101461086b5761025c565b8063a22cb46511610108578063a22cb465146106d7578063aa8dd3db14610700578063aa9c16181461072b578063b88d4fde14610756578063b8eb8e611461077f578063bcc941b6146107aa5761025c565b806370a08231146105ff578063738e30741461063c578063938e3d7b1461066757806395d89b4114610690578063a0712d68146106bb5761025c565b806323b872dd116101dd5780633f879faf116101a15780633f879faf146104ef57806341f434341461051a57806342842e0e1461054557806355f804b31461056e57806356b4f673146105975780636352211e146105c25761025c565b806323b872dd1461041b5780632a55205a1461044457806332cb6b0c146104825780633ccfd60b146104ad5780633e5a3da4146104c45761025c565b806309e64e9a1161022457806309e64e9a14610358578063142e1f8f146103835780631506e35a1461039a57806318160ddd146103b15780631df85ba3146103dc5761025c565b806301a1b28b1461026157806301ffc9a71461028a57806306fdde03146102c7578063081812fc146102f2578063095ea7b31461032f575b600080fd5b34801561026d57600080fd5b5061028860048036038101906102839190613795565b6109a8565b005b34801561029657600080fd5b506102b160048036038101906102ac919061382d565b610abc565b6040516102be9190613875565b60405180910390f35b3480156102d357600080fd5b506102dc610ace565b6040516102e99190613920565b60405180910390f35b3480156102fe57600080fd5b5061031960048036038101906103149190613978565b610b60565b60405161032691906139b4565b60405180910390f35b34801561033b57600080fd5b50610356600480360381019061035191906139cf565b610ba6565b005b34801561036457600080fd5b5061036d610bbf565b60405161037a9190613a1e565b60405180910390f35b34801561038f57600080fd5b50610398610bc5565b005b3480156103a657600080fd5b506103af610cb3565b005b3480156103bd57600080fd5b506103c6610d67565b6040516103d39190613a1e565b60405180910390f35b3480156103e857600080fd5b5061040360048036038101906103fe9190613978565b610d78565b60405161041293929190613a39565b60405180910390f35b34801561042757600080fd5b50610442600480360381019061043d9190613a70565b610dd2565b005b34801561045057600080fd5b5061046b60048036038101906104669190613ac3565b610e21565b604051610479929190613b03565b60405180910390f35b34801561048e57600080fd5b5061049761100b565b6040516104a49190613a1e565b60405180910390f35b3480156104b957600080fd5b506104c2611011565b005b3480156104d057600080fd5b506104d961115c565b6040516104e69190613875565b60405180910390f35b3480156104fb57600080fd5b5061050461116f565b6040516105119190613a1e565b60405180910390f35b34801561052657600080fd5b5061052f611175565b60405161053c9190613b8b565b60405180910390f35b34801561055157600080fd5b5061056c60048036038101906105679190613a70565b611187565b005b34801561057a57600080fd5b5061059560048036038101906105909190613cdb565b6111d6565b005b3480156105a357600080fd5b506105ac611280565b6040516105b99190613920565b60405180910390f35b3480156105ce57600080fd5b506105e960048036038101906105e49190613978565b61130e565b6040516105f691906139b4565b60405180910390f35b34801561060b57600080fd5b5061062660048036038101906106219190613d24565b611394565b6040516106339190613a1e565b60405180910390f35b34801561064857600080fd5b5061065161144b565b60405161065e9190613875565b60405180910390f35b34801561067357600080fd5b5061068e60048036038101906106899190613cdb565b61145e565b005b34801561069c57600080fd5b506106a5611508565b6040516106b29190613920565b60405180910390f35b6106d560048036038101906106d09190613978565b61159a565b005b3480156106e357600080fd5b506106fe60048036038101906106f99190613d7d565b6117ec565b005b34801561070c57600080fd5b50610715611805565b6040516107229190613a1e565b60405180910390f35b34801561073757600080fd5b5061074061180a565b60405161074d9190613a1e565b60405180910390f35b34801561076257600080fd5b5061077d60048036038101906107789190613e5e565b611810565b005b34801561078b57600080fd5b50610794611861565b6040516107a19190613a1e565b60405180910390f35b3480156107b657600080fd5b506107bf611867565b6040516107cc9190613a1e565b60405180910390f35b3480156107e157600080fd5b506107fc60048036038101906107f79190613978565b611874565b6040516108099190613920565b60405180910390f35b34801561081e57600080fd5b506108276118dc565b005b34801561083557600080fd5b5061083e611a3f565b60405161084b9190613875565b60405180910390f35b34801561086057600080fd5b50610869611a52565b005b34801561087757600080fd5b50610880611b19565b60405161088d9190613a1e565b60405180910390f35b3480156108a257600080fd5b506108ab611b1f565b6040516108b89190613a1e565b60405180910390f35b3480156108cd57600080fd5b506108d6611b2b565b6040516108e39190613920565b60405180910390f35b3480156108f857600080fd5b50610901611bb9565b60405161090e9190613920565b60405180910390f35b34801561092357600080fd5b5061093e60048036038101906109399190613ee1565b611c4b565b60405161094b9190613875565b60405180910390f35b34801561096057600080fd5b5061097b60048036038101906109769190613d24565b611cdf565b005b34801561098957600080fd5b50610992611eb9565b60405161099f9190613a1e565b60405180910390f35b6109b0611ebf565b73ffffffffffffffffffffffffffffffffffffffff16600960009054906101000a900473ffffffffffffffffffffffffffffffffffffffff1673ffffffffffffffffffffffffffffffffffffffff1614610a3f576040517f08c379a0000000000000000000000000000000000000000000000000000000008152600401610a3690613f6d565b60405180910390fd5b600073ffffffffffffffffffffffffffffffffffffffff168273ffffffffffffffffffffffffffffffffffffffff1603610aae576040517f08c379a0000000000000000000000000000000000000000000000000000000008152600401610aa590613fd9565b60405180910390fd5b610ab88282611ec7565b5050565b6000610ac78261205c565b9050919050565b606060008054610add90614028565b80601f0160208091040260200160405190810160405280929190818152602001828054610b0990614028565b8015610b565780601f10610b2b57610100808354040283529160200191610b56565b820191906000526020600020905b815481529060010190602001808311610b3957829003601f168201915b5050505050905090565b6000610b6b826120d6565b6004600083815260200190815260200160002060009054906101000a900473ffffffffffffffffffffffffffffffffffffffff169050919050565b81610bb081612121565b610bba838361221e565b505050565b61271081565b610bcd611ebf565b73ffffffffffffffffffffffffffffffffffffffff16600960009054906101000a900473ffffffffffffffffffffffffffffffffffffffff1673ffffffffffffffffffffffffffffffffffffffff1614610c5c576040517f08c379a0000000000000000000000000000000000000000000000000000000008152600401610c5390613f6d565b60405180910390fd5b6002600a819055506000600b60006101000a81548160ff021916908315150217905550670c7d713b49da0000600d8190555061044c600e81905550614e20600c8190555069021e19e0c9bab2400000600f81905550565b610cbb611ebf565b73ffffffffffffffffffffffffffffffffffffffff16600960009054906101000a900473ffffffffffffffffffffffffffffffffffffffff1673ffffffffffffffffffffffffffffffffffffffff1614610d4a576040517f08c379a0000000000000000000000000000000000000000000000000000000008152600401610d4190613f6d565b60405180910390fd5b6001600b60016101000a81548160ff021916908315150217905550565b6000610d736008612335565b905090565b60108181548110610d8857600080fd5b90600052602060002090600302016000915090508060000160009054906101000a900473ffffffffffffffffffffffffffffffffffffffff16908060010154908060020154905083565b823373ffffffffffffffffffffffffffffffffffffffff168173ffffffffffffffffffffffffffffffffffffffff1614610e1057610e0f33612121565b5b610e1b848484612343565b50505050565b6000806000600760008681526020019081526020016000206040518060400160405290816000820160009054906101000a900473ffffffffffffffffffffffffffffffffffffffff1673ffffffffffffffffffffffffffffffffffffffff1673ffffffffffffffffffffffffffffffffffffffff1681526020016000820160149054906101000a90046bffffffffffffffffffffffff166bffffffffffffffffffffffff166bffffffffffffffffffffffff16815250509050600073ffffffffffffffffffffffffffffffffffffffff16816000015173ffffffffffffffffffffffffffffffffffffffff1603610fb65760066040518060400160405290816000820160009054906101000a900473ffffffffffffffffffffffffffffffffffffffff1673ffffffffffffffffffffffffffffffffffffffff1673ffffffffffffffffffffffffffffffffffffffff1681526020016000820160149054906101000a90046bffffffffffffffffffffffff166bffffffffffffffffffffffff166bffffffffffffffffffffffff168152505090505b6000610fc06123a3565b6bffffffffffffffffffffffff1682602001516bffffffffffffffffffffffff1686610fec9190614088565b610ff691906140f9565b90508160000151819350935050509250929050565b614e2081565b611019611ebf565b73ffffffffffffffffffffffffffffffffffffffff16600960009054906101000a900473ffffffffffffffffffffffffffffffffffffffff1673ffffffffffffffffffffffffffffffffffffffff16146110a8576040517f08c379a000000000000000000000000000000000000000000000000000000000815260040161109f90613f6d565b60405180910390fd5b6000479050600081116110f0576040517f08c379a00000000000000000000000000000000000000000000000000000000081526004016110e790614176565b60405180910390fd5b600960009054906101000a900473ffffffffffffffffffffffffffffffffffffffff1673ffffffffffffffffffffffffffffffffffffffff166108fc829081150290604051600060405180830381858888f19350505050158015611158573d6000803e3d6000fd5b5050565b600b60009054906101000a900460ff1681565b600c5481565b6daaeb6d7670e522a718067333cd4e81565b823373ffffffffffffffffffffffffffffffffffffffff168173ffffffffffffffffffffffffffffffffffffffff16146111c5576111c433612121565b5b6111d08484846123ad565b50505050565b6111de611ebf565b73ffffffffffffffffffffffffffffffffffffffff16600960009054906101000a900473ffffffffffffffffffffffffffffffffffffffff1673ffffffffffffffffffffffffffffffffffffffff161461126d576040517f08c379a000000000000000000000000000000000000000000000000000000000815260040161126490613f6d565b60405180910390fd5b806011908161127c9190614338565b5050565b6012805461128d90614028565b80601f01602080910402602001604051908101604052809291908181526020018280546112b990614028565b80156113065780601f106112db57610100808354040283529160200191611306565b820191906000526020600020905b8154815290600101906020018083116112e957829003601f168201915b505050505081565b60008061131a836123cd565b9050600073ffffffffffffffffffffffffffffffffffffffff168173ffffffffffffffffffffffffffffffffffffffff160361138b576040517f08c379a000000000000000000000000000000000000000000000000000000000815260040161138290614456565b60405180910390fd5b80915050919050565b60008073ffffffffffffffffffffffffffffffffffffffff168273ffffffffffffffffffffffffffffffffffffffff1603611404576040517f08c379a00000000000000000000000000000000000000000000000000000000081526004016113fb906144e8565b60405180910390fd5b600360008373ffffffffffffffffffffffffffffffffffffffff1673ffffffffffffffffffffffffffffffffffffffff168152602001908152602001600020549050919050565b600b60029054906101000a900460ff1681565b611466611ebf565b73ffffffffffffffffffffffffffffffffffffffff16600960009054906101000a900473ffffffffffffffffffffffffffffffffffffffff1673ffffffffffffffffffffffffffffffffffffffff16146114f5576040517f08c379a00000000000000000000000000000000000000000000000000000000081526004016114ec90613f6d565b60405180910390fd5b80601290816115049190614338565b5050565b60606001805461151790614028565b80601f016020809104026020016040519081016040528092919081815260200182805461154390614028565b80156115905780601f1061156557610100808354040283529160200191611590565b820191906000526020600020905b81548152906001019060200180831161157357829003601f168201915b5050505050905090565b6000816115ad6115a8611ebf565b611394565b6115b79190614508565b9050600082600d546115c99190614088565b9050600e548211611613577f700afc125fa7401d8c1aaf5376e3e8232e94d8664f959a19bd39ff39437f92246115fd611ebf565b60405161160a9190614588565b60405180910390a15b600e5483611627611622611ebf565b611394565b6116319190614508565b1115611672576040517f08c379a000000000000000000000000000000000000000000000000000000000815260040161166990614628565b60405180910390fd5b600960009054906101000a900473ffffffffffffffffffffffffffffffffffffffff1673ffffffffffffffffffffffffffffffffffffffff166116b3611ebf565b73ffffffffffffffffffffffffffffffffffffffff16146117125780341015611711576040517f08c379a000000000000000000000000000000000000000000000000000000000815260040161170890614694565b60405180910390fd5b5b60005b838110156117a257600c5461172a6008612335565b111561176b576040517f08c379a000000000000000000000000000000000000000000000000000000000815260040161176290614700565b60405180910390fd5b611775600861240a565b61178f611780611ebf565b61178a6008612335565b612420565b808061179a90614720565b915050611715565b507f2bdd59583c8e5cc64165e86af2482dbe93e85c98b355b788aa592465b3f6920e6117cc611ebf565b3485426040516117df9493929190614768565b60405180910390a1505050565b816117f681612121565b611800838361243e565b505050565b601e81565b600f5481565b833373ffffffffffffffffffffffffffffffffffffffff168173ffffffffffffffffffffffffffffffffffffffff161461184e5761184d33612121565b5b61185a85858585612454565b5050505050565b600a5481565b6000601080549050905090565b606061187f826120d6565b60006118896124b6565b905060008151116118a957604051806020016040528060008152506118d4565b806118b384612548565b6040516020016118c49291906147e9565b6040516020818303038152906040525b915050919050565b6118e4611ebf565b73ffffffffffffffffffffffffffffffffffffffff16600960009054906101000a900473ffffffffffffffffffffffffffffffffffffffff1673ffffffffffffffffffffffffffffffffffffffff1614611973576040517f08c379a000000000000000000000000000000000000000000000000000000000815260040161196a90613f6d565b60405180910390fd5b600b60029054906101000a900460ff16156119c3576040517f08c379a00000000000000000000000000000000000000000000000000000000081526004016119ba9061487f565b60405180910390fd5b60005b601e811015611a21576119d9600861240a565b611a0e600960009054906101000a900473ffffffffffffffffffffffffffffffffffffffff16611a096008612335565b612420565b8080611a1990614720565b9150506119c6565b506001600b60026101000a81548160ff021916908315150217905550565b600b60019054906101000a900460ff1681565b611a5a611ebf565b73ffffffffffffffffffffffffffffffffffffffff16600960009054906101000a900473ffffffffffffffffffffffffffffffffffffffff1673ffffffffffffffffffffffffffffffffffffffff1614611ae9576040517f08c379a0000000000000000000000000000000000000000000000000000000008152600401611ae090613f6d565b60405180910390fd5b600c54611af66008612335565b03611b17576001600b60006101000a81548160ff0219169083151502179055505b565b600e5481565b678ac7230489e8000081565b60118054611b3890614028565b80601f0160208091040260200160405190810160405280929190818152602001828054611b6490614028565b8015611bb15780601f10611b8657610100808354040283529160200191611bb1565b820191906000526020600020905b815481529060010190602001808311611b9457829003601f168201915b505050505081565b606060128054611bc890614028565b80601f0160208091040260200160405190810160405280929190818152602001828054611bf490614028565b8015611c415780601f10611c1657610100808354040283529160200191611c41565b820191906000526020600020905b815481529060010190602001808311611c2457829003601f168201915b5050505050905090565b6000600560008473ffffffffffffffffffffffffffffffffffffffff1673ffffffffffffffffffffffffffffffffffffffff16815260200190815260200160002060008373ffffffffffffffffffffffffffffffffffffffff1673ffffffffffffffffffffffffffffffffffffffff16815260200190815260200160002060009054906101000a900460ff16905092915050565b611ce7611ebf565b73ffffffffffffffffffffffffffffffffffffffff16600960009054906101000a900473ffffffffffffffffffffffffffffffffffffffff1673ffffffffffffffffffffffffffffffffffffffff1614611d76576040517f08c379a0000000000000000000000000000000000000000000000000000000008152600401611d6d90613f6d565b60405180910390fd5b600073ffffffffffffffffffffffffffffffffffffffff168173ffffffffffffffffffffffffffffffffffffffff1603611de5576040517f08c379a0000000000000000000000000000000000000000000000000000000008152600401611ddc906148eb565b60405180910390fd5b600960009054906101000a900473ffffffffffffffffffffffffffffffffffffffff1673ffffffffffffffffffffffffffffffffffffffff168173ffffffffffffffffffffffffffffffffffffffff1603611e75576040517f08c379a0000000000000000000000000000000000000000000000000000000008152600401611e6c90614957565b60405180910390fd5b80600960006101000a81548173ffffffffffffffffffffffffffffffffffffffff021916908373ffffffffffffffffffffffffffffffffffffffff16021790555050565b600d5481565b600033905090565b611ecf6123a3565b6bffffffffffffffffffffffff16816bffffffffffffffffffffffff161115611f2d576040517f08c379a0000000000000000000000000000000000000000000000000000000008152600401611f24906149e9565b60405180910390fd5b600073ffffffffffffffffffffffffffffffffffffffff168273ffffffffffffffffffffffffffffffffffffffff1603611f9c576040517f08c379a0000000000000000000000000000000000000000000000000000000008152600401611f9390614a55565b60405180910390fd5b60405180604001604052808373ffffffffffffffffffffffffffffffffffffffff168152602001826bffffffffffffffffffffffff16815250600660008201518160000160006101000a81548173ffffffffffffffffffffffffffffffffffffffff021916908373ffffffffffffffffffffffffffffffffffffffff16021790555060208201518160000160146101000a8154816bffffffffffffffffffffffff02191690836bffffffffffffffffffffffff1602179055509050505050565b60007f2a55205a000000000000000000000000000000000000000000000000000000007bffffffffffffffffffffffffffffffffffffffffffffffffffffffff1916827bffffffffffffffffffffffffffffffffffffffffffffffffffffffff191614806120cf57506120ce82612616565b5b9050919050565b6120df816126f8565b61211e576040517f08c379a000000000000000000000000000000000000000000000000000000000815260040161211590614456565b60405180910390fd5b50565b60006daaeb6d7670e522a718067333cd4e73ffffffffffffffffffffffffffffffffffffffff163b111561221b576daaeb6d7670e522a718067333cd4e73ffffffffffffffffffffffffffffffffffffffff1663c617113430836040518363ffffffff1660e01b8152600401612198929190614a75565b602060405180830381865afa1580156121b5573d6000803e3d6000fd5b505050506040513d601f19601f820116820180604052508101906121d99190614ab3565b61221a57806040517fede71dcc00000000000000000000000000000000000000000000000000000000815260040161221191906139b4565b60405180910390fd5b5b50565b60006122298261130e565b90508073ffffffffffffffffffffffffffffffffffffffff168373ffffffffffffffffffffffffffffffffffffffff1603612299576040517f08c379a000000000000000000000000000000000000000000000000000000000815260040161229090614b52565b60405180910390fd5b8073ffffffffffffffffffffffffffffffffffffffff166122b8611ebf565b73ffffffffffffffffffffffffffffffffffffffff1614806122e757506122e6816122e1611ebf565b611c4b565b5b612326576040517f08c379a000000000000000000000000000000000000000000000000000000000815260040161231d90614be4565b60405180910390fd5b6123308383612739565b505050565b600081600001549050919050565b61235461234e611ebf565b826127f2565b612393576040517f08c379a000000000000000000000000000000000000000000000000000000000815260040161238a90614c76565b60405180910390fd5b61239e838383612887565b505050565b6000612710905090565b6123c883838360405180602001604052806000815250611810565b505050565b60006002600083815260200190815260200160002060009054906101000a900473ffffffffffffffffffffffffffffffffffffffff169050919050565b6001816000016000828254019250508190555050565b61243a828260405180602001604052806000815250612b80565b5050565b612450612449611ebf565b8383612bdb565b5050565b61246561245f611ebf565b836127f2565b6124a4576040517f08c379a000000000000000000000000000000000000000000000000000000000815260040161249b90614c76565b60405180910390fd5b6124b084848484612d47565b50505050565b6060601180546124c590614028565b80601f01602080910402602001604051908101604052809291908181526020018280546124f190614028565b801561253e5780601f106125135761010080835404028352916020019161253e565b820191906000526020600020905b81548152906001019060200180831161252157829003601f168201915b5050505050905090565b60606000600161255784612da3565b01905060008167ffffffffffffffff81111561257657612575613bb0565b5b6040519080825280601f01601f1916602001820160405280156125a85781602001600182028036833780820191505090505b509050600082602001820190505b60011561260b578080600190039150507f3031323334353637383961626364656600000000000000000000000000000000600a86061a8153600a85816125ff576125fe6140ca565b5b049450600085036125b6575b819350505050919050565b60007f80ac58cd000000000000000000000000000000000000000000000000000000007bffffffffffffffffffffffffffffffffffffffffffffffffffffffff1916827bffffffffffffffffffffffffffffffffffffffffffffffffffffffff191614806126e157507f5b5e139f000000000000000000000000000000000000000000000000000000007bffffffffffffffffffffffffffffffffffffffffffffffffffffffff1916827bffffffffffffffffffffffffffffffffffffffffffffffffffffffff1916145b806126f157506126f082612ef6565b5b9050919050565b60008073ffffffffffffffffffffffffffffffffffffffff1661271a836123cd565b73ffffffffffffffffffffffffffffffffffffffff1614159050919050565b816004600083815260200190815260200160002060006101000a81548173ffffffffffffffffffffffffffffffffffffffff021916908373ffffffffffffffffffffffffffffffffffffffff160217905550808273ffffffffffffffffffffffffffffffffffffffff166127ac8361130e565b73ffffffffffffffffffffffffffffffffffffffff167f8c5be1e5ebec7d5bd14f71427d1e84f3dd0314c0f7b2291e5b200ac8c7c3b92560405160405180910390a45050565b6000806127fe8361130e565b90508073ffffffffffffffffffffffffffffffffffffffff168473ffffffffffffffffffffffffffffffffffffffff161480612840575061283f8185611c4b565b5b8061287e57508373ffffffffffffffffffffffffffffffffffffffff1661286684610b60565b73ffffffffffffffffffffffffffffffffffffffff16145b91505092915050565b8273ffffffffffffffffffffffffffffffffffffffff166128a78261130e565b73ffffffffffffffffffffffffffffffffffffffff16146128fd576040517f08c379a00000000000000000000000000000000000000000000000000000000081526004016128f490614d08565b60405180910390fd5b600073ffffffffffffffffffffffffffffffffffffffff168273ffffffffffffffffffffffffffffffffffffffff160361296c576040517f08c379a000000000000000000000000000000000000000000000000000000000815260040161296390614d9a565b60405180910390fd5b6129798383836001612f60565b8273ffffffffffffffffffffffffffffffffffffffff166129998261130e565b73ffffffffffffffffffffffffffffffffffffffff16146129ef576040517f08c379a00000000000000000000000000000000000000000000000000000000081526004016129e690614d08565b60405180910390fd5b6004600082815260200190815260200160002060006101000a81549073ffffffffffffffffffffffffffffffffffffffff02191690556001600360008573ffffffffffffffffffffffffffffffffffffffff1673ffffffffffffffffffffffffffffffffffffffff168152602001908152602001600020600082825403925050819055506001600360008473ffffffffffffffffffffffffffffffffffffffff1673ffffffffffffffffffffffffffffffffffffffff16815260200190815260200160002060008282540192505081905550816002600083815260200190815260200160002060006101000a81548173ffffffffffffffffffffffffffffffffffffffff021916908373ffffffffffffffffffffffffffffffffffffffff160217905550808273ffffffffffffffffffffffffffffffffffffffff168473ffffffffffffffffffffffffffffffffffffffff167fddf252ad1be2c89b69c2b068fc378daa952ba7f163c4a11628f55a4df523b3ef60405160405180910390a4612b7b8383836001613086565b505050565b612b8a8383613312565b612b97600084848461352f565b612bd6576040517f08c379a0000000000000000000000000000000000000000000000000000000008152600401612bcd90614e2c565b60405180910390fd5b505050565b8173ffffffffffffffffffffffffffffffffffffffff168373ffffffffffffffffffffffffffffffffffffffff1603612c49576040517f08c379a0000000000000000000000000000000000000000000000000000000008152600401612c4090614e98565b60405180910390fd5b80600560008573ffffffffffffffffffffffffffffffffffffffff1673ffffffffffffffffffffffffffffffffffffffff16815260200190815260200160002060008473ffffffffffffffffffffffffffffffffffffffff1673ffffffffffffffffffffffffffffffffffffffff16815260200190815260200160002060006101000a81548160ff0219169083151502179055508173ffffffffffffffffffffffffffffffffffffffff168373ffffffffffffffffffffffffffffffffffffffff167f17307eab39ab6107e8899845ad3d59bd9653f200f220920489ca2b5937696c3183604051612d3a9190613875565b60405180910390a3505050565b612d52848484612887565b612d5e8484848461352f565b612d9d576040517f08c379a0000000000000000000000000000000000000000000000000000000008152600401612d9490614e2c565b60405180910390fd5b50505050565b600080600090507a184f03e93ff9f4daa797ed6e38ed64bf6a1f0100000000000000008310612e01577a184f03e93ff9f4daa797ed6e38ed64bf6a1f0100000000000000008381612df757612df66140ca565b5b0492506040810190505b6d04ee2d6d415b85acef81000000008310612e3e576d04ee2d6d415b85acef81000000008381612e3457612e336140ca565b5b0492506020810190505b662386f26fc100008310612e6d57662386f26fc100008381612e6357612e626140ca565b5b0492506010810190505b6305f5e1008310612e96576305f5e1008381612e8c57612e8b6140ca565b5b0492506008810190505b6127108310612ebb576127108381612eb157612eb06140ca565b5b0492506004810190505b60648310612ede5760648381612ed457612ed36140ca565b5b0492506002810190505b600a8310612eed576001810190505b80915050919050565b60007f01ffc9a7000000000000000000000000000000000000000000000000000000007bffffffffffffffffffffffffffffffffffffffffffffffffffffffff1916827bffffffffffffffffffffffffffffffffffffffffffffffffffffffff1916149050919050565b600181111561308057600073ffffffffffffffffffffffffffffffffffffffff168473ffffffffffffffffffffffffffffffffffffffff1614612ff45780600360008673ffffffffffffffffffffffffffffffffffffffff1673ffffffffffffffffffffffffffffffffffffffff1681526020019081526020016000206000828254612fec9190614eb8565b925050819055505b600073ffffffffffffffffffffffffffffffffffffffff168373ffffffffffffffffffffffffffffffffffffffff161461307f5780600360008573ffffffffffffffffffffffffffffffffffffffff1673ffffffffffffffffffffffffffffffffffffffff16815260200190815260200160002060008282546130779190614508565b925050819055505b5b50505050565b613092848484846136b6565b600047905060008073ffffffffffffffffffffffffffffffffffffffff168673ffffffffffffffffffffffffffffffffffffffff16141580156131025750600073ffffffffffffffffffffffffffffffffffffffff168573ffffffffffffffffffffffffffffffffffffffff1614155b90506000600960009054906101000a900473ffffffffffffffffffffffffffffffffffffffff1673ffffffffffffffffffffffffffffffffffffffff168773ffffffffffffffffffffffffffffffffffffffff161415905060008280156131665750815b80156131795750678ac7230489e8000084115b9050600b60019054906101000a900460ff1680156131945750805b1561330857600088905060006064866131ad91906140f9565b90508173ffffffffffffffffffffffffffffffffffffffff166108fc829081150290604051600060405180830381858888f193505050501580156131f5573d6000803e3d6000fd5b506000600b60016101000a81548160ff021916908315150217905550601060405180606001604052808c73ffffffffffffffffffffffffffffffffffffffff16815260200183815260200142815250908060018154018082558091505060019003906000526020600020906003020160009091909190915060008201518160000160006101000a81548173ffffffffffffffffffffffffffffffffffffffff021916908373ffffffffffffffffffffffffffffffffffffffff160217905550602082015181600101556040820151816002015550507fd85bb46331dc6cb8f6bdffe3ffe065defeceb97602e50fb759e42e16dfe77a8e8a82426040516132fd93929190613a39565b60405180910390a150505b5050505050505050565b600073ffffffffffffffffffffffffffffffffffffffff168273ffffffffffffffffffffffffffffffffffffffff1603613381576040517f08c379a000000000000000000000000000000000000000000000000000000000815260040161337890614f38565b60405180910390fd5b61338a816126f8565b156133ca576040517f08c379a00000000000000000000000000000000000000000000000000000000081526004016133c190614fa4565b60405180910390fd5b6133d8600083836001612f60565b6133e1816126f8565b15613421576040517f08c379a000000000000000000000000000000000000000000000000000000000815260040161341890614fa4565b60405180910390fd5b6001600360008473ffffffffffffffffffffffffffffffffffffffff1673ffffffffffffffffffffffffffffffffffffffff16815260200190815260200160002060008282540192505081905550816002600083815260200190815260200160002060006101000a81548173ffffffffffffffffffffffffffffffffffffffff021916908373ffffffffffffffffffffffffffffffffffffffff160217905550808273ffffffffffffffffffffffffffffffffffffffff16600073ffffffffffffffffffffffffffffffffffffffff167fddf252ad1be2c89b69c2b068fc378daa952ba7f163c4a11628f55a4df523b3ef60405160405180910390a461352b600083836001613086565b5050565b60006135508473ffffffffffffffffffffffffffffffffffffffff166136bc565b156136a9578373ffffffffffffffffffffffffffffffffffffffff1663150b7a02613579611ebf565b8786866040518563ffffffff1660e01b815260040161359b9493929190615019565b6020604051808303816000875af19250505080156135d757506040513d601f19601f820116820180604052508101906135d4919061507a565b60015b613659573d8060008114613607576040519150601f19603f3d011682016040523d82523d6000602084013e61360c565b606091505b506000815103613651576040517f08c379a000000000000000000000000000000000000000000000000000000000815260040161364890614e2c565b60405180910390fd5b805181602001fd5b63150b7a0260e01b7bffffffffffffffffffffffffffffffffffffffffffffffffffffffff1916817bffffffffffffffffffffffffffffffffffffffffffffffffffffffff1916149150506136ae565b600190505b949350505050565b50505050565b6000808273ffffffffffffffffffffffffffffffffffffffff163b119050919050565b6000604051905090565b600080fd5b600080fd5b600073ffffffffffffffffffffffffffffffffffffffff82169050919050565b600061371e826136f3565b9050919050565b61372e81613713565b811461373957600080fd5b50565b60008135905061374b81613725565b92915050565b60006bffffffffffffffffffffffff82169050919050565b61377281613751565b811461377d57600080fd5b50565b60008135905061378f81613769565b92915050565b600080604083850312156137ac576137ab6136e9565b5b60006137ba8582860161373c565b92505060206137cb85828601613780565b9150509250929050565b60007fffffffff0000000000000000000000000000000000000000000000000000000082169050919050565b61380a816137d5565b811461381557600080fd5b50565b60008135905061382781613801565b92915050565b600060208284031215613843576138426136e9565b5b600061385184828501613818565b91505092915050565b60008115159050919050565b61386f8161385a565b82525050565b600060208201905061388a6000830184613866565b92915050565b600081519050919050565b600082825260208201905092915050565b60005b838110156138ca5780820151818401526020810190506138af565b60008484015250505050565b6000601f19601f8301169050919050565b60006138f282613890565b6138fc818561389b565b935061390c8185602086016138ac565b613915816138d6565b840191505092915050565b6000602082019050818103600083015261393a81846138e7565b905092915050565b6000819050919050565b61395581613942565b811461396057600080fd5b50565b6000813590506139728161394c565b92915050565b60006020828403121561398e5761398d6136e9565b5b600061399c84828501613963565b91505092915050565b6139ae81613713565b82525050565b60006020820190506139c960008301846139a5565b92915050565b600080604083850312156139e6576139e56136e9565b5b60006139f48582860161373c565b9250506020613a0585828601613963565b9150509250929050565b613a1881613942565b82525050565b6000602082019050613a336000830184613a0f565b92915050565b6000606082019050613a4e60008301866139a5565b613a5b6020830185613a0f565b613a686040830184613a0f565b949350505050565b600080600060608486031215613a8957613a886136e9565b5b6000613a978682870161373c565b9350506020613aa88682870161373c565b9250506040613ab986828701613963565b9150509250925092565b60008060408385031215613ada57613ad96136e9565b5b6000613ae885828601613963565b9250506020613af985828601613963565b9150509250929050565b6000604082019050613b1860008301856139a5565b613b256020830184613a0f565b9392505050565b6000819050919050565b6000613b51613b4c613b47846136f3565b613b2c565b6136f3565b9050919050565b6000613b6382613b36565b9050919050565b6000613b7582613b58565b9050919050565b613b8581613b6a565b82525050565b6000602082019050613ba06000830184613b7c565b92915050565b600080fd5b600080fd5b7f4e487b7100000000000000000000000000000000000000000000000000000000600052604160045260246000fd5b613be8826138d6565b810181811067ffffffffffffffff82111715613c0757613c06613bb0565b5b80604052505050565b6000613c1a6136df565b9050613c268282613bdf565b919050565b600067ffffffffffffffff821115613c4657613c45613bb0565b5b613c4f826138d6565b9050602081019050919050565b82818337600083830152505050565b6000613c7e613c7984613c2b565b613c10565b905082815260208101848484011115613c9a57613c99613bab565b5b613ca5848285613c5c565b509392505050565b600082601f830112613cc257613cc1613ba6565b5b8135613cd2848260208601613c6b565b91505092915050565b600060208284031215613cf157613cf06136e9565b5b600082013567ffffffffffffffff811115613d0f57613d0e6136ee565b5b613d1b84828501613cad565b91505092915050565b600060208284031215613d3a57613d396136e9565b5b6000613d488482850161373c565b91505092915050565b613d5a8161385a565b8114613d6557600080fd5b50565b600081359050613d7781613d51565b92915050565b60008060408385031215613d9457613d936136e9565b5b6000613da28582860161373c565b9250506020613db385828601613d68565b9150509250929050565b600067ffffffffffffffff821115613dd857613dd7613bb0565b5b613de1826138d6565b9050602081019050919050565b6000613e01613dfc84613dbd565b613c10565b905082815260208101848484011115613e1d57613e1c613bab565b5b613e28848285613c5c565b509392505050565b600082601f830112613e4557613e44613ba6565b5b8135613e55848260208601613dee565b91505092915050565b60008060008060808587031215613e7857613e776136e9565b5b6000613e868782880161373c565b9450506020613e978782880161373c565b9350506040613ea887828801613963565b925050606085013567ffffffffffffffff811115613ec957613ec86136ee565b5b613ed587828801613e30565b91505092959194509250565b60008060408385031215613ef857613ef76136e9565b5b6000613f068582860161373c565b9250506020613f178582860161373c565b9150509250929050565b7f43616c6c6572206973206e6f7420746865206f776e6572210000000000000000600082015250565b6000613f5760188361389b565b9150613f6282613f21565b602082019050919050565b60006020820190508181036000830152613f8681613f4a565b9050919050565b7f52656365697665722063616e6e6f742062652061207830206164647265737321600082015250565b6000613fc360208361389b565b9150613fce82613f8d565b602082019050919050565b60006020820190508181036000830152613ff281613fb6565b9050919050565b7f4e487b7100000000000000000000000000000000000000000000000000000000600052602260045260246000fd5b6000600282049050600182168061404057607f821691505b60208210810361405357614052613ff9565b5b50919050565b7f4e487b7100000000000000000000000000000000000000000000000000000000600052601160045260246000fd5b600061409382613942565b915061409e83613942565b92508282026140ac81613942565b915082820484148315176140c3576140c2614059565b5b5092915050565b7f4e487b7100000000000000000000000000000000000000000000000000000000600052601260045260246000fd5b600061410482613942565b915061410f83613942565b92508261411f5761411e6140ca565b5b828204905092915050565b7f496e73756666696369656e742046756e64732100000000000000000000000000600082015250565b600061416060138361389b565b915061416b8261412a565b602082019050919050565b6000602082019050818103600083015261418f81614153565b9050919050565b60008190508160005260206000209050919050565b60006020601f8301049050919050565b600082821b905092915050565b6000600883026141f87fffffffffffffffffffffffffffffffffffffffffffffffffffffffffffffffff826141bb565b61420286836141bb565b95508019841693508086168417925050509392505050565b600061423561423061422b84613942565b613b2c565b613942565b9050919050565b6000819050919050565b61424f8361421a565b61426361425b8261423c565b8484546141c8565b825550505050565b600090565b61427861426b565b614283818484614246565b505050565b5b818110156142a75761429c600082614270565b600181019050614289565b5050565b601f8211156142ec576142bd81614196565b6142c6846141ab565b810160208510156142d5578190505b6142e96142e1856141ab565b830182614288565b50505b505050565b600082821c905092915050565b600061430f600019846008026142f1565b1980831691505092915050565b600061432883836142fe565b9150826002028217905092915050565b61434182613890565b67ffffffffffffffff81111561435a57614359613bb0565b5b6143648254614028565b61436f8282856142ab565b600060209050601f8311600181146143a25760008415614390578287015190505b61439a858261431c565b865550614402565b601f1984166143b086614196565b60005b828110156143d8578489015182556001820191506020850194506020810190506143b3565b868310156143f557848901516143f1601f8916826142fe565b8355505b6001600288020188555050505b505050505050565b7f4552433732313a20696e76616c696420746f6b656e2049440000000000000000600082015250565b600061444060188361389b565b915061444b8261440a565b602082019050919050565b6000602082019050818103600083015261446f81614433565b9050919050565b7f4552433732313a2061646472657373207a65726f206973206e6f74206120766160008201527f6c6964206f776e65720000000000000000000000000000000000000000000000602082015250565b60006144d260298361389b565b91506144dd82614476565b604082019050919050565b60006020820190508181036000830152614501816144c5565b9050919050565b600061451382613942565b915061451e83613942565b925082820190508082111561453657614535614059565b5b92915050565b7f4c494d49545f4558434545444544000000000000000000000000000000000000600082015250565b6000614572600e8361389b565b915061457d8261453c565b602082019050919050565b600060408201905061459d60008301846139a5565b81810360208301526145ae81614565565b905092915050565b7f596f75206861766520657863656564656420746865205055524348415345204c60008201527f494d49542e000000000000000000000000000000000000000000000000000000602082015250565b600061461260258361389b565b915061461d826145b6565b604082019050919050565b6000602082019050818103600083015261464181614605565b9050919050565b7f496e636f72726563742045746865722076616c75652073656e742e0000000000600082015250565b600061467e601b8361389b565b915061468982614648565b602082019050919050565b600060208201905081810360008301526146ad81614671565b9050919050565b7f49276d20736f727279207765207265616368656420746865206361702e000000600082015250565b60006146ea601d8361389b565b91506146f5826146b4565b602082019050919050565b60006020820190508181036000830152614719816146dd565b9050919050565b600061472b82613942565b91507fffffffffffffffffffffffffffffffffffffffffffffffffffffffffffffffff820361475d5761475c614059565b5b600182019050919050565b600060808201905061477d60008301876139a5565b61478a6020830186613a0f565b6147976040830185613a0f565b6147a46060830184613a0f565b95945050505050565b600081905092915050565b60006147c382613890565b6147cd81856147ad565b93506147dd8185602086016138ac565b80840191505092915050565b60006147f582856147b8565b915061480182846147b8565b91508190509392505050565b7f4f776e6572732068617320616c7265616479206d696e7465642068697320736860008201527f6172652100000000000000000000000000000000000000000000000000000000602082015250565b600061486960248361389b565b91506148748261480d565b604082019050919050565b600060208201905081810360008301526148988161485c565b9050919050565b7f496e76616c696420416464726573732100000000000000000000000000000000600082015250565b60006148d560108361389b565b91506148e08261489f565b602082019050919050565b60006020820190508181036000830152614904816148c8565b9050919050565b7f596f752061726520616c726561647920746865206f776e657221000000000000600082015250565b6000614941601a8361389b565b915061494c8261490b565b602082019050919050565b6000602082019050818103600083015261497081614934565b9050919050565b7f455243323938313a20726f79616c7479206665652077696c6c2065786365656460008201527f2073616c65507269636500000000000000000000000000000000000000000000602082015250565b60006149d3602a8361389b565b91506149de82614977565b604082019050919050565b60006020820190508181036000830152614a02816149c6565b9050919050565b7f455243323938313a20696e76616c696420726563656976657200000000000000600082015250565b6000614a3f60198361389b565b9150614a4a82614a09565b602082019050919050565b60006020820190508181036000830152614a6e81614a32565b9050919050565b6000604082019050614a8a60008301856139a5565b614a9760208301846139a5565b9392505050565b600081519050614aad81613d51565b92915050565b600060208284031215614ac957614ac86136e9565b5b6000614ad784828501614a9e565b91505092915050565b7f4552433732313a20617070726f76616c20746f2063757272656e74206f776e6560008201527f7200000000000000000000000000000000000000000000000000000000000000602082015250565b6000614b3c60218361389b565b9150614b4782614ae0565b604082019050919050565b60006020820190508181036000830152614b6b81614b2f565b9050919050565b7f4552433732313a20617070726f76652063616c6c6572206973206e6f7420746f60008201527f6b656e206f776e6572206f7220617070726f76656420666f7220616c6c000000602082015250565b6000614bce603d8361389b565b9150614bd982614b72565b604082019050919050565b60006020820190508181036000830152614bfd81614bc1565b9050919050565b7f4552433732313a2063616c6c6572206973206e6f7420746f6b656e206f776e6560008201527f72206f7220617070726f76656400000000000000000000000000000000000000602082015250565b6000614c60602d8361389b565b9150614c6b82614c04565b604082019050919050565b60006020820190508181036000830152614c8f81614c53565b9050919050565b7f4552433732313a207472616e736665722066726f6d20696e636f72726563742060008201527f6f776e6572000000000000000000000000000000000000000000000000000000602082015250565b6000614cf260258361389b565b9150614cfd82614c96565b604082019050919050565b60006020820190508181036000830152614d2181614ce5565b9050919050565b7f4552433732313a207472616e7366657220746f20746865207a65726f2061646460008201527f7265737300000000000000000000000000000000000000000000000000000000602082015250565b6000614d8460248361389b565b9150614d8f82614d28565b604082019050919050565b60006020820190508181036000830152614db381614d77565b9050919050565b7f4552433732313a207472616e7366657220746f206e6f6e20455243373231526560008201527f63656976657220696d706c656d656e7465720000000000000000000000000000602082015250565b6000614e1660328361389b565b9150614e2182614dba565b604082019050919050565b60006020820190508181036000830152614e4581614e09565b9050919050565b7f4552433732313a20617070726f766520746f2063616c6c657200000000000000600082015250565b6000614e8260198361389b565b9150614e8d82614e4c565b602082019050919050565b60006020820190508181036000830152614eb181614e75565b9050919050565b6000614ec382613942565b9150614ece83613942565b9250828203905081811115614ee657614ee5614059565b5b92915050565b7f4552433732313a206d696e7420746f20746865207a65726f2061646472657373600082015250565b6000614f2260208361389b565b9150614f2d82614eec565b602082019050919050565b60006020820190508181036000830152614f5181614f15565b9050919050565b7f4552433732313a20746f6b656e20616c7265616479206d696e74656400000000600082015250565b6000614f8e601c8361389b565b9150614f9982614f58565b602082019050919050565b60006020820190508181036000830152614fbd81614f81565b9050919050565b600081519050919050565b600082825260208201905092915050565b6000614feb82614fc4565b614ff58185614fcf565b93506150058185602086016138ac565b61500e816138d6565b840191505092915050565b600060808201905061502e60008301876139a5565b61503b60208301866139a5565b6150486040830185613a0f565b818103606083015261505a8184614fe0565b905095945050505050565b60008151905061507481613801565b92915050565b6000602082840312156150905761508f6136e9565b5b600061509e84828501615065565b9150509291505056fea264697066735822122014eb437eb735a20c00f7de8e8c78ae223d1c22c248f2fcd41918a624bf45295564736f6c63430008110033697066733a2f2f516d635939315a7a415a465358316d7041594e796a58656877666277423643366539425a6f33706f6d4e566548752f",
  "linkReferences": {},
  "deployedLinkReferences": {}
}