{
  "_format": "hh-sol-artifact-1",
  "contractName": "PsyDucks",
  "sourceName": "contracts/psyducks.sol",
  "abi": [
    {
      "inputs": [],
      "stateMutability": "nonpayable",
      "type": "constructor"
    },
    {
      "inputs": [
        {
          "internalType": "address",
          "name": "operator",
          "type": "address"
        }
      ],
      "name": "OperatorNotAllowed",
      "type": "error"
    },
    {
      "anonymous": false,
      "inputs": [
        {
          "indexed": true,
          "internalType": "address",
          "name": "owner",
          "type": "address"
        },
        {
          "indexed": true,
          "internalType": "address",
          "name": "approved",
          "type": "address"
        },
        {
          "indexed": true,
          "internalType": "uint256",
          "name": "tokenId",
          "type": "uint256"
        }
      ],
      "name": "Approval",
      "type": "event"
    },
    {
      "anonymous": false,
      "inputs": [
        {
          "indexed": true,
          "internalType": "address",
          "name": "owner",
          "type": "address"
        },
        {
          "indexed": true,
          "internalType": "address",
          "name": "operator",
          "type": "address"
        },
        {
          "indexed": false,
          "internalType": "bool",
          "name": "approved",
          "type": "bool"
        }
      ],
      "name": "ApprovalForAll",
      "type": "event"
    },
    {
      "anonymous": false,
      "inputs": [
        {
          "indexed": false,
          "internalType": "address",
          "name": "sentTo",
          "type": "address"
        },
        {
          "indexed": false,
          "internalType": "uint256",
          "name": "amount",
          "type": "uint256"
        },
        {
          "indexed": false,
          "internalType": "uint256",
          "name": "timestamp",
          "type": "uint256"
        }
      ],
      "name": "Cashback",
      "type": "event"
    },
    {
      "anonymous": false,
      "inputs": [
        {
          "indexed": false,
          "internalType": "address",
          "name": "from",
          "type": "address"
        },
        {
          "indexed": false,
          "internalType": "string",
          "name": "message",
          "type": "string"
        }
      ],
      "name": "LimitExceeded",
      "type": "event"
    },
    {
      "anonymous": false,
      "inputs": [
        {
          "indexed": false,
          "internalType": "address",
          "name": "purchasedBy",
          "type": "address"
        },
        {
          "indexed": false,
          "internalType": "uint256",
          "name": "amount",
          "type": "uint256"
        },
        {
          "indexed": false,
          "internalType": "uint256",
          "name": "number",
          "type": "uint256"
        },
        {
          "indexed": false,
          "internalType": "uint256",
          "name": "timestamp",
          "type": "uint256"
        }
      ],
      "name": "Purchased",
      "type": "event"
    },
    {
      "anonymous": false,
      "inputs": [
        {
          "indexed": true,
          "internalType": "address",
          "name": "from",
          "type": "address"
        },
        {
          "indexed": true,
          "internalType": "address",
          "name": "to",
          "type": "address"
        },
        {
          "indexed": true,
          "internalType": "uint256",
          "name": "tokenId",
          "type": "uint256"
        }
      ],
      "name": "Transfer",
      "type": "event"
    },
    {
      "inputs": [],
      "name": "BASE_URI",
      "outputs": [
        {
          "internalType": "string",
          "name": "",
          "type": "string"
        }
      ],
      "stateMutability": "view",
      "type": "function"
    },
    {
      "inputs": [],
      "name": "CONTRACT_URI",
      "outputs": [
        {
          "internalType": "string",
          "name": "",
          "type": "string"
        }
      ],
      "stateMutability": "view",
      "type": "function"
    },
    {
      "inputs": [],
      "name": "INIT_CASH_BACK",
      "outputs": [
        {
          "internalType": "bool",
          "name": "",
          "type": "bool"
        }
      ],
      "stateMutability": "view",
      "type": "function"
    },
    {
      "inputs": [],
      "name": "MAX_INITIAL_SUPPLY",
      "outputs": [
        {
          "internalType": "uint256",
          "name": "",
          "type": "uint256"
        }
      ],
      "stateMutability": "view",
      "type": "function"
    },
    {
      "inputs": [],
      "name": "MAX_MINTABLE",
      "outputs": [
        {
          "internalType": "uint256",
          "name": "",
          "type": "uint256"
        }
      ],
      "stateMutability": "view",
      "type": "function"
    },
    {
      "inputs": [],
      "name": "MAX_SUPPLY",
      "outputs": [
        {
          "internalType": "uint256",
          "name": "",
          "type": "uint256"
        }
      ],
      "stateMutability": "view",
      "type": "function"
    },
    {
      "inputs": [],
      "name": "OPERATOR_FILTER_REGISTRY",
      "outputs": [
        {
          "internalType": "contract IOperatorFilterRegistry",
          "name": "",
          "type": "address"
        }
      ],
      "stateMutability": "view",
      "type": "function"
    },
    {
      "inputs": [],
      "name": "OWNERS_SHARE",
      "outputs": [
        {
          "internalType": "uint256",
          "name": "",
          "type": "uint256"
        }
      ],
      "stateMutability": "view",
      "type": "function"
    },
    {
      "inputs": [],
      "name": "OWNERS_SHARE_MINTED",
      "outputs": [
        {
          "internalType": "bool",
          "name": "",
          "type": "bool"
        }
      ],
      "stateMutability": "view",
      "type": "function"
    },
    {
      "inputs": [],
      "name": "PHASE",
      "outputs": [
        {
          "internalType": "uint256",
          "name": "",
          "type": "uint256"
        }
      ],
      "stateMutability": "view",
      "type": "function"
    },
    {
      "inputs": [],
      "name": "PURCHASE_LIMIT",
      "outputs": [
        {
          "internalType": "uint256",
          "name": "",
          "type": "uint256"
        }
      ],
      "stateMutability": "view",
      "type": "function"
    },
    {
      "inputs": [],
      "name": "SOLD_OUT",
      "outputs": [
        {
          "internalType": "bool",
          "name": "",
          "type": "bool"
        }
      ],
      "stateMutability": "view",
      "type": "function"
    },
    {
      "inputs": [
        {
          "internalType": "uint256",
          "name": "",
          "type": "uint256"
        }
      ],
      "name": "WINNERS",
      "outputs": [
        {
          "internalType": "address",
          "name": "_address",
          "type": "address"
        },
        {
          "internalType": "uint256",
          "name": "timestamp",
          "type": "uint256"
        }
      ],
      "stateMutability": "view",
      "type": "function"
    },
    {
      "inputs": [],
      "name": "_PRICE",
      "outputs": [
        {
          "internalType": "uint256",
          "name": "",
          "type": "uint256"
        }
      ],
      "stateMutability": "view",
      "type": "function"
    },
    {
      "inputs": [],
      "name": "activatePhaseTwo",
      "outputs": [],
      "stateMutability": "nonpayable",
      "type": "function"
    },
    {
      "inputs": [
        {
          "internalType": "address",
          "name": "operator",
          "type": "address"
        },
        {
          "internalType": "uint256",
          "name": "tokenId",
          "type": "uint256"
        }
      ],
      "name": "approve",
      "outputs": [],
      "stateMutability": "nonpayable",
      "type": "function"
    },
    {
      "inputs": [
        {
          "internalType": "address",
          "name": "owner",
          "type": "address"
        }
      ],
      "name": "balanceOf",
      "outputs": [
        {
          "internalType": "uint256",
          "name": "",
          "type": "uint256"
        }
      ],
      "stateMutability": "view",
      "type": "function"
    },
    {
      "inputs": [],
      "name": "contractURI",
      "outputs": [
        {
          "internalType": "string",
          "name": "",
          "type": "string"
        }
      ],
      "stateMutability": "view",
      "type": "function"
    },
    {
      "inputs": [],
      "name": "endPhase",
      "outputs": [],
      "stateMutability": "nonpayable",
      "type": "function"
    },
    {
      "inputs": [
        {
          "internalType": "uint256",
          "name": "tokenId",
          "type": "uint256"
        }
      ],
      "name": "getApproved",
      "outputs": [
        {
          "internalType": "address",
          "name": "",
          "type": "address"
        }
      ],
      "stateMutability": "view",
      "type": "function"
    },
    {
      "inputs": [],
      "name": "initiateCashback",
      "outputs": [],
      "stateMutability": "nonpayable",
      "type": "function"
    },
    {
      "inputs": [
        {
          "internalType": "address",
          "name": "owner",
          "type": "address"
        },
        {
          "internalType": "address",
          "name": "operator",
          "type": "address"
        }
      ],
      "name": "isApprovedForAll",
      "outputs": [
        {
          "internalType": "bool",
          "name": "",
          "type": "bool"
        }
      ],
      "stateMutability": "view",
      "type": "function"
    },
    {
      "inputs": [
        {
          "internalType": "uint256",
          "name": "amount",
          "type": "uint256"
        }
      ],
      "name": "mint",
      "outputs": [],
      "stateMutability": "payable",
      "type": "function"
    },
    {
      "inputs": [],
      "name": "name",
      "outputs": [
        {
          "internalType": "string",
          "name": "",
          "type": "string"
        }
      ],
      "stateMutability": "view",
      "type": "function"
    },
    {
      "inputs": [
        {
          "internalType": "uint256",
          "name": "tokenId",
          "type": "uint256"
        }
      ],
      "name": "ownerOf",
      "outputs": [
        {
          "internalType": "address",
          "name": "",
          "type": "address"
        }
      ],
      "stateMutability": "view",
      "type": "function"
    },
    {
      "inputs": [],
      "name": "reserve",
      "outputs": [],
      "stateMutability": "nonpayable",
      "type": "function"
    },
    {
      "inputs": [
        {
          "internalType": "uint256",
          "name": "_tokenId",
          "type": "uint256"
        },
        {
          "internalType": "uint256",
          "name": "_salePrice",
          "type": "uint256"
        }
      ],
      "name": "royaltyInfo",
      "outputs": [
        {
          "internalType": "address",
          "name": "",
          "type": "address"
        },
        {
          "internalType": "uint256",
          "name": "",
          "type": "uint256"
        }
      ],
      "stateMutability": "view",
      "type": "function"
    },
    {
      "inputs": [
        {
          "internalType": "address",
          "name": "from",
          "type": "address"
        },
        {
          "internalType": "address",
          "name": "to",
          "type": "address"
        },
        {
          "internalType": "uint256",
          "name": "tokenId",
          "type": "uint256"
        }
      ],
      "name": "safeTransferFrom",
      "outputs": [],
      "stateMutability": "nonpayable",
      "type": "function"
    },
    {
      "inputs": [
        {
          "internalType": "address",
          "name": "from",
          "type": "address"
        },
        {
          "internalType": "address",
          "name": "to",
          "type": "address"
        },
        {
          "internalType": "uint256",
          "name": "tokenId",
          "type": "uint256"
        },
        {
          "internalType": "bytes",
          "name": "data",
          "type": "bytes"
        }
      ],
      "name": "safeTransferFrom",
      "outputs": [],
      "stateMutability": "nonpayable",
      "type": "function"
    },
    {
      "inputs": [
        {
          "internalType": "address",
          "name": "operator",
          "type": "address"
        },
        {
          "internalType": "bool",
          "name": "approved",
          "type": "bool"
        }
      ],
      "name": "setApprovalForAll",
      "outputs": [],
      "stateMutability": "nonpayable",
      "type": "function"
    },
    {
      "inputs": [
        {
          "internalType": "string",
          "name": "uri",
          "type": "string"
        }
      ],
      "name": "setBaseURI",
      "outputs": [],
      "stateMutability": "nonpayable",
      "type": "function"
    },
    {
      "inputs": [
        {
          "internalType": "string",
          "name": "uri",
          "type": "string"
        }
      ],
      "name": "setContractURI",
      "outputs": [],
      "stateMutability": "nonpayable",
      "type": "function"
    },
    {
      "inputs": [
        {
          "internalType": "address",
          "name": "_receiver",
          "type": "address"
        },
        {
          "internalType": "uint96",
          "name": "fee",
          "type": "uint96"
        }
      ],
      "name": "setCreatorsFee",
      "outputs": [],
      "stateMutability": "nonpayable",
      "type": "function"
    },
    {
      "inputs": [
        {
          "internalType": "bytes4",
          "name": "interfaceId",
          "type": "bytes4"
        }
      ],
      "name": "supportsInterface",
      "outputs": [
        {
          "internalType": "bool",
          "name": "",
          "type": "bool"
        }
      ],
      "stateMutability": "view",
      "type": "function"
    },
    {
      "inputs": [],
      "name": "symbol",
      "outputs": [
        {
          "internalType": "string",
          "name": "",
          "type": "string"
        }
      ],
      "stateMutability": "view",
      "type": "function"
    },
    {
      "inputs": [
        {
          "internalType": "uint256",
          "name": "tokenId",
          "type": "uint256"
        }
      ],
      "name": "tokenURI",
      "outputs": [
        {
          "internalType": "string",
          "name": "",
          "type": "string"
        }
      ],
      "stateMutability": "view",
      "type": "function"
    },
    {
      "inputs": [],
      "name": "totalSupply",
      "outputs": [
        {
          "internalType": "uint256",
          "name": "",
          "type": "uint256"
        }
      ],
      "stateMutability": "view",
      "type": "function"
    },
    {
      "inputs": [],
      "name": "totalWinners",
      "outputs": [
        {
          "internalType": "uint256",
          "name": "",
          "type": "uint256"
        }
      ],
      "stateMutability": "view",
      "type": "function"
    },
    {
      "inputs": [
        {
          "internalType": "address",
          "name": "from",
          "type": "address"
        },
        {
          "internalType": "address",
          "name": "to",
          "type": "address"
        },
        {
          "internalType": "uint256",
          "name": "tokenId",
          "type": "uint256"
        }
      ],
      "name": "transferFrom",
      "outputs": [],
      "stateMutability": "nonpayable",
      "type": "function"
    },
    {
      "inputs": [
        {
          "internalType": "address",
          "name": "to",
          "type": "address"
        }
      ],
      "name": "transferOwnership",
      "outputs": [],
      "stateMutability": "nonpayable",
      "type": "function"
    },
    {
      "inputs": [],
      "name": "withdraw",
      "outputs": [],
      "stateMutability": "nonpayable",
      "type": "function"
    }
  ],
  "bytecode": "0x60806040526001600a556000600b60006101000a81548160ff0219169083151502179055506000600b60016101000a81548160ff0219169083151502179055506000600b60026101000a81548160ff021916908315150217905550601e6127106200006b919062000714565b600c5567013fbe85edc90000600d556014600e5560405180606001604052806036815260200162005d706036913960109081620000a99190620009bf565b506040518060800160405280604c815260200162005da6604c913960119081620000d49190620009bf565b50348015620000e257600080fd5b50733cc6cdda760b79bafa08df41ecfa224f810dceb660016040518060400160405280600881526020017f5073794475636b730000000000000000000000000000000000000000000000008152506040518060400160405280600381526020017f50535900000000000000000000000000000000000000000000000000000000008152508160009081620001779190620009bf565b508060019081620001899190620009bf565b50505060006daaeb6d7670e522a718067333cd4e73ffffffffffffffffffffffffffffffffffffffff163b11156200038157801562000247576daaeb6d7670e522a718067333cd4e73ffffffffffffffffffffffffffffffffffffffff16637d3e3dbe30846040518363ffffffff1660e01b81526004016200020d92919062000aeb565b600060405180830381600087803b1580156200022857600080fd5b505af11580156200023d573d6000803e3d6000fd5b5050505062000380565b600073ffffffffffffffffffffffffffffffffffffffff168273ffffffffffffffffffffffffffffffffffffffff161462000301576daaeb6d7670e522a718067333cd4e73ffffffffffffffffffffffffffffffffffffffff1663a0af290330846040518363ffffffff1660e01b8152600401620002c792919062000aeb565b600060405180830381600087803b158015620002e257600080fd5b505af1158015620002f7573d6000803e3d6000fd5b505050506200037f565b6daaeb6d7670e522a718067333cd4e73ffffffffffffffffffffffffffffffffffffffff16634420e486306040518263ffffffff1660e01b81526004016200034a919062000b18565b600060405180830381600087803b1580156200036557600080fd5b505af11580156200037a573d6000803e3d6000fd5b505050505b5b5b505062000393620003fc60201b60201c565b600960006101000a81548173ffffffffffffffffffffffffffffffffffffffff021916908373ffffffffffffffffffffffffffffffffffffffff160217905550620003f6620003e7620003fc60201b60201c565b6103e86200040460201b60201c565b62000d34565b600033905090565b62000414620003fc60201b60201c565b73ffffffffffffffffffffffffffffffffffffffff16600960009054906101000a900473ffffffffffffffffffffffffffffffffffffffff1673ffffffffffffffffffffffffffffffffffffffff1614620004a6576040517f08c379a00000000000000000000000000000000000000000000000000000000081526004016200049d9062000b96565b60405180910390fd5b600073ffffffffffffffffffffffffffffffffffffffff168273ffffffffffffffffffffffffffffffffffffffff160362000518576040517f08c379a00000000000000000000000000000000000000000000000000000000081526004016200050f9062000c08565b60405180910390fd5b6200052a82826200052e60201b60201c565b5050565b6200053e620006d160201b60201c565b6bffffffffffffffffffffffff16816bffffffffffffffffffffffff1611156200059f576040517f08c379a0000000000000000000000000000000000000000000000000000000008152600401620005969062000ca0565b60405180910390fd5b600073ffffffffffffffffffffffffffffffffffffffff168273ffffffffffffffffffffffffffffffffffffffff160362000611576040517f08c379a0000000000000000000000000000000000000000000000000000000008152600401620006089062000d12565b60405180910390fd5b60405180604001604052808373ffffffffffffffffffffffffffffffffffffffff168152602001826bffffffffffffffffffffffff16815250600660008201518160000160006101000a81548173ffffffffffffffffffffffffffffffffffffffff021916908373ffffffffffffffffffffffffffffffffffffffff16021790555060208201518160000160146101000a8154816bffffffffffffffffffffffff02191690836bffffffffffffffffffffffff1602179055509050505050565b6000612710905090565b6000819050919050565b7f4e487b7100000000000000000000000000000000000000000000000000000000600052601160045260246000fd5b60006200072182620006db565b91506200072e83620006db565b9250828203905081811115620007495762000748620006e5565b5b92915050565b600081519050919050565b7f4e487b7100000000000000000000000000000000000000000000000000000000600052604160045260246000fd5b7f4e487b7100000000000000000000000000000000000000000000000000000000600052602260045260246000fd5b60006002820490506001821680620007d157607f821691505b602082108103620007e757620007e662000789565b5b50919050565b60008190508160005260206000209050919050565b60006020601f8301049050919050565b600082821b905092915050565b600060088302620008517fffffffffffffffffffffffffffffffffffffffffffffffffffffffffffffffff8262000812565b6200085d868362000812565b95508019841693508086168417925050509392505050565b6000819050919050565b6000620008a06200089a6200089484620006db565b62000875565b620006db565b9050919050565b6000819050919050565b620008bc836200087f565b620008d4620008cb82620008a7565b8484546200081f565b825550505050565b600090565b620008eb620008dc565b620008f8818484620008b1565b505050565b5b81811015620009205762000914600082620008e1565b600181019050620008fe565b5050565b601f8211156200096f576200093981620007ed565b620009448462000802565b8101602085101562000954578190505b6200096c620009638562000802565b830182620008fd565b50505b505050565b600082821c905092915050565b6000620009946000198460080262000974565b1980831691505092915050565b6000620009af838362000981565b9150826002028217905092915050565b620009ca826200074f565b67ffffffffffffffff811115620009e657620009e56200075a565b5b620009f28254620007b8565b620009ff82828562000924565b600060209050601f83116001811462000a37576000841562000a22578287015190505b62000a2e8582620009a1565b86555062000a9e565b601f19841662000a4786620007ed565b60005b8281101562000a715784890151825560018201915060208501945060208101905062000a4a565b8683101562000a91578489015162000a8d601f89168262000981565b8355505b6001600288020188555050505b505050505050565b600073ffffffffffffffffffffffffffffffffffffffff82169050919050565b600062000ad38262000aa6565b9050919050565b62000ae58162000ac6565b82525050565b600060408201905062000b02600083018562000ada565b62000b11602083018462000ada565b9392505050565b600060208201905062000b2f600083018462000ada565b92915050565b600082825260208201905092915050565b7f43616c6c6572206973206e6f7420746865206f776e6572210000000000000000600082015250565b600062000b7e60188362000b35565b915062000b8b8262000b46565b602082019050919050565b6000602082019050818103600083015262000bb18162000b6f565b9050919050565b7f52656365697665722063616e6e6f742062652061207830206164647265737321600082015250565b600062000bf060208362000b35565b915062000bfd8262000bb8565b602082019050919050565b6000602082019050818103600083015262000c238162000be1565b9050919050565b7f455243323938313a20726f79616c7479206665652077696c6c2065786365656460008201527f2073616c65507269636500000000000000000000000000000000000000000000602082015250565b600062000c88602a8362000b35565b915062000c958262000c2a565b604082019050919050565b6000602082019050818103600083015262000cbb8162000c79565b9050919050565b7f455243323938313a20696e76616c696420726563656976657200000000000000600082015250565b600062000cfa60198362000b35565b915062000d078262000cc2565b602082019050919050565b6000602082019050818103600083015262000d2d8162000ceb565b9050919050565b61502c8062000d446000396000f3fe6080604052600436106102465760003560e01c80636352211e11610139578063bcc941b6116100b6578063d75e61101161007a578063d75e611014610829578063dbddb26a14610854578063e8a3d4851461087f578063e985e9c5146108aa578063f2fde38b146108e7578063fc96f3601461091057610246565b8063bcc941b614610768578063c87b56dd14610793578063cd3293de146107d0578063cd4a892e146107e7578063d21efc351461081257610246565b8063a0712d68116100fd578063a0712d68146106a4578063a22cb465146106c0578063aa8dd3db146106e9578063b88d4fde14610714578063b8eb8e611461073d57610246565b80636352211e146105ab57806370a08231146105e8578063738e307414610625578063938e3d7b1461065057806395d89b411461067957610246565b806323b872dd116101c75780633f879faf1161018b5780633f879faf146104d857806341f434341461050357806342842e0e1461052e57806355f804b31461055757806356b4f6731461058057610246565b806323b872dd146104045780632a55205a1461042d57806332cb6b0c1461046b5780633ccfd60b146104965780633e5a3da4146104ad57610246565b806309e64e9a1161020e57806309e64e9a14610342578063142e1f8f1461036d5780631506e35a1461038457806318160ddd1461039b5780631df85ba3146103c657610246565b806301a1b28b1461024b57806301ffc9a71461027457806306fdde03146102b1578063081812fc146102dc578063095ea7b314610319575b600080fd5b34801561025757600080fd5b50610272600480360381019061026d9190613658565b61093b565b005b34801561028057600080fd5b5061029b600480360381019061029691906136f0565b610a4f565b6040516102a89190613738565b60405180910390f35b3480156102bd57600080fd5b506102c6610a61565b6040516102d391906137e3565b60405180910390f35b3480156102e857600080fd5b5061030360048036038101906102fe919061383b565b610af3565b6040516103109190613877565b60405180910390f35b34801561032557600080fd5b50610340600480360381019061033b9190613892565b610b39565b005b34801561034e57600080fd5b50610357610b52565b60405161036491906138e1565b60405180910390f35b34801561037957600080fd5b50610382610b58565b005b34801561039057600080fd5b50610399610c34565b005b3480156103a757600080fd5b506103b0610ce8565b6040516103bd91906138e1565b60405180910390f35b3480156103d257600080fd5b506103ed60048036038101906103e8919061383b565b610cf9565b6040516103fb9291906138fc565b60405180910390f35b34801561041057600080fd5b5061042b60048036038101906104269190613925565b610d4d565b005b34801561043957600080fd5b50610454600480360381019061044f9190613978565b610d9c565b6040516104629291906138fc565b60405180910390f35b34801561047757600080fd5b50610480610f86565b60405161048d91906138e1565b60405180910390f35b3480156104a257600080fd5b506104ab610f8c565b005b3480156104b957600080fd5b506104c26110d7565b6040516104cf9190613738565b60405180910390f35b3480156104e457600080fd5b506104ed6110ea565b6040516104fa91906138e1565b60405180910390f35b34801561050f57600080fd5b506105186110f0565b6040516105259190613a17565b60405180910390f35b34801561053a57600080fd5b5061055560048036038101906105509190613925565b611102565b005b34801561056357600080fd5b5061057e60048036038101906105799190613b67565b611151565b005b34801561058c57600080fd5b50610595611245565b6040516105a291906137e3565b60405180910390f35b3480156105b757600080fd5b506105d260048036038101906105cd919061383b565b6112d3565b6040516105df9190613877565b60405180910390f35b3480156105f457600080fd5b5061060f600480360381019061060a9190613bb0565b611359565b60405161061c91906138e1565b60405180910390f35b34801561063157600080fd5b5061063a611410565b6040516106479190613738565b60405180910390f35b34801561065c57600080fd5b5061067760048036038101906106729190613b67565b611423565b005b34801561068557600080fd5b5061068e611517565b60405161069b91906137e3565b60405180910390f35b6106be60048036038101906106b9919061383b565b6115a9565b005b3480156106cc57600080fd5b506106e760048036038101906106e29190613c09565b611784565b005b3480156106f557600080fd5b506106fe61179d565b60405161070b91906138e1565b60405180910390f35b34801561072057600080fd5b5061073b60048036038101906107369190613cea565b6117a2565b005b34801561074957600080fd5b506107526117f3565b60405161075f91906138e1565b60405180910390f35b34801561077457600080fd5b5061077d6117f9565b60405161078a91906138e1565b60405180910390f35b34801561079f57600080fd5b506107ba60048036038101906107b5919061383b565b611806565b6040516107c791906137e3565b60405180910390f35b3480156107dc57600080fd5b506107e561186e565b005b3480156107f357600080fd5b506107fc6119d1565b6040516108099190613738565b60405180910390f35b34801561081e57600080fd5b506108276119e4565b005b34801561083557600080fd5b5061083e611aab565b60405161084b91906138e1565b60405180910390f35b34801561086057600080fd5b50610869611ab1565b60405161087691906137e3565b60405180910390f35b34801561088b57600080fd5b50610894611b3f565b6040516108a191906137e3565b60405180910390f35b3480156108b657600080fd5b506108d160048036038101906108cc9190613d6d565b611bd1565b6040516108de9190613738565b60405180910390f35b3480156108f357600080fd5b5061090e60048036038101906109099190613bb0565b611c65565b005b34801561091c57600080fd5b50610925611e3f565b60405161093291906138e1565b60405180910390f35b610943611e45565b73ffffffffffffffffffffffffffffffffffffffff16600960009054906101000a900473ffffffffffffffffffffffffffffffffffffffff1673ffffffffffffffffffffffffffffffffffffffff16146109d2576040517f08c379a00000000000000000000000000000000000000000000000000000000081526004016109c990613df9565b60405180910390fd5b600073ffffffffffffffffffffffffffffffffffffffff168273ffffffffffffffffffffffffffffffffffffffff1603610a41576040517f08c379a0000000000000000000000000000000000000000000000000000000008152600401610a3890613e65565b60405180910390fd5b610a4b8282611e4d565b5050565b6000610a5a82611fe2565b9050919050565b606060008054610a7090613eb4565b80601f0160208091040260200160405190810160405280929190818152602001828054610a9c90613eb4565b8015610ae95780601f10610abe57610100808354040283529160200191610ae9565b820191906000526020600020905b815481529060010190602001808311610acc57829003601f168201915b5050505050905090565b6000610afe8261205c565b6004600083815260200190815260200160002060009054906101000a900473ffffffffffffffffffffffffffffffffffffffff169050919050565b81610b43816120a7565b610b4d83836121a4565b505050565b61271081565b610b60611e45565b73ffffffffffffffffffffffffffffffffffffffff16600960009054906101000a900473ffffffffffffffffffffffffffffffffffffffff1673ffffffffffffffffffffffffffffffffffffffff1614610bef576040517f08c379a0000000000000000000000000000000000000000000000000000000008152600401610be690613df9565b60405180910390fd5b6002600a819055506000600b60006101000a81548160ff021916908315150217905550670c7d713b49da0000600d819055506028600e81905550614e20600c81905550565b610c3c611e45565b73ffffffffffffffffffffffffffffffffffffffff16600960009054906101000a900473ffffffffffffffffffffffffffffffffffffffff1673ffffffffffffffffffffffffffffffffffffffff1614610ccb576040517f08c379a0000000000000000000000000000000000000000000000000000000008152600401610cc290613df9565b60405180910390fd5b6001600b60016101000a81548160ff021916908315150217905550565b6000610cf460086122bb565b905090565b600f8181548110610d0957600080fd5b90600052602060002090600202016000915090508060000160009054906101000a900473ffffffffffffffffffffffffffffffffffffffff16908060010154905082565b823373ffffffffffffffffffffffffffffffffffffffff168173ffffffffffffffffffffffffffffffffffffffff1614610d8b57610d8a336120a7565b5b610d968484846122c9565b50505050565b6000806000600760008681526020019081526020016000206040518060400160405290816000820160009054906101000a900473ffffffffffffffffffffffffffffffffffffffff1673ffffffffffffffffffffffffffffffffffffffff1673ffffffffffffffffffffffffffffffffffffffff1681526020016000820160149054906101000a90046bffffffffffffffffffffffff166bffffffffffffffffffffffff166bffffffffffffffffffffffff16815250509050600073ffffffffffffffffffffffffffffffffffffffff16816000015173ffffffffffffffffffffffffffffffffffffffff1603610f315760066040518060400160405290816000820160009054906101000a900473ffffffffffffffffffffffffffffffffffffffff1673ffffffffffffffffffffffffffffffffffffffff1673ffffffffffffffffffffffffffffffffffffffff1681526020016000820160149054906101000a90046bffffffffffffffffffffffff166bffffffffffffffffffffffff166bffffffffffffffffffffffff168152505090505b6000610f3b612329565b6bffffffffffffffffffffffff1682602001516bffffffffffffffffffffffff1686610f679190613f14565b610f719190613f85565b90508160000151819350935050509250929050565b614e2081565b610f94611e45565b73ffffffffffffffffffffffffffffffffffffffff16600960009054906101000a900473ffffffffffffffffffffffffffffffffffffffff1673ffffffffffffffffffffffffffffffffffffffff1614611023576040517f08c379a000000000000000000000000000000000000000000000000000000000815260040161101a90613df9565b60405180910390fd5b60004790506000811161106b576040517f08c379a000000000000000000000000000000000000000000000000000000000815260040161106290614002565b60405180910390fd5b600960009054906101000a900473ffffffffffffffffffffffffffffffffffffffff1673ffffffffffffffffffffffffffffffffffffffff166108fc829081150290604051600060405180830381858888f193505050501580156110d3573d6000803e3d6000fd5b5050565b600b60009054906101000a900460ff1681565b600c5481565b6daaeb6d7670e522a718067333cd4e81565b823373ffffffffffffffffffffffffffffffffffffffff168173ffffffffffffffffffffffffffffffffffffffff16146111405761113f336120a7565b5b61114b848484612333565b50505050565b611159611e45565b73ffffffffffffffffffffffffffffffffffffffff16600960009054906101000a900473ffffffffffffffffffffffffffffffffffffffff1673ffffffffffffffffffffffffffffffffffffffff16146111e8576040517f08c379a00000000000000000000000000000000000000000000000000000000081526004016111df90613df9565b60405180910390fd5b60008190506000815103611231576040517f08c379a00000000000000000000000000000000000000000000000000000000081526004016112289061406e565b60405180910390fd5b81601090816112409190614230565b505050565b6011805461125290613eb4565b80601f016020809104026020016040519081016040528092919081815260200182805461127e90613eb4565b80156112cb5780601f106112a0576101008083540402835291602001916112cb565b820191906000526020600020905b8154815290600101906020018083116112ae57829003601f168201915b505050505081565b6000806112df83612353565b9050600073ffffffffffffffffffffffffffffffffffffffff168173ffffffffffffffffffffffffffffffffffffffff1603611350576040517f08c379a00000000000000000000000000000000000000000000000000000000081526004016113479061434e565b60405180910390fd5b80915050919050565b60008073ffffffffffffffffffffffffffffffffffffffff168273ffffffffffffffffffffffffffffffffffffffff16036113c9576040517f08c379a00000000000000000000000000000000000000000000000000000000081526004016113c0906143e0565b60405180910390fd5b600360008373ffffffffffffffffffffffffffffffffffffffff1673ffffffffffffffffffffffffffffffffffffffff168152602001908152602001600020549050919050565b600b60029054906101000a900460ff1681565b61142b611e45565b73ffffffffffffffffffffffffffffffffffffffff16600960009054906101000a900473ffffffffffffffffffffffffffffffffffffffff1673ffffffffffffffffffffffffffffffffffffffff16146114ba576040517f08c379a00000000000000000000000000000000000000000000000000000000081526004016114b190613df9565b60405180910390fd5b60008190506000815103611503576040517f08c379a00000000000000000000000000000000000000000000000000000000081526004016114fa9061406e565b60405180910390fd5b81601190816115129190614230565b505050565b60606001805461152690613eb4565b80601f016020809104026020016040519081016040528092919081815260200182805461155290613eb4565b801561159f5780601f106115745761010080835404028352916020019161159f565b820191906000526020600020905b81548152906001019060200180831161158257829003601f168201915b5050505050905090565b6000816115bc6115b7611e45565b611359565b6115c69190614400565b9050600082600d546115d89190613f14565b9050600e548211611667577f700afc125fa7401d8c1aaf5376e3e8232e94d8664f959a19bd39ff39437f922461160c611e45565b6040516116199190614480565b60405180910390a1600e54821115611666576040517f08c379a000000000000000000000000000000000000000000000000000000000815260040161165d90614520565b60405180910390fd5b5b803410156116aa576040517f08c379a00000000000000000000000000000000000000000000000000000000081526004016116a19061458c565b60405180910390fd5b60005b8381101561173a57600c546116c260086122bb565b1115611703576040517f08c379a00000000000000000000000000000000000000000000000000000000081526004016116fa906145f8565b60405180910390fd5b61170d6008612390565b611727611718611e45565b61172260086122bb565b6123a6565b808061173290614618565b9150506116ad565b507f2bdd59583c8e5cc64165e86af2482dbe93e85c98b355b788aa592465b3f6920e611764611e45565b3485426040516117779493929190614660565b60405180910390a1505050565b8161178e816120a7565b61179883836123c4565b505050565b601e81565b833373ffffffffffffffffffffffffffffffffffffffff168173ffffffffffffffffffffffffffffffffffffffff16146117e0576117df336120a7565b5b6117ec858585856123da565b5050505050565b600a5481565b6000600f80549050905090565b60606118118261205c565b600061181b61243c565b9050600081511161183b5760405180602001604052806000815250611866565b80611845846124ce565b60405160200161185692919061472d565b6040516020818303038152906040525b915050919050565b611876611e45565b73ffffffffffffffffffffffffffffffffffffffff16600960009054906101000a900473ffffffffffffffffffffffffffffffffffffffff1673ffffffffffffffffffffffffffffffffffffffff1614611905576040517f08c379a00000000000000000000000000000000000000000000000000000000081526004016118fc90613df9565b60405180910390fd5b600b60029054906101000a900460ff1615611955576040517f08c379a000000000000000000000000000000000000000000000000000000000815260040161194c906147ce565b60405180910390fd5b60005b601e8110156119b35761196b6008612390565b6119a0600960009054906101000a900473ffffffffffffffffffffffffffffffffffffffff1661199b60086122bb565b6123a6565b80806119ab90614618565b915050611958565b506001600b60026101000a81548160ff021916908315150217905550565b600b60019054906101000a900460ff1681565b6119ec611e45565b73ffffffffffffffffffffffffffffffffffffffff16600960009054906101000a900473ffffffffffffffffffffffffffffffffffffffff1673ffffffffffffffffffffffffffffffffffffffff1614611a7b576040517f08c379a0000000000000000000000000000000000000000000000000000000008152600401611a7290613df9565b60405180910390fd5b600c54611a8860086122bb565b03611aa9576001600b60006101000a81548160ff0219169083151502179055505b565b600e5481565b60108054611abe90613eb4565b80601f0160208091040260200160405190810160405280929190818152602001828054611aea90613eb4565b8015611b375780601f10611b0c57610100808354040283529160200191611b37565b820191906000526020600020905b815481529060010190602001808311611b1a57829003601f168201915b505050505081565b606060118054611b4e90613eb4565b80601f0160208091040260200160405190810160405280929190818152602001828054611b7a90613eb4565b8015611bc75780601f10611b9c57610100808354040283529160200191611bc7565b820191906000526020600020905b815481529060010190602001808311611baa57829003601f168201915b5050505050905090565b6000600560008473ffffffffffffffffffffffffffffffffffffffff1673ffffffffffffffffffffffffffffffffffffffff16815260200190815260200160002060008373ffffffffffffffffffffffffffffffffffffffff1673ffffffffffffffffffffffffffffffffffffffff16815260200190815260200160002060009054906101000a900460ff16905092915050565b611c6d611e45565b73ffffffffffffffffffffffffffffffffffffffff16600960009054906101000a900473ffffffffffffffffffffffffffffffffffffffff1673ffffffffffffffffffffffffffffffffffffffff1614611cfc576040517f08c379a0000000000000000000000000000000000000000000000000000000008152600401611cf390613df9565b60405180910390fd5b600073ffffffffffffffffffffffffffffffffffffffff168173ffffffffffffffffffffffffffffffffffffffff1603611d6b576040517f08c379a0000000000000000000000000000000000000000000000000000000008152600401611d629061483a565b60405180910390fd5b600960009054906101000a900473ffffffffffffffffffffffffffffffffffffffff1673ffffffffffffffffffffffffffffffffffffffff168173ffffffffffffffffffffffffffffffffffffffff1603611dfb576040517f08c379a0000000000000000000000000000000000000000000000000000000008152600401611df2906148a6565b60405180910390fd5b80600960006101000a81548173ffffffffffffffffffffffffffffffffffffffff021916908373ffffffffffffffffffffffffffffffffffffffff16021790555050565b600d5481565b600033905090565b611e55612329565b6bffffffffffffffffffffffff16816bffffffffffffffffffffffff161115611eb3576040517f08c379a0000000000000000000000000000000000000000000000000000000008152600401611eaa90614938565b60405180910390fd5b600073ffffffffffffffffffffffffffffffffffffffff168273ffffffffffffffffffffffffffffffffffffffff1603611f22576040517f08c379a0000000000000000000000000000000000000000000000000000000008152600401611f19906149a4565b60405180910390fd5b60405180604001604052808373ffffffffffffffffffffffffffffffffffffffff168152602001826bffffffffffffffffffffffff16815250600660008201518160000160006101000a81548173ffffffffffffffffffffffffffffffffffffffff021916908373ffffffffffffffffffffffffffffffffffffffff16021790555060208201518160000160146101000a8154816bffffffffffffffffffffffff02191690836bffffffffffffffffffffffff1602179055509050505050565b60007f2a55205a000000000000000000000000000000000000000000000000000000007bffffffffffffffffffffffffffffffffffffffffffffffffffffffff1916827bffffffffffffffffffffffffffffffffffffffffffffffffffffffff1916148061205557506120548261259c565b5b9050919050565b6120658161267e565b6120a4576040517f08c379a000000000000000000000000000000000000000000000000000000000815260040161209b9061434e565b60405180910390fd5b50565b60006daaeb6d7670e522a718067333cd4e73ffffffffffffffffffffffffffffffffffffffff163b11156121a1576daaeb6d7670e522a718067333cd4e73ffffffffffffffffffffffffffffffffffffffff1663c617113430836040518363ffffffff1660e01b815260040161211e9291906149c4565b602060405180830381865afa15801561213b573d6000803e3d6000fd5b505050506040513d601f19601f8201168201806040525081019061215f9190614a02565b6121a057806040517fede71dcc0000000000000000000000000000000000000000000000000000000081526004016121979190613877565b60405180910390fd5b5b50565b60006121af826112d3565b90508073ffffffffffffffffffffffffffffffffffffffff168373ffffffffffffffffffffffffffffffffffffffff160361221f576040517f08c379a000000000000000000000000000000000000000000000000000000000815260040161221690614aa1565b60405180910390fd5b8073ffffffffffffffffffffffffffffffffffffffff1661223e611e45565b73ffffffffffffffffffffffffffffffffffffffff16148061226d575061226c81612267611e45565b611bd1565b5b6122ac576040517f08c379a00000000000000000000000000000000000000000000000000000000081526004016122a390614b33565b60405180910390fd5b6122b683836126bf565b505050565b600081600001549050919050565b6122da6122d4611e45565b82612778565b612319576040517f08c379a000000000000000000000000000000000000000000000000000000000815260040161231090614bc5565b60405180910390fd5b61232483838361280d565b505050565b6000612710905090565b61234e838383604051806020016040528060008152506117a2565b505050565b60006002600083815260200190815260200160002060009054906101000a900473ffffffffffffffffffffffffffffffffffffffff169050919050565b6001816000016000828254019250508190555050565b6123c0828260405180602001604052806000815250612b06565b5050565b6123d66123cf611e45565b8383612b61565b5050565b6123eb6123e5611e45565b83612778565b61242a576040517f08c379a000000000000000000000000000000000000000000000000000000000815260040161242190614bc5565b60405180910390fd5b61243684848484612ccd565b50505050565b60606010805461244b90613eb4565b80601f016020809104026020016040519081016040528092919081815260200182805461247790613eb4565b80156124c45780601f10612499576101008083540402835291602001916124c4565b820191906000526020600020905b8154815290600101906020018083116124a757829003601f168201915b5050505050905090565b6060600060016124dd84612d29565b01905060008167ffffffffffffffff8111156124fc576124fb613a3c565b5b6040519080825280601f01601f19166020018201604052801561252e5781602001600182028036833780820191505090505b509050600082602001820190505b600115612591578080600190039150507f3031323334353637383961626364656600000000000000000000000000000000600a86061a8153600a858161258557612584613f56565b5b0494506000850361253c575b819350505050919050565b60007f80ac58cd000000000000000000000000000000000000000000000000000000007bffffffffffffffffffffffffffffffffffffffffffffffffffffffff1916827bffffffffffffffffffffffffffffffffffffffffffffffffffffffff1916148061266757507f5b5e139f000000000000000000000000000000000000000000000000000000007bffffffffffffffffffffffffffffffffffffffffffffffffffffffff1916827bffffffffffffffffffffffffffffffffffffffffffffffffffffffff1916145b80612677575061267682612e7c565b5b9050919050565b60008073ffffffffffffffffffffffffffffffffffffffff166126a083612353565b73ffffffffffffffffffffffffffffffffffffffff1614159050919050565b816004600083815260200190815260200160002060006101000a81548173ffffffffffffffffffffffffffffffffffffffff021916908373ffffffffffffffffffffffffffffffffffffffff160217905550808273ffffffffffffffffffffffffffffffffffffffff16612732836112d3565b73ffffffffffffffffffffffffffffffffffffffff167f8c5be1e5ebec7d5bd14f71427d1e84f3dd0314c0f7b2291e5b200ac8c7c3b92560405160405180910390a45050565b600080612784836112d3565b90508073ffffffffffffffffffffffffffffffffffffffff168473ffffffffffffffffffffffffffffffffffffffff1614806127c657506127c58185611bd1565b5b8061280457508373ffffffffffffffffffffffffffffffffffffffff166127ec84610af3565b73ffffffffffffffffffffffffffffffffffffffff16145b91505092915050565b8273ffffffffffffffffffffffffffffffffffffffff1661282d826112d3565b73ffffffffffffffffffffffffffffffffffffffff1614612883576040517f08c379a000000000000000000000000000000000000000000000000000000000815260040161287a90614c57565b60405180910390fd5b600073ffffffffffffffffffffffffffffffffffffffff168273ffffffffffffffffffffffffffffffffffffffff16036128f2576040517f08c379a00000000000000000000000000000000000000000000000000000000081526004016128e990614ce9565b60405180910390fd5b6128ff8383836001612ee6565b8273ffffffffffffffffffffffffffffffffffffffff1661291f826112d3565b73ffffffffffffffffffffffffffffffffffffffff1614612975576040517f08c379a000000000000000000000000000000000000000000000000000000000815260040161296c90614c57565b60405180910390fd5b6004600082815260200190815260200160002060006101000a81549073ffffffffffffffffffffffffffffffffffffffff02191690556001600360008573ffffffffffffffffffffffffffffffffffffffff1673ffffffffffffffffffffffffffffffffffffffff168152602001908152602001600020600082825403925050819055506001600360008473ffffffffffffffffffffffffffffffffffffffff1673ffffffffffffffffffffffffffffffffffffffff16815260200190815260200160002060008282540192505081905550816002600083815260200190815260200160002060006101000a81548173ffffffffffffffffffffffffffffffffffffffff021916908373ffffffffffffffffffffffffffffffffffffffff160217905550808273ffffffffffffffffffffffffffffffffffffffff168473ffffffffffffffffffffffffffffffffffffffff167fddf252ad1be2c89b69c2b068fc378daa952ba7f163c4a11628f55a4df523b3ef60405160405180910390a4612b01838383600161300c565b505050565b612b1083836131d5565b612b1d60008484846133f2565b612b5c576040517f08c379a0000000000000000000000000000000000000000000000000000000008152600401612b5390614d7b565b60405180910390fd5b505050565b8173ffffffffffffffffffffffffffffffffffffffff168373ffffffffffffffffffffffffffffffffffffffff1603612bcf576040517f08c379a0000000000000000000000000000000000000000000000000000000008152600401612bc690614de7565b60405180910390fd5b80600560008573ffffffffffffffffffffffffffffffffffffffff1673ffffffffffffffffffffffffffffffffffffffff16815260200190815260200160002060008473ffffffffffffffffffffffffffffffffffffffff1673ffffffffffffffffffffffffffffffffffffffff16815260200190815260200160002060006101000a81548160ff0219169083151502179055508173ffffffffffffffffffffffffffffffffffffffff168373ffffffffffffffffffffffffffffffffffffffff167f17307eab39ab6107e8899845ad3d59bd9653f200f220920489ca2b5937696c3183604051612cc09190613738565b60405180910390a3505050565b612cd884848461280d565b612ce4848484846133f2565b612d23576040517f08c379a0000000000000000000000000000000000000000000000000000000008152600401612d1a90614d7b565b60405180910390fd5b50505050565b600080600090507a184f03e93ff9f4daa797ed6e38ed64bf6a1f0100000000000000008310612d87577a184f03e93ff9f4daa797ed6e38ed64bf6a1f0100000000000000008381612d7d57612d7c613f56565b5b0492506040810190505b6d04ee2d6d415b85acef81000000008310612dc4576d04ee2d6d415b85acef81000000008381612dba57612db9613f56565b5b0492506020810190505b662386f26fc100008310612df357662386f26fc100008381612de957612de8613f56565b5b0492506010810190505b6305f5e1008310612e1c576305f5e1008381612e1257612e11613f56565b5b0492506008810190505b6127108310612e41576127108381612e3757612e36613f56565b5b0492506004810190505b60648310612e645760648381612e5a57612e59613f56565b5b0492506002810190505b600a8310612e73576001810190505b80915050919050565b60007f01ffc9a7000000000000000000000000000000000000000000000000000000007bffffffffffffffffffffffffffffffffffffffffffffffffffffffff1916827bffffffffffffffffffffffffffffffffffffffffffffffffffffffff1916149050919050565b600181111561300657600073ffffffffffffffffffffffffffffffffffffffff168473ffffffffffffffffffffffffffffffffffffffff1614612f7a5780600360008673ffffffffffffffffffffffffffffffffffffffff1673ffffffffffffffffffffffffffffffffffffffff1681526020019081526020016000206000828254612f729190614e07565b925050819055505b600073ffffffffffffffffffffffffffffffffffffffff168373ffffffffffffffffffffffffffffffffffffffff16146130055780600360008573ffffffffffffffffffffffffffffffffffffffff1673ffffffffffffffffffffffffffffffffffffffff1681526020019081526020016000206000828254612ffd9190614400565b925050819055505b5b50505050565b61301884848484613579565b60008073ffffffffffffffffffffffffffffffffffffffff168573ffffffffffffffffffffffffffffffffffffffff16141580156130835750600073ffffffffffffffffffffffffffffffffffffffff168473ffffffffffffffffffffffffffffffffffffffff1614155b90506000600960009054906101000a900473ffffffffffffffffffffffffffffffffffffffff1673ffffffffffffffffffffffffffffffffffffffff168673ffffffffffffffffffffffffffffffffffffffff161415905060008280156130e75750815b80156130ff5750600b60019054906101000a900460ff165b905080156131cc576000600b60016101000a81548160ff021916908315150217905550600f60405180604001604052808973ffffffffffffffffffffffffffffffffffffffff16815260200142815250908060018154018082558091505060019003906000526020600020906002020160009091909190915060008201518160000160006101000a81548173ffffffffffffffffffffffffffffffffffffffff021916908373ffffffffffffffffffffffffffffffffffffffff1602179055506020820151816001015550505b50505050505050565b600073ffffffffffffffffffffffffffffffffffffffff168273ffffffffffffffffffffffffffffffffffffffff1603613244576040517f08c379a000000000000000000000000000000000000000000000000000000000815260040161323b90614e87565b60405180910390fd5b61324d8161267e565b1561328d576040517f08c379a000000000000000000000000000000000000000000000000000000000815260040161328490614ef3565b60405180910390fd5b61329b600083836001612ee6565b6132a48161267e565b156132e4576040517f08c379a00000000000000000000000000000000000000000000000000000000081526004016132db90614ef3565b60405180910390fd5b6001600360008473ffffffffffffffffffffffffffffffffffffffff1673ffffffffffffffffffffffffffffffffffffffff16815260200190815260200160002060008282540192505081905550816002600083815260200190815260200160002060006101000a81548173ffffffffffffffffffffffffffffffffffffffff021916908373ffffffffffffffffffffffffffffffffffffffff160217905550808273ffffffffffffffffffffffffffffffffffffffff16600073ffffffffffffffffffffffffffffffffffffffff167fddf252ad1be2c89b69c2b068fc378daa952ba7f163c4a11628f55a4df523b3ef60405160405180910390a46133ee60008383600161300c565b5050565b60006134138473ffffffffffffffffffffffffffffffffffffffff1661357f565b1561356c578373ffffffffffffffffffffffffffffffffffffffff1663150b7a0261343c611e45565b8786866040518563ffffffff1660e01b815260040161345e9493929190614f68565b6020604051808303816000875af192505050801561349a57506040513d601f19601f820116820180604052508101906134979190614fc9565b60015b61351c573d80600081146134ca576040519150601f19603f3d011682016040523d82523d6000602084013e6134cf565b606091505b506000815103613514576040517f08c379a000000000000000000000000000000000000000000000000000000000815260040161350b90614d7b565b60405180910390fd5b805181602001fd5b63150b7a0260e01b7bffffffffffffffffffffffffffffffffffffffffffffffffffffffff1916817bffffffffffffffffffffffffffffffffffffffffffffffffffffffff191614915050613571565b600190505b949350505050565b50505050565b6000808273ffffffffffffffffffffffffffffffffffffffff163b119050919050565b6000604051905090565b600080fd5b600080fd5b600073ffffffffffffffffffffffffffffffffffffffff82169050919050565b60006135e1826135b6565b9050919050565b6135f1816135d6565b81146135fc57600080fd5b50565b60008135905061360e816135e8565b92915050565b60006bffffffffffffffffffffffff82169050919050565b61363581613614565b811461364057600080fd5b50565b6000813590506136528161362c565b92915050565b6000806040838503121561366f5761366e6135ac565b5b600061367d858286016135ff565b925050602061368e85828601613643565b9150509250929050565b60007fffffffff0000000000000000000000000000000000000000000000000000000082169050919050565b6136cd81613698565b81146136d857600080fd5b50565b6000813590506136ea816136c4565b92915050565b600060208284031215613706576137056135ac565b5b6000613714848285016136db565b91505092915050565b60008115159050919050565b6137328161371d565b82525050565b600060208201905061374d6000830184613729565b92915050565b600081519050919050565b600082825260208201905092915050565b60005b8381101561378d578082015181840152602081019050613772565b60008484015250505050565b6000601f19601f8301169050919050565b60006137b582613753565b6137bf818561375e565b93506137cf81856020860161376f565b6137d881613799565b840191505092915050565b600060208201905081810360008301526137fd81846137aa565b905092915050565b6000819050919050565b61381881613805565b811461382357600080fd5b50565b6000813590506138358161380f565b92915050565b600060208284031215613851576138506135ac565b5b600061385f84828501613826565b91505092915050565b613871816135d6565b82525050565b600060208201905061388c6000830184613868565b92915050565b600080604083850312156138a9576138a86135ac565b5b60006138b7858286016135ff565b92505060206138c885828601613826565b9150509250929050565b6138db81613805565b82525050565b60006020820190506138f660008301846138d2565b92915050565b60006040820190506139116000830185613868565b61391e60208301846138d2565b9392505050565b60008060006060848603121561393e5761393d6135ac565b5b600061394c868287016135ff565b935050602061395d868287016135ff565b925050604061396e86828701613826565b9150509250925092565b6000806040838503121561398f5761398e6135ac565b5b600061399d85828601613826565b92505060206139ae85828601613826565b9150509250929050565b6000819050919050565b60006139dd6139d86139d3846135b6565b6139b8565b6135b6565b9050919050565b60006139ef826139c2565b9050919050565b6000613a01826139e4565b9050919050565b613a11816139f6565b82525050565b6000602082019050613a2c6000830184613a08565b92915050565b600080fd5b600080fd5b7f4e487b7100000000000000000000000000000000000000000000000000000000600052604160045260246000fd5b613a7482613799565b810181811067ffffffffffffffff82111715613a9357613a92613a3c565b5b80604052505050565b6000613aa66135a2565b9050613ab28282613a6b565b919050565b600067ffffffffffffffff821115613ad257613ad1613a3c565b5b613adb82613799565b9050602081019050919050565b82818337600083830152505050565b6000613b0a613b0584613ab7565b613a9c565b905082815260208101848484011115613b2657613b25613a37565b5b613b31848285613ae8565b509392505050565b600082601f830112613b4e57613b4d613a32565b5b8135613b5e848260208601613af7565b91505092915050565b600060208284031215613b7d57613b7c6135ac565b5b600082013567ffffffffffffffff811115613b9b57613b9a6135b1565b5b613ba784828501613b39565b91505092915050565b600060208284031215613bc657613bc56135ac565b5b6000613bd4848285016135ff565b91505092915050565b613be68161371d565b8114613bf157600080fd5b50565b600081359050613c0381613bdd565b92915050565b60008060408385031215613c2057613c1f6135ac565b5b6000613c2e858286016135ff565b9250506020613c3f85828601613bf4565b9150509250929050565b600067ffffffffffffffff821115613c6457613c63613a3c565b5b613c6d82613799565b9050602081019050919050565b6000613c8d613c8884613c49565b613a9c565b905082815260208101848484011115613ca957613ca8613a37565b5b613cb4848285613ae8565b509392505050565b600082601f830112613cd157613cd0613a32565b5b8135613ce1848260208601613c7a565b91505092915050565b60008060008060808587031215613d0457613d036135ac565b5b6000613d12878288016135ff565b9450506020613d23878288016135ff565b9350506040613d3487828801613826565b925050606085013567ffffffffffffffff811115613d5557613d546135b1565b5b613d6187828801613cbc565b91505092959194509250565b60008060408385031215613d8457613d836135ac565b5b6000613d92858286016135ff565b9250506020613da3858286016135ff565b9150509250929050565b7f43616c6c6572206973206e6f7420746865206f776e6572210000000000000000600082015250565b6000613de360188361375e565b9150613dee82613dad565b602082019050919050565b60006020820190508181036000830152613e1281613dd6565b9050919050565b7f52656365697665722063616e6e6f742062652061207830206164647265737321600082015250565b6000613e4f60208361375e565b9150613e5a82613e19565b602082019050919050565b60006020820190508181036000830152613e7e81613e42565b9050919050565b7f4e487b7100000000000000000000000000000000000000000000000000000000600052602260045260246000fd5b60006002820490506001821680613ecc57607f821691505b602082108103613edf57613ede613e85565b5b50919050565b7f4e487b7100000000000000000000000000000000000000000000000000000000600052601160045260246000fd5b6000613f1f82613805565b9150613f2a83613805565b9250828202613f3881613805565b91508282048414831517613f4f57613f4e613ee5565b5b5092915050565b7f4e487b7100000000000000000000000000000000000000000000000000000000600052601260045260246000fd5b6000613f9082613805565b9150613f9b83613805565b925082613fab57613faa613f56565b5b828204905092915050565b7f496e73756666696369656e742046756e64732100000000000000000000000000600082015250565b6000613fec60138361375e565b9150613ff782613fb6565b602082019050919050565b6000602082019050818103600083015261401b81613fdf565b9050919050565b7f496e76616c696420555249210000000000000000000000000000000000000000600082015250565b6000614058600c8361375e565b915061406382614022565b602082019050919050565b600060208201905081810360008301526140878161404b565b9050919050565b60008190508160005260206000209050919050565b60006020601f8301049050919050565b600082821b905092915050565b6000600883026140f07fffffffffffffffffffffffffffffffffffffffffffffffffffffffffffffffff826140b3565b6140fa86836140b3565b95508019841693508086168417925050509392505050565b600061412d61412861412384613805565b6139b8565b613805565b9050919050565b6000819050919050565b61414783614112565b61415b61415382614134565b8484546140c0565b825550505050565b600090565b614170614163565b61417b81848461413e565b505050565b5b8181101561419f57614194600082614168565b600181019050614181565b5050565b601f8211156141e4576141b58161408e565b6141be846140a3565b810160208510156141cd578190505b6141e16141d9856140a3565b830182614180565b50505b505050565b600082821c905092915050565b6000614207600019846008026141e9565b1980831691505092915050565b600061422083836141f6565b9150826002028217905092915050565b61423982613753565b67ffffffffffffffff81111561425257614251613a3c565b5b61425c8254613eb4565b6142678282856141a3565b600060209050601f83116001811461429a5760008415614288578287015190505b6142928582614214565b8655506142fa565b601f1984166142a88661408e565b60005b828110156142d0578489015182556001820191506020850194506020810190506142ab565b868310156142ed57848901516142e9601f8916826141f6565b8355505b6001600288020188555050505b505050505050565b7f4552433732313a20696e76616c696420746f6b656e2049440000000000000000600082015250565b600061433860188361375e565b915061434382614302565b602082019050919050565b600060208201905081810360008301526143678161432b565b9050919050565b7f4552433732313a2061646472657373207a65726f206973206e6f74206120766160008201527f6c6964206f776e65720000000000000000000000000000000000000000000000602082015250565b60006143ca60298361375e565b91506143d58261436e565b604082019050919050565b600060208201905081810360008301526143f9816143bd565b9050919050565b600061440b82613805565b915061441683613805565b925082820190508082111561442e5761442d613ee5565b5b92915050565b7f4c494d49545f4558434545444544000000000000000000000000000000000000600082015250565b600061446a600e8361375e565b915061447582614434565b602082019050919050565b60006040820190506144956000830184613868565b81810360208301526144a68161445d565b905092915050565b7f596f75206861766520657863656564656420746865205055524348415345204c60008201527f494d49542e000000000000000000000000000000000000000000000000000000602082015250565b600061450a60258361375e565b9150614515826144ae565b604082019050919050565b60006020820190508181036000830152614539816144fd565b9050919050565b7f496e636f72726563742045746865722076616c75652073656e742e0000000000600082015250565b6000614576601b8361375e565b915061458182614540565b602082019050919050565b600060208201905081810360008301526145a581614569565b9050919050565b7f49276d20736f727279207765207265616368656420746865206361702e000000600082015250565b60006145e2601d8361375e565b91506145ed826145ac565b602082019050919050565b60006020820190508181036000830152614611816145d5565b9050919050565b600061462382613805565b91507fffffffffffffffffffffffffffffffffffffffffffffffffffffffffffffffff820361465557614654613ee5565b5b600182019050919050565b60006080820190506146756000830187613868565b61468260208301866138d2565b61468f60408301856138d2565b61469c60608301846138d2565b95945050505050565b600081905092915050565b60006146bb82613753565b6146c581856146a5565b93506146d581856020860161376f565b80840191505092915050565b7f2e6a736f6e000000000000000000000000000000000000000000000000000000600082015250565b60006147176005836146a5565b9150614722826146e1565b600582019050919050565b600061473982856146b0565b915061474582846146b0565b91506147508261470a565b91508190509392505050565b7f4f776e6572732068617320616c7265616479206d696e7465642068697320736860008201527f6172652100000000000000000000000000000000000000000000000000000000602082015250565b60006147b860248361375e565b91506147c38261475c565b604082019050919050565b600060208201905081810360008301526147e7816147ab565b9050919050565b7f496e76616c696420416464726573732100000000000000000000000000000000600082015250565b600061482460108361375e565b915061482f826147ee565b602082019050919050565b6000602082019050818103600083015261485381614817565b9050919050565b7f596f752061726520616c726561647920746865206f776e657221000000000000600082015250565b6000614890601a8361375e565b915061489b8261485a565b602082019050919050565b600060208201905081810360008301526148bf81614883565b9050919050565b7f455243323938313a20726f79616c7479206665652077696c6c2065786365656460008201527f2073616c65507269636500000000000000000000000000000000000000000000602082015250565b6000614922602a8361375e565b915061492d826148c6565b604082019050919050565b6000602082019050818103600083015261495181614915565b9050919050565b7f455243323938313a20696e76616c696420726563656976657200000000000000600082015250565b600061498e60198361375e565b915061499982614958565b602082019050919050565b600060208201905081810360008301526149bd81614981565b9050919050565b60006040820190506149d96000830185613868565b6149e66020830184613868565b9392505050565b6000815190506149fc81613bdd565b92915050565b600060208284031215614a1857614a176135ac565b5b6000614a26848285016149ed565b91505092915050565b7f4552433732313a20617070726f76616c20746f2063757272656e74206f776e6560008201527f7200000000000000000000000000000000000000000000000000000000000000602082015250565b6000614a8b60218361375e565b9150614a9682614a2f565b604082019050919050565b60006020820190508181036000830152614aba81614a7e565b9050919050565b7f4552433732313a20617070726f76652063616c6c6572206973206e6f7420746f60008201527f6b656e206f776e6572206f7220617070726f76656420666f7220616c6c000000602082015250565b6000614b1d603d8361375e565b9150614b2882614ac1565b604082019050919050565b60006020820190508181036000830152614b4c81614b10565b9050919050565b7f4552433732313a2063616c6c6572206973206e6f7420746f6b656e206f776e6560008201527f72206f7220617070726f76656400000000000000000000000000000000000000602082015250565b6000614baf602d8361375e565b9150614bba82614b53565b604082019050919050565b60006020820190508181036000830152614bde81614ba2565b9050919050565b7f4552433732313a207472616e736665722066726f6d20696e636f72726563742060008201527f6f776e6572000000000000000000000000000000000000000000000000000000602082015250565b6000614c4160258361375e565b9150614c4c82614be5565b604082019050919050565b60006020820190508181036000830152614c7081614c34565b9050919050565b7f4552433732313a207472616e7366657220746f20746865207a65726f2061646460008201527f7265737300000000000000000000000000000000000000000000000000000000602082015250565b6000614cd360248361375e565b9150614cde82614c77565b604082019050919050565b60006020820190508181036000830152614d0281614cc6565b9050919050565b7f4552433732313a207472616e7366657220746f206e6f6e20455243373231526560008201527f63656976657220696d706c656d656e7465720000000000000000000000000000602082015250565b6000614d6560328361375e565b9150614d7082614d09565b604082019050919050565b60006020820190508181036000830152614d9481614d58565b9050919050565b7f4552433732313a20617070726f766520746f2063616c6c657200000000000000600082015250565b6000614dd160198361375e565b9150614ddc82614d9b565b602082019050919050565b60006020820190508181036000830152614e0081614dc4565b9050919050565b6000614e1282613805565b9150614e1d83613805565b9250828203905081811115614e3557614e34613ee5565b5b92915050565b7f4552433732313a206d696e7420746f20746865207a65726f2061646472657373600082015250565b6000614e7160208361375e565b9150614e7c82614e3b565b602082019050919050565b60006020820190508181036000830152614ea081614e64565b9050919050565b7f4552433732313a20746f6b656e20616c7265616479206d696e74656400000000600082015250565b6000614edd601c8361375e565b9150614ee882614ea7565b602082019050919050565b60006020820190508181036000830152614f0c81614ed0565b9050919050565b600081519050919050565b600082825260208201905092915050565b6000614f3a82614f13565b614f448185614f1e565b9350614f5481856020860161376f565b614f5d81613799565b840191505092915050565b6000608082019050614f7d6000830187613868565b614f8a6020830186613868565b614f9760408301856138d2565b8181036060830152614fa98184614f2f565b905095945050505050565b600081519050614fc3816136c4565b92915050565b600060208284031215614fdf57614fde6135ac565b5b6000614fed84828501614fb4565b9150509291505056fea26469706673582212206a16949f4f5a42189f670b8ba63b96f68e135e69979cf6b13b6f0b1d1bc4f96264736f6c63430008110033697066733a2f2f516d64634c596d714577756e57446646717779476979776e4d555662633857656b457541583366705657346670612f68747470733a2f2f697066732e66696c65626173652e696f2f697066732f516d6168356e3967656a476743707a4b72674b717833316a73526559624378757936656e335975747638694b4b78",
  "linkReferences": {},
  "deployedLinkReferences": {}
}