{
  "_format": "hh-sol-artifact-1",
  "contractName": "PsyDucks",
  "sourceName": "contracts/psyducks.sol",
  "abi": [
    {
      "inputs": [],
      "stateMutability": "nonpayable",
      "type": "constructor"
    },
    {
      "inputs": [
        {
          "internalType": "address",
          "name": "operator",
          "type": "address"
        }
      ],
      "name": "OperatorNotAllowed",
      "type": "error"
    },
    {
      "anonymous": false,
      "inputs": [
        {
          "indexed": true,
          "internalType": "address",
          "name": "owner",
          "type": "address"
        },
        {
          "indexed": true,
          "internalType": "address",
          "name": "approved",
          "type": "address"
        },
        {
          "indexed": true,
          "internalType": "uint256",
          "name": "tokenId",
          "type": "uint256"
        }
      ],
      "name": "Approval",
      "type": "event"
    },
    {
      "anonymous": false,
      "inputs": [
        {
          "indexed": true,
          "internalType": "address",
          "name": "owner",
          "type": "address"
        },
        {
          "indexed": true,
          "internalType": "address",
          "name": "operator",
          "type": "address"
        },
        {
          "indexed": false,
          "internalType": "bool",
          "name": "approved",
          "type": "bool"
        }
      ],
      "name": "ApprovalForAll",
      "type": "event"
    },
    {
      "anonymous": false,
      "inputs": [
        {
          "indexed": false,
          "internalType": "address",
          "name": "sentTo",
          "type": "address"
        },
        {
          "indexed": false,
          "internalType": "uint256",
          "name": "amount",
          "type": "uint256"
        },
        {
          "indexed": false,
          "internalType": "uint256",
          "name": "timestamp",
          "type": "uint256"
        }
      ],
      "name": "Cashback",
      "type": "event"
    },
    {
      "anonymous": false,
      "inputs": [
        {
          "indexed": false,
          "internalType": "address",
          "name": "from",
          "type": "address"
        },
        {
          "indexed": false,
          "internalType": "string",
          "name": "message",
          "type": "string"
        }
      ],
      "name": "LimitExceeded",
      "type": "event"
    },
    {
      "anonymous": false,
      "inputs": [
        {
          "indexed": false,
          "internalType": "address",
          "name": "purchasedBy",
          "type": "address"
        },
        {
          "indexed": false,
          "internalType": "uint256",
          "name": "amount",
          "type": "uint256"
        },
        {
          "indexed": false,
          "internalType": "uint256",
          "name": "number",
          "type": "uint256"
        },
        {
          "indexed": false,
          "internalType": "uint256",
          "name": "timestamp",
          "type": "uint256"
        }
      ],
      "name": "Purchased",
      "type": "event"
    },
    {
      "anonymous": false,
      "inputs": [
        {
          "indexed": true,
          "internalType": "address",
          "name": "from",
          "type": "address"
        },
        {
          "indexed": true,
          "internalType": "address",
          "name": "to",
          "type": "address"
        },
        {
          "indexed": true,
          "internalType": "uint256",
          "name": "tokenId",
          "type": "uint256"
        }
      ],
      "name": "Transfer",
      "type": "event"
    },
    {
      "inputs": [],
      "name": "BASE_URI",
      "outputs": [
        {
          "internalType": "string",
          "name": "",
          "type": "string"
        }
      ],
      "stateMutability": "view",
      "type": "function"
    },
    {
      "inputs": [],
      "name": "CONTRACT_URI",
      "outputs": [
        {
          "internalType": "string",
          "name": "",
          "type": "string"
        }
      ],
      "stateMutability": "view",
      "type": "function"
    },
    {
      "inputs": [],
      "name": "INIT_CASH_BACK",
      "outputs": [
        {
          "internalType": "bool",
          "name": "",
          "type": "bool"
        }
      ],
      "stateMutability": "view",
      "type": "function"
    },
    {
      "inputs": [],
      "name": "MAX_INITIAL_SUPPLY",
      "outputs": [
        {
          "internalType": "uint256",
          "name": "",
          "type": "uint256"
        }
      ],
      "stateMutability": "view",
      "type": "function"
    },
    {
      "inputs": [],
      "name": "MAX_MINTABLE",
      "outputs": [
        {
          "internalType": "uint256",
          "name": "",
          "type": "uint256"
        }
      ],
      "stateMutability": "view",
      "type": "function"
    },
    {
      "inputs": [],
      "name": "MAX_SUPPLY",
      "outputs": [
        {
          "internalType": "uint256",
          "name": "",
          "type": "uint256"
        }
      ],
      "stateMutability": "view",
      "type": "function"
    },
    {
      "inputs": [],
      "name": "OPERATOR_FILTER_REGISTRY",
      "outputs": [
        {
          "internalType": "contract IOperatorFilterRegistry",
          "name": "",
          "type": "address"
        }
      ],
      "stateMutability": "view",
      "type": "function"
    },
    {
      "inputs": [],
      "name": "OWNERS_SHARE",
      "outputs": [
        {
          "internalType": "uint256",
          "name": "",
          "type": "uint256"
        }
      ],
      "stateMutability": "view",
      "type": "function"
    },
    {
      "inputs": [],
      "name": "OWNERS_SHARE_MINTED",
      "outputs": [
        {
          "internalType": "bool",
          "name": "",
          "type": "bool"
        }
      ],
      "stateMutability": "view",
      "type": "function"
    },
    {
      "inputs": [],
      "name": "PHASE",
      "outputs": [
        {
          "internalType": "uint256",
          "name": "",
          "type": "uint256"
        }
      ],
      "stateMutability": "view",
      "type": "function"
    },
    {
      "inputs": [],
      "name": "PURCHASE_LIMIT",
      "outputs": [
        {
          "internalType": "uint256",
          "name": "",
          "type": "uint256"
        }
      ],
      "stateMutability": "view",
      "type": "function"
    },
    {
      "inputs": [],
      "name": "SOLD_OUT",
      "outputs": [
        {
          "internalType": "bool",
          "name": "",
          "type": "bool"
        }
      ],
      "stateMutability": "view",
      "type": "function"
    },
    {
      "inputs": [
        {
          "internalType": "uint256",
          "name": "",
          "type": "uint256"
        }
      ],
      "name": "WINNERS",
      "outputs": [
        {
          "internalType": "address",
          "name": "_address",
          "type": "address"
        },
        {
          "internalType": "uint256",
          "name": "timestamp",
          "type": "uint256"
        }
      ],
      "stateMutability": "view",
      "type": "function"
    },
    {
      "inputs": [],
      "name": "_PRICE",
      "outputs": [
        {
          "internalType": "uint256",
          "name": "",
          "type": "uint256"
        }
      ],
      "stateMutability": "view",
      "type": "function"
    },
    {
      "inputs": [],
      "name": "activatePhaseTwo",
      "outputs": [],
      "stateMutability": "nonpayable",
      "type": "function"
    },
    {
      "inputs": [
        {
          "internalType": "address",
          "name": "operator",
          "type": "address"
        },
        {
          "internalType": "uint256",
          "name": "tokenId",
          "type": "uint256"
        }
      ],
      "name": "approve",
      "outputs": [],
      "stateMutability": "nonpayable",
      "type": "function"
    },
    {
      "inputs": [
        {
          "internalType": "address",
          "name": "owner",
          "type": "address"
        }
      ],
      "name": "balanceOf",
      "outputs": [
        {
          "internalType": "uint256",
          "name": "",
          "type": "uint256"
        }
      ],
      "stateMutability": "view",
      "type": "function"
    },
    {
      "inputs": [],
      "name": "contractURI",
      "outputs": [
        {
          "internalType": "string",
          "name": "",
          "type": "string"
        }
      ],
      "stateMutability": "view",
      "type": "function"
    },
    {
      "inputs": [],
      "name": "endPhase",
      "outputs": [],
      "stateMutability": "nonpayable",
      "type": "function"
    },
    {
      "inputs": [
        {
          "internalType": "uint256",
          "name": "tokenId",
          "type": "uint256"
        }
      ],
      "name": "getApproved",
      "outputs": [
        {
          "internalType": "address",
          "name": "",
          "type": "address"
        }
      ],
      "stateMutability": "view",
      "type": "function"
    },
    {
      "inputs": [],
      "name": "initiateCashback",
      "outputs": [],
      "stateMutability": "nonpayable",
      "type": "function"
    },
    {
      "inputs": [
        {
          "internalType": "address",
          "name": "owner",
          "type": "address"
        },
        {
          "internalType": "address",
          "name": "operator",
          "type": "address"
        }
      ],
      "name": "isApprovedForAll",
      "outputs": [
        {
          "internalType": "bool",
          "name": "",
          "type": "bool"
        }
      ],
      "stateMutability": "view",
      "type": "function"
    },
    {
      "inputs": [
        {
          "internalType": "uint256",
          "name": "amount",
          "type": "uint256"
        }
      ],
      "name": "mint",
      "outputs": [],
      "stateMutability": "payable",
      "type": "function"
    },
    {
      "inputs": [],
      "name": "name",
      "outputs": [
        {
          "internalType": "string",
          "name": "",
          "type": "string"
        }
      ],
      "stateMutability": "view",
      "type": "function"
    },
    {
      "inputs": [
        {
          "internalType": "uint256",
          "name": "tokenId",
          "type": "uint256"
        }
      ],
      "name": "ownerOf",
      "outputs": [
        {
          "internalType": "address",
          "name": "",
          "type": "address"
        }
      ],
      "stateMutability": "view",
      "type": "function"
    },
    {
      "inputs": [],
      "name": "reserve",
      "outputs": [],
      "stateMutability": "nonpayable",
      "type": "function"
    },
    {
      "inputs": [
        {
          "internalType": "uint256",
          "name": "_tokenId",
          "type": "uint256"
        },
        {
          "internalType": "uint256",
          "name": "_salePrice",
          "type": "uint256"
        }
      ],
      "name": "royaltyInfo",
      "outputs": [
        {
          "internalType": "address",
          "name": "",
          "type": "address"
        },
        {
          "internalType": "uint256",
          "name": "",
          "type": "uint256"
        }
      ],
      "stateMutability": "view",
      "type": "function"
    },
    {
      "inputs": [
        {
          "internalType": "address",
          "name": "from",
          "type": "address"
        },
        {
          "internalType": "address",
          "name": "to",
          "type": "address"
        },
        {
          "internalType": "uint256",
          "name": "tokenId",
          "type": "uint256"
        }
      ],
      "name": "safeTransferFrom",
      "outputs": [],
      "stateMutability": "nonpayable",
      "type": "function"
    },
    {
      "inputs": [
        {
          "internalType": "address",
          "name": "from",
          "type": "address"
        },
        {
          "internalType": "address",
          "name": "to",
          "type": "address"
        },
        {
          "internalType": "uint256",
          "name": "tokenId",
          "type": "uint256"
        },
        {
          "internalType": "bytes",
          "name": "data",
          "type": "bytes"
        }
      ],
      "name": "safeTransferFrom",
      "outputs": [],
      "stateMutability": "nonpayable",
      "type": "function"
    },
    {
      "inputs": [
        {
          "internalType": "address",
          "name": "operator",
          "type": "address"
        },
        {
          "internalType": "bool",
          "name": "approved",
          "type": "bool"
        }
      ],
      "name": "setApprovalForAll",
      "outputs": [],
      "stateMutability": "nonpayable",
      "type": "function"
    },
    {
      "inputs": [
        {
          "internalType": "string",
          "name": "uri",
          "type": "string"
        }
      ],
      "name": "setBaseURI",
      "outputs": [],
      "stateMutability": "nonpayable",
      "type": "function"
    },
    {
      "inputs": [
        {
          "internalType": "string",
          "name": "uri",
          "type": "string"
        }
      ],
      "name": "setContractURI",
      "outputs": [],
      "stateMutability": "nonpayable",
      "type": "function"
    },
    {
      "inputs": [
        {
          "internalType": "address",
          "name": "_receiver",
          "type": "address"
        },
        {
          "internalType": "uint96",
          "name": "fee",
          "type": "uint96"
        }
      ],
      "name": "setCreatorsFee",
      "outputs": [],
      "stateMutability": "nonpayable",
      "type": "function"
    },
    {
      "inputs": [
        {
          "internalType": "bytes4",
          "name": "interfaceId",
          "type": "bytes4"
        }
      ],
      "name": "supportsInterface",
      "outputs": [
        {
          "internalType": "bool",
          "name": "",
          "type": "bool"
        }
      ],
      "stateMutability": "view",
      "type": "function"
    },
    {
      "inputs": [],
      "name": "symbol",
      "outputs": [
        {
          "internalType": "string",
          "name": "",
          "type": "string"
        }
      ],
      "stateMutability": "view",
      "type": "function"
    },
    {
      "inputs": [
        {
          "internalType": "uint256",
          "name": "tokenId",
          "type": "uint256"
        }
      ],
      "name": "tokenURI",
      "outputs": [
        {
          "internalType": "string",
          "name": "",
          "type": "string"
        }
      ],
      "stateMutability": "view",
      "type": "function"
    },
    {
      "inputs": [],
      "name": "totalSupply",
      "outputs": [
        {
          "internalType": "uint256",
          "name": "",
          "type": "uint256"
        }
      ],
      "stateMutability": "view",
      "type": "function"
    },
    {
      "inputs": [],
      "name": "totalWinners",
      "outputs": [
        {
          "internalType": "uint256",
          "name": "",
          "type": "uint256"
        }
      ],
      "stateMutability": "view",
      "type": "function"
    },
    {
      "inputs": [
        {
          "internalType": "address",
          "name": "from",
          "type": "address"
        },
        {
          "internalType": "address",
          "name": "to",
          "type": "address"
        },
        {
          "internalType": "uint256",
          "name": "tokenId",
          "type": "uint256"
        }
      ],
      "name": "transferFrom",
      "outputs": [],
      "stateMutability": "nonpayable",
      "type": "function"
    },
    {
      "inputs": [
        {
          "internalType": "address",
          "name": "to",
          "type": "address"
        }
      ],
      "name": "transferOwnership",
      "outputs": [],
      "stateMutability": "nonpayable",
      "type": "function"
    },
    {
      "inputs": [],
      "name": "withdraw",
      "outputs": [],
      "stateMutability": "nonpayable",
      "type": "function"
    }
  ],
  "bytecode": "0x60806040526001600a556000600b60006101000a81548160ff0219169083151502179055506000600b60016101000a81548160ff0219169083151502179055506000600b60026101000a81548160ff021916908315150217905550601e6127106200006b919062000714565b600c5567013fbe85edc90000600d556014600e5560405180606001604052806036815260200162005d8a6036913960109081620000a99190620009bf565b506040518060800160405280604c815260200162005dc0604c913960119081620000d49190620009bf565b50348015620000e257600080fd5b50733cc6cdda760b79bafa08df41ecfa224f810dceb660016040518060400160405280600881526020017f5073794475636b730000000000000000000000000000000000000000000000008152506040518060400160405280600381526020017f50535900000000000000000000000000000000000000000000000000000000008152508160009081620001779190620009bf565b508060019081620001899190620009bf565b50505060006daaeb6d7670e522a718067333cd4e73ffffffffffffffffffffffffffffffffffffffff163b11156200038157801562000247576daaeb6d7670e522a718067333cd4e73ffffffffffffffffffffffffffffffffffffffff16637d3e3dbe30846040518363ffffffff1660e01b81526004016200020d92919062000aeb565b600060405180830381600087803b1580156200022857600080fd5b505af11580156200023d573d6000803e3d6000fd5b5050505062000380565b600073ffffffffffffffffffffffffffffffffffffffff168273ffffffffffffffffffffffffffffffffffffffff161462000301576daaeb6d7670e522a718067333cd4e73ffffffffffffffffffffffffffffffffffffffff1663a0af290330846040518363ffffffff1660e01b8152600401620002c792919062000aeb565b600060405180830381600087803b158015620002e257600080fd5b505af1158015620002f7573d6000803e3d6000fd5b505050506200037f565b6daaeb6d7670e522a718067333cd4e73ffffffffffffffffffffffffffffffffffffffff16634420e486306040518263ffffffff1660e01b81526004016200034a919062000b18565b600060405180830381600087803b1580156200036557600080fd5b505af11580156200037a573d6000803e3d6000fd5b505050505b5b5b505062000393620003fc60201b60201c565b600960006101000a81548173ffffffffffffffffffffffffffffffffffffffff021916908373ffffffffffffffffffffffffffffffffffffffff160217905550620003f6620003e7620003fc60201b60201c565b6103e86200040460201b60201c565b62000d34565b600033905090565b62000414620003fc60201b60201c565b73ffffffffffffffffffffffffffffffffffffffff16600960009054906101000a900473ffffffffffffffffffffffffffffffffffffffff1673ffffffffffffffffffffffffffffffffffffffff1614620004a6576040517f08c379a00000000000000000000000000000000000000000000000000000000081526004016200049d9062000b96565b60405180910390fd5b600073ffffffffffffffffffffffffffffffffffffffff168273ffffffffffffffffffffffffffffffffffffffff160362000518576040517f08c379a00000000000000000000000000000000000000000000000000000000081526004016200050f9062000c08565b60405180910390fd5b6200052a82826200052e60201b60201c565b5050565b6200053e620006d160201b60201c565b6bffffffffffffffffffffffff16816bffffffffffffffffffffffff1611156200059f576040517f08c379a0000000000000000000000000000000000000000000000000000000008152600401620005969062000ca0565b60405180910390fd5b600073ffffffffffffffffffffffffffffffffffffffff168273ffffffffffffffffffffffffffffffffffffffff160362000611576040517f08c379a0000000000000000000000000000000000000000000000000000000008152600401620006089062000d12565b60405180910390fd5b60405180604001604052808373ffffffffffffffffffffffffffffffffffffffff168152602001826bffffffffffffffffffffffff16815250600660008201518160000160006101000a81548173ffffffffffffffffffffffffffffffffffffffff021916908373ffffffffffffffffffffffffffffffffffffffff16021790555060208201518160000160146101000a8154816bffffffffffffffffffffffff02191690836bffffffffffffffffffffffff1602179055509050505050565b6000612710905090565b6000819050919050565b7f4e487b7100000000000000000000000000000000000000000000000000000000600052601160045260246000fd5b60006200072182620006db565b91506200072e83620006db565b9250828203905081811115620007495762000748620006e5565b5b92915050565b600081519050919050565b7f4e487b7100000000000000000000000000000000000000000000000000000000600052604160045260246000fd5b7f4e487b7100000000000000000000000000000000000000000000000000000000600052602260045260246000fd5b60006002820490506001821680620007d157607f821691505b602082108103620007e757620007e662000789565b5b50919050565b60008190508160005260206000209050919050565b60006020601f8301049050919050565b600082821b905092915050565b600060088302620008517fffffffffffffffffffffffffffffffffffffffffffffffffffffffffffffffff8262000812565b6200085d868362000812565b95508019841693508086168417925050509392505050565b6000819050919050565b6000620008a06200089a6200089484620006db565b62000875565b620006db565b9050919050565b6000819050919050565b620008bc836200087f565b620008d4620008cb82620008a7565b8484546200081f565b825550505050565b600090565b620008eb620008dc565b620008f8818484620008b1565b505050565b5b81811015620009205762000914600082620008e1565b600181019050620008fe565b5050565b601f8211156200096f576200093981620007ed565b620009448462000802565b8101602085101562000954578190505b6200096c620009638562000802565b830182620008fd565b50505b505050565b600082821c905092915050565b6000620009946000198460080262000974565b1980831691505092915050565b6000620009af838362000981565b9150826002028217905092915050565b620009ca826200074f565b67ffffffffffffffff811115620009e657620009e56200075a565b5b620009f28254620007b8565b620009ff82828562000924565b600060209050601f83116001811462000a37576000841562000a22578287015190505b62000a2e8582620009a1565b86555062000a9e565b601f19841662000a4786620007ed565b60005b8281101562000a715784890151825560018201915060208501945060208101905062000a4a565b8683101562000a91578489015162000a8d601f89168262000981565b8355505b6001600288020188555050505b505050505050565b600073ffffffffffffffffffffffffffffffffffffffff82169050919050565b600062000ad38262000aa6565b9050919050565b62000ae58162000ac6565b82525050565b600060408201905062000b02600083018562000ada565b62000b11602083018462000ada565b9392505050565b600060208201905062000b2f600083018462000ada565b92915050565b600082825260208201905092915050565b7f43616c6c6572206973206e6f7420746865206f776e6572210000000000000000600082015250565b600062000b7e60188362000b35565b915062000b8b8262000b46565b602082019050919050565b6000602082019050818103600083015262000bb18162000b6f565b9050919050565b7f52656365697665722063616e6e6f742062652061207830206164647265737321600082015250565b600062000bf060208362000b35565b915062000bfd8262000bb8565b602082019050919050565b6000602082019050818103600083015262000c238162000be1565b9050919050565b7f455243323938313a20726f79616c7479206665652077696c6c2065786365656460008201527f2073616c65507269636500000000000000000000000000000000000000000000602082015250565b600062000c88602a8362000b35565b915062000c958262000c2a565b604082019050919050565b6000602082019050818103600083015262000cbb8162000c79565b9050919050565b7f455243323938313a20696e76616c696420726563656976657200000000000000600082015250565b600062000cfa60198362000b35565b915062000d078262000cc2565b602082019050919050565b6000602082019050818103600083015262000d2d8162000ceb565b9050919050565b6150468062000d446000396000f3fe6080604052600436106102465760003560e01c80636352211e11610139578063bcc941b6116100b6578063d75e61101161007a578063d75e611014610829578063dbddb26a14610854578063e8a3d4851461087f578063e985e9c5146108aa578063f2fde38b146108e7578063fc96f3601461091057610246565b8063bcc941b614610768578063c87b56dd14610793578063cd3293de146107d0578063cd4a892e146107e7578063d21efc351461081257610246565b8063a0712d68116100fd578063a0712d68146106a4578063a22cb465146106c0578063aa8dd3db146106e9578063b88d4fde14610714578063b8eb8e611461073d57610246565b80636352211e146105ab57806370a08231146105e8578063738e307414610625578063938e3d7b1461065057806395d89b411461067957610246565b806323b872dd116101c75780633f879faf1161018b5780633f879faf146104d857806341f434341461050357806342842e0e1461052e57806355f804b31461055757806356b4f6731461058057610246565b806323b872dd146104045780632a55205a1461042d57806332cb6b0c1461046b5780633ccfd60b146104965780633e5a3da4146104ad57610246565b806309e64e9a1161020e57806309e64e9a14610342578063142e1f8f1461036d5780631506e35a1461038457806318160ddd1461039b5780631df85ba3146103c657610246565b806301a1b28b1461024b57806301ffc9a71461027457806306fdde03146102b1578063081812fc146102dc578063095ea7b314610319575b600080fd5b34801561025757600080fd5b50610272600480360381019061026d9190613672565b61093b565b005b34801561028057600080fd5b5061029b6004803603810190610296919061370a565b610a4f565b6040516102a89190613752565b60405180910390f35b3480156102bd57600080fd5b506102c6610a61565b6040516102d391906137fd565b60405180910390f35b3480156102e857600080fd5b5061030360048036038101906102fe9190613855565b610af3565b6040516103109190613891565b60405180910390f35b34801561032557600080fd5b50610340600480360381019061033b91906138ac565b610b39565b005b34801561034e57600080fd5b50610357610b52565b60405161036491906138fb565b60405180910390f35b34801561037957600080fd5b50610382610b58565b005b34801561039057600080fd5b50610399610c34565b005b3480156103a757600080fd5b506103b0610ce8565b6040516103bd91906138fb565b60405180910390f35b3480156103d257600080fd5b506103ed60048036038101906103e89190613855565b610cf9565b6040516103fb929190613916565b60405180910390f35b34801561041057600080fd5b5061042b6004803603810190610426919061393f565b610d4d565b005b34801561043957600080fd5b50610454600480360381019061044f9190613992565b610d9c565b604051610462929190613916565b60405180910390f35b34801561047757600080fd5b50610480610f86565b60405161048d91906138fb565b60405180910390f35b3480156104a257600080fd5b506104ab610f8c565b005b3480156104b957600080fd5b506104c26110d7565b6040516104cf9190613752565b60405180910390f35b3480156104e457600080fd5b506104ed6110ea565b6040516104fa91906138fb565b60405180910390f35b34801561050f57600080fd5b506105186110f0565b6040516105259190613a31565b60405180910390f35b34801561053a57600080fd5b506105556004803603810190610550919061393f565b611102565b005b34801561056357600080fd5b5061057e60048036038101906105799190613b81565b611151565b005b34801561058c57600080fd5b50610595611245565b6040516105a291906137fd565b60405180910390f35b3480156105b757600080fd5b506105d260048036038101906105cd9190613855565b6112d3565b6040516105df9190613891565b60405180910390f35b3480156105f457600080fd5b5061060f600480360381019061060a9190613bca565b611359565b60405161061c91906138fb565b60405180910390f35b34801561063157600080fd5b5061063a611410565b6040516106479190613752565b60405180910390f35b34801561065c57600080fd5b5061067760048036038101906106729190613b81565b611423565b005b34801561068557600080fd5b5061068e611517565b60405161069b91906137fd565b60405180910390f35b6106be60048036038101906106b99190613855565b6115a9565b005b3480156106cc57600080fd5b506106e760048036038101906106e29190613c23565b61179e565b005b3480156106f557600080fd5b506106fe6117b7565b60405161070b91906138fb565b60405180910390f35b34801561072057600080fd5b5061073b60048036038101906107369190613d04565b6117bc565b005b34801561074957600080fd5b5061075261180d565b60405161075f91906138fb565b60405180910390f35b34801561077457600080fd5b5061077d611813565b60405161078a91906138fb565b60405180910390f35b34801561079f57600080fd5b506107ba60048036038101906107b59190613855565b611820565b6040516107c791906137fd565b60405180910390f35b3480156107dc57600080fd5b506107e5611888565b005b3480156107f357600080fd5b506107fc6119eb565b6040516108099190613752565b60405180910390f35b34801561081e57600080fd5b506108276119fe565b005b34801561083557600080fd5b5061083e611ac5565b60405161084b91906138fb565b60405180910390f35b34801561086057600080fd5b50610869611acb565b60405161087691906137fd565b60405180910390f35b34801561088b57600080fd5b50610894611b59565b6040516108a191906137fd565b60405180910390f35b3480156108b657600080fd5b506108d160048036038101906108cc9190613d87565b611beb565b6040516108de9190613752565b60405180910390f35b3480156108f357600080fd5b5061090e60048036038101906109099190613bca565b611c7f565b005b34801561091c57600080fd5b50610925611e59565b60405161093291906138fb565b60405180910390f35b610943611e5f565b73ffffffffffffffffffffffffffffffffffffffff16600960009054906101000a900473ffffffffffffffffffffffffffffffffffffffff1673ffffffffffffffffffffffffffffffffffffffff16146109d2576040517f08c379a00000000000000000000000000000000000000000000000000000000081526004016109c990613e13565b60405180910390fd5b600073ffffffffffffffffffffffffffffffffffffffff168273ffffffffffffffffffffffffffffffffffffffff1603610a41576040517f08c379a0000000000000000000000000000000000000000000000000000000008152600401610a3890613e7f565b60405180910390fd5b610a4b8282611e67565b5050565b6000610a5a82611ffc565b9050919050565b606060008054610a7090613ece565b80601f0160208091040260200160405190810160405280929190818152602001828054610a9c90613ece565b8015610ae95780601f10610abe57610100808354040283529160200191610ae9565b820191906000526020600020905b815481529060010190602001808311610acc57829003601f168201915b5050505050905090565b6000610afe82612076565b6004600083815260200190815260200160002060009054906101000a900473ffffffffffffffffffffffffffffffffffffffff169050919050565b81610b43816120c1565b610b4d83836121be565b505050565b61271081565b610b60611e5f565b73ffffffffffffffffffffffffffffffffffffffff16600960009054906101000a900473ffffffffffffffffffffffffffffffffffffffff1673ffffffffffffffffffffffffffffffffffffffff1614610bef576040517f08c379a0000000000000000000000000000000000000000000000000000000008152600401610be690613e13565b60405180910390fd5b6002600a819055506000600b60006101000a81548160ff021916908315150217905550670c7d713b49da0000600d819055506028600e81905550614e20600c81905550565b610c3c611e5f565b73ffffffffffffffffffffffffffffffffffffffff16600960009054906101000a900473ffffffffffffffffffffffffffffffffffffffff1673ffffffffffffffffffffffffffffffffffffffff1614610ccb576040517f08c379a0000000000000000000000000000000000000000000000000000000008152600401610cc290613e13565b60405180910390fd5b6001600b60016101000a81548160ff021916908315150217905550565b6000610cf460086122d5565b905090565b600f8181548110610d0957600080fd5b90600052602060002090600202016000915090508060000160009054906101000a900473ffffffffffffffffffffffffffffffffffffffff16908060010154905082565b823373ffffffffffffffffffffffffffffffffffffffff168173ffffffffffffffffffffffffffffffffffffffff1614610d8b57610d8a336120c1565b5b610d968484846122e3565b50505050565b6000806000600760008681526020019081526020016000206040518060400160405290816000820160009054906101000a900473ffffffffffffffffffffffffffffffffffffffff1673ffffffffffffffffffffffffffffffffffffffff1673ffffffffffffffffffffffffffffffffffffffff1681526020016000820160149054906101000a90046bffffffffffffffffffffffff166bffffffffffffffffffffffff166bffffffffffffffffffffffff16815250509050600073ffffffffffffffffffffffffffffffffffffffff16816000015173ffffffffffffffffffffffffffffffffffffffff1603610f315760066040518060400160405290816000820160009054906101000a900473ffffffffffffffffffffffffffffffffffffffff1673ffffffffffffffffffffffffffffffffffffffff1673ffffffffffffffffffffffffffffffffffffffff1681526020016000820160149054906101000a90046bffffffffffffffffffffffff166bffffffffffffffffffffffff166bffffffffffffffffffffffff168152505090505b6000610f3b612343565b6bffffffffffffffffffffffff1682602001516bffffffffffffffffffffffff1686610f679190613f2e565b610f719190613f9f565b90508160000151819350935050509250929050565b614e2081565b610f94611e5f565b73ffffffffffffffffffffffffffffffffffffffff16600960009054906101000a900473ffffffffffffffffffffffffffffffffffffffff1673ffffffffffffffffffffffffffffffffffffffff1614611023576040517f08c379a000000000000000000000000000000000000000000000000000000000815260040161101a90613e13565b60405180910390fd5b60004790506000811161106b576040517f08c379a00000000000000000000000000000000000000000000000000000000081526004016110629061401c565b60405180910390fd5b600960009054906101000a900473ffffffffffffffffffffffffffffffffffffffff1673ffffffffffffffffffffffffffffffffffffffff166108fc829081150290604051600060405180830381858888f193505050501580156110d3573d6000803e3d6000fd5b5050565b600b60009054906101000a900460ff1681565b600c5481565b6daaeb6d7670e522a718067333cd4e81565b823373ffffffffffffffffffffffffffffffffffffffff168173ffffffffffffffffffffffffffffffffffffffff16146111405761113f336120c1565b5b61114b84848461234d565b50505050565b611159611e5f565b73ffffffffffffffffffffffffffffffffffffffff16600960009054906101000a900473ffffffffffffffffffffffffffffffffffffffff1673ffffffffffffffffffffffffffffffffffffffff16146111e8576040517f08c379a00000000000000000000000000000000000000000000000000000000081526004016111df90613e13565b60405180910390fd5b60008190506000815103611231576040517f08c379a000000000000000000000000000000000000000000000000000000000815260040161122890614088565b60405180910390fd5b8160109081611240919061424a565b505050565b6011805461125290613ece565b80601f016020809104026020016040519081016040528092919081815260200182805461127e90613ece565b80156112cb5780601f106112a0576101008083540402835291602001916112cb565b820191906000526020600020905b8154815290600101906020018083116112ae57829003601f168201915b505050505081565b6000806112df8361236d565b9050600073ffffffffffffffffffffffffffffffffffffffff168173ffffffffffffffffffffffffffffffffffffffff1603611350576040517f08c379a000000000000000000000000000000000000000000000000000000000815260040161134790614368565b60405180910390fd5b80915050919050565b60008073ffffffffffffffffffffffffffffffffffffffff168273ffffffffffffffffffffffffffffffffffffffff16036113c9576040517f08c379a00000000000000000000000000000000000000000000000000000000081526004016113c0906143fa565b60405180910390fd5b600360008373ffffffffffffffffffffffffffffffffffffffff1673ffffffffffffffffffffffffffffffffffffffff168152602001908152602001600020549050919050565b600b60029054906101000a900460ff1681565b61142b611e5f565b73ffffffffffffffffffffffffffffffffffffffff16600960009054906101000a900473ffffffffffffffffffffffffffffffffffffffff1673ffffffffffffffffffffffffffffffffffffffff16146114ba576040517f08c379a00000000000000000000000000000000000000000000000000000000081526004016114b190613e13565b60405180910390fd5b60008190506000815103611503576040517f08c379a00000000000000000000000000000000000000000000000000000000081526004016114fa90614088565b60405180910390fd5b8160119081611512919061424a565b505050565b60606001805461152690613ece565b80601f016020809104026020016040519081016040528092919081815260200182805461155290613ece565b801561159f5780601f106115745761010080835404028352916020019161159f565b820191906000526020600020905b81548152906001019060200180831161158257829003601f168201915b5050505050905090565b6000816115bc6115b7611e5f565b611359565b6115c6919061441a565b9050600082600d546115d89190613f2e565b9050600e548211611622577f700afc125fa7401d8c1aaf5376e3e8232e94d8664f959a19bd39ff39437f922461160c611e5f565b604051611619919061449a565b60405180910390a15b600e5483611636611631611e5f565b611359565b611640919061441a565b1115611681576040517f08c379a00000000000000000000000000000000000000000000000000000000081526004016116789061453a565b60405180910390fd5b803410156116c4576040517f08c379a00000000000000000000000000000000000000000000000000000000081526004016116bb906145a6565b60405180910390fd5b60005b8381101561175457600c546116dc60086122d5565b111561171d576040517f08c379a000000000000000000000000000000000000000000000000000000000815260040161171490614612565b60405180910390fd5b61172760086123aa565b611741611732611e5f565b61173c60086122d5565b6123c0565b808061174c90614632565b9150506116c7565b507f2bdd59583c8e5cc64165e86af2482dbe93e85c98b355b788aa592465b3f6920e61177e611e5f565b348542604051611791949392919061467a565b60405180910390a1505050565b816117a8816120c1565b6117b283836123de565b505050565b601e81565b833373ffffffffffffffffffffffffffffffffffffffff168173ffffffffffffffffffffffffffffffffffffffff16146117fa576117f9336120c1565b5b611806858585856123f4565b5050505050565b600a5481565b6000600f80549050905090565b606061182b82612076565b6000611835612456565b905060008151116118555760405180602001604052806000815250611880565b8061185f846124e8565b604051602001611870929190614747565b6040516020818303038152906040525b915050919050565b611890611e5f565b73ffffffffffffffffffffffffffffffffffffffff16600960009054906101000a900473ffffffffffffffffffffffffffffffffffffffff1673ffffffffffffffffffffffffffffffffffffffff161461191f576040517f08c379a000000000000000000000000000000000000000000000000000000000815260040161191690613e13565b60405180910390fd5b600b60029054906101000a900460ff161561196f576040517f08c379a0000000000000000000000000000000000000000000000000000000008152600401611966906147e8565b60405180910390fd5b60005b601e8110156119cd5761198560086123aa565b6119ba600960009054906101000a900473ffffffffffffffffffffffffffffffffffffffff166119b560086122d5565b6123c0565b80806119c590614632565b915050611972565b506001600b60026101000a81548160ff021916908315150217905550565b600b60019054906101000a900460ff1681565b611a06611e5f565b73ffffffffffffffffffffffffffffffffffffffff16600960009054906101000a900473ffffffffffffffffffffffffffffffffffffffff1673ffffffffffffffffffffffffffffffffffffffff1614611a95576040517f08c379a0000000000000000000000000000000000000000000000000000000008152600401611a8c90613e13565b60405180910390fd5b600c54611aa260086122d5565b03611ac3576001600b60006101000a81548160ff0219169083151502179055505b565b600e5481565b60108054611ad890613ece565b80601f0160208091040260200160405190810160405280929190818152602001828054611b0490613ece565b8015611b515780601f10611b2657610100808354040283529160200191611b51565b820191906000526020600020905b815481529060010190602001808311611b3457829003601f168201915b505050505081565b606060118054611b6890613ece565b80601f0160208091040260200160405190810160405280929190818152602001828054611b9490613ece565b8015611be15780601f10611bb657610100808354040283529160200191611be1565b820191906000526020600020905b815481529060010190602001808311611bc457829003601f168201915b5050505050905090565b6000600560008473ffffffffffffffffffffffffffffffffffffffff1673ffffffffffffffffffffffffffffffffffffffff16815260200190815260200160002060008373ffffffffffffffffffffffffffffffffffffffff1673ffffffffffffffffffffffffffffffffffffffff16815260200190815260200160002060009054906101000a900460ff16905092915050565b611c87611e5f565b73ffffffffffffffffffffffffffffffffffffffff16600960009054906101000a900473ffffffffffffffffffffffffffffffffffffffff1673ffffffffffffffffffffffffffffffffffffffff1614611d16576040517f08c379a0000000000000000000000000000000000000000000000000000000008152600401611d0d90613e13565b60405180910390fd5b600073ffffffffffffffffffffffffffffffffffffffff168173ffffffffffffffffffffffffffffffffffffffff1603611d85576040517f08c379a0000000000000000000000000000000000000000000000000000000008152600401611d7c90614854565b60405180910390fd5b600960009054906101000a900473ffffffffffffffffffffffffffffffffffffffff1673ffffffffffffffffffffffffffffffffffffffff168173ffffffffffffffffffffffffffffffffffffffff1603611e15576040517f08c379a0000000000000000000000000000000000000000000000000000000008152600401611e0c906148c0565b60405180910390fd5b80600960006101000a81548173ffffffffffffffffffffffffffffffffffffffff021916908373ffffffffffffffffffffffffffffffffffffffff16021790555050565b600d5481565b600033905090565b611e6f612343565b6bffffffffffffffffffffffff16816bffffffffffffffffffffffff161115611ecd576040517f08c379a0000000000000000000000000000000000000000000000000000000008152600401611ec490614952565b60405180910390fd5b600073ffffffffffffffffffffffffffffffffffffffff168273ffffffffffffffffffffffffffffffffffffffff1603611f3c576040517f08c379a0000000000000000000000000000000000000000000000000000000008152600401611f33906149be565b60405180910390fd5b60405180604001604052808373ffffffffffffffffffffffffffffffffffffffff168152602001826bffffffffffffffffffffffff16815250600660008201518160000160006101000a81548173ffffffffffffffffffffffffffffffffffffffff021916908373ffffffffffffffffffffffffffffffffffffffff16021790555060208201518160000160146101000a8154816bffffffffffffffffffffffff02191690836bffffffffffffffffffffffff1602179055509050505050565b60007f2a55205a000000000000000000000000000000000000000000000000000000007bffffffffffffffffffffffffffffffffffffffffffffffffffffffff1916827bffffffffffffffffffffffffffffffffffffffffffffffffffffffff1916148061206f575061206e826125b6565b5b9050919050565b61207f81612698565b6120be576040517f08c379a00000000000000000000000000000000000000000000000000000000081526004016120b590614368565b60405180910390fd5b50565b60006daaeb6d7670e522a718067333cd4e73ffffffffffffffffffffffffffffffffffffffff163b11156121bb576daaeb6d7670e522a718067333cd4e73ffffffffffffffffffffffffffffffffffffffff1663c617113430836040518363ffffffff1660e01b81526004016121389291906149de565b602060405180830381865afa158015612155573d6000803e3d6000fd5b505050506040513d601f19601f820116820180604052508101906121799190614a1c565b6121ba57806040517fede71dcc0000000000000000000000000000000000000000000000000000000081526004016121b19190613891565b60405180910390fd5b5b50565b60006121c9826112d3565b90508073ffffffffffffffffffffffffffffffffffffffff168373ffffffffffffffffffffffffffffffffffffffff1603612239576040517f08c379a000000000000000000000000000000000000000000000000000000000815260040161223090614abb565b60405180910390fd5b8073ffffffffffffffffffffffffffffffffffffffff16612258611e5f565b73ffffffffffffffffffffffffffffffffffffffff161480612287575061228681612281611e5f565b611beb565b5b6122c6576040517f08c379a00000000000000000000000000000000000000000000000000000000081526004016122bd90614b4d565b60405180910390fd5b6122d083836126d9565b505050565b600081600001549050919050565b6122f46122ee611e5f565b82612792565b612333576040517f08c379a000000000000000000000000000000000000000000000000000000000815260040161232a90614bdf565b60405180910390fd5b61233e838383612827565b505050565b6000612710905090565b612368838383604051806020016040528060008152506117bc565b505050565b60006002600083815260200190815260200160002060009054906101000a900473ffffffffffffffffffffffffffffffffffffffff169050919050565b6001816000016000828254019250508190555050565b6123da828260405180602001604052806000815250612b20565b5050565b6123f06123e9611e5f565b8383612b7b565b5050565b6124056123ff611e5f565b83612792565b612444576040517f08c379a000000000000000000000000000000000000000000000000000000000815260040161243b90614bdf565b60405180910390fd5b61245084848484612ce7565b50505050565b60606010805461246590613ece565b80601f016020809104026020016040519081016040528092919081815260200182805461249190613ece565b80156124de5780601f106124b3576101008083540402835291602001916124de565b820191906000526020600020905b8154815290600101906020018083116124c157829003601f168201915b5050505050905090565b6060600060016124f784612d43565b01905060008167ffffffffffffffff81111561251657612515613a56565b5b6040519080825280601f01601f1916602001820160405280156125485781602001600182028036833780820191505090505b509050600082602001820190505b6001156125ab578080600190039150507f3031323334353637383961626364656600000000000000000000000000000000600a86061a8153600a858161259f5761259e613f70565b5b04945060008503612556575b819350505050919050565b60007f80ac58cd000000000000000000000000000000000000000000000000000000007bffffffffffffffffffffffffffffffffffffffffffffffffffffffff1916827bffffffffffffffffffffffffffffffffffffffffffffffffffffffff1916148061268157507f5b5e139f000000000000000000000000000000000000000000000000000000007bffffffffffffffffffffffffffffffffffffffffffffffffffffffff1916827bffffffffffffffffffffffffffffffffffffffffffffffffffffffff1916145b80612691575061269082612e96565b5b9050919050565b60008073ffffffffffffffffffffffffffffffffffffffff166126ba8361236d565b73ffffffffffffffffffffffffffffffffffffffff1614159050919050565b816004600083815260200190815260200160002060006101000a81548173ffffffffffffffffffffffffffffffffffffffff021916908373ffffffffffffffffffffffffffffffffffffffff160217905550808273ffffffffffffffffffffffffffffffffffffffff1661274c836112d3565b73ffffffffffffffffffffffffffffffffffffffff167f8c5be1e5ebec7d5bd14f71427d1e84f3dd0314c0f7b2291e5b200ac8c7c3b92560405160405180910390a45050565b60008061279e836112d3565b90508073ffffffffffffffffffffffffffffffffffffffff168473ffffffffffffffffffffffffffffffffffffffff1614806127e057506127df8185611beb565b5b8061281e57508373ffffffffffffffffffffffffffffffffffffffff1661280684610af3565b73ffffffffffffffffffffffffffffffffffffffff16145b91505092915050565b8273ffffffffffffffffffffffffffffffffffffffff16612847826112d3565b73ffffffffffffffffffffffffffffffffffffffff161461289d576040517f08c379a000000000000000000000000000000000000000000000000000000000815260040161289490614c71565b60405180910390fd5b600073ffffffffffffffffffffffffffffffffffffffff168273ffffffffffffffffffffffffffffffffffffffff160361290c576040517f08c379a000000000000000000000000000000000000000000000000000000000815260040161290390614d03565b60405180910390fd5b6129198383836001612f00565b8273ffffffffffffffffffffffffffffffffffffffff16612939826112d3565b73ffffffffffffffffffffffffffffffffffffffff161461298f576040517f08c379a000000000000000000000000000000000000000000000000000000000815260040161298690614c71565b60405180910390fd5b6004600082815260200190815260200160002060006101000a81549073ffffffffffffffffffffffffffffffffffffffff02191690556001600360008573ffffffffffffffffffffffffffffffffffffffff1673ffffffffffffffffffffffffffffffffffffffff168152602001908152602001600020600082825403925050819055506001600360008473ffffffffffffffffffffffffffffffffffffffff1673ffffffffffffffffffffffffffffffffffffffff16815260200190815260200160002060008282540192505081905550816002600083815260200190815260200160002060006101000a81548173ffffffffffffffffffffffffffffffffffffffff021916908373ffffffffffffffffffffffffffffffffffffffff160217905550808273ffffffffffffffffffffffffffffffffffffffff168473ffffffffffffffffffffffffffffffffffffffff167fddf252ad1be2c89b69c2b068fc378daa952ba7f163c4a11628f55a4df523b3ef60405160405180910390a4612b1b8383836001613026565b505050565b612b2a83836131ef565b612b37600084848461340c565b612b76576040517f08c379a0000000000000000000000000000000000000000000000000000000008152600401612b6d90614d95565b60405180910390fd5b505050565b8173ffffffffffffffffffffffffffffffffffffffff168373ffffffffffffffffffffffffffffffffffffffff1603612be9576040517f08c379a0000000000000000000000000000000000000000000000000000000008152600401612be090614e01565b60405180910390fd5b80600560008573ffffffffffffffffffffffffffffffffffffffff1673ffffffffffffffffffffffffffffffffffffffff16815260200190815260200160002060008473ffffffffffffffffffffffffffffffffffffffff1673ffffffffffffffffffffffffffffffffffffffff16815260200190815260200160002060006101000a81548160ff0219169083151502179055508173ffffffffffffffffffffffffffffffffffffffff168373ffffffffffffffffffffffffffffffffffffffff167f17307eab39ab6107e8899845ad3d59bd9653f200f220920489ca2b5937696c3183604051612cda9190613752565b60405180910390a3505050565b612cf2848484612827565b612cfe8484848461340c565b612d3d576040517f08c379a0000000000000000000000000000000000000000000000000000000008152600401612d3490614d95565b60405180910390fd5b50505050565b600080600090507a184f03e93ff9f4daa797ed6e38ed64bf6a1f0100000000000000008310612da1577a184f03e93ff9f4daa797ed6e38ed64bf6a1f0100000000000000008381612d9757612d96613f70565b5b0492506040810190505b6d04ee2d6d415b85acef81000000008310612dde576d04ee2d6d415b85acef81000000008381612dd457612dd3613f70565b5b0492506020810190505b662386f26fc100008310612e0d57662386f26fc100008381612e0357612e02613f70565b5b0492506010810190505b6305f5e1008310612e36576305f5e1008381612e2c57612e2b613f70565b5b0492506008810190505b6127108310612e5b576127108381612e5157612e50613f70565b5b0492506004810190505b60648310612e7e5760648381612e7457612e73613f70565b5b0492506002810190505b600a8310612e8d576001810190505b80915050919050565b60007f01ffc9a7000000000000000000000000000000000000000000000000000000007bffffffffffffffffffffffffffffffffffffffffffffffffffffffff1916827bffffffffffffffffffffffffffffffffffffffffffffffffffffffff1916149050919050565b600181111561302057600073ffffffffffffffffffffffffffffffffffffffff168473ffffffffffffffffffffffffffffffffffffffff1614612f945780600360008673ffffffffffffffffffffffffffffffffffffffff1673ffffffffffffffffffffffffffffffffffffffff1681526020019081526020016000206000828254612f8c9190614e21565b925050819055505b600073ffffffffffffffffffffffffffffffffffffffff168373ffffffffffffffffffffffffffffffffffffffff161461301f5780600360008573ffffffffffffffffffffffffffffffffffffffff1673ffffffffffffffffffffffffffffffffffffffff1681526020019081526020016000206000828254613017919061441a565b925050819055505b5b50505050565b61303284848484613593565b60008073ffffffffffffffffffffffffffffffffffffffff168573ffffffffffffffffffffffffffffffffffffffff161415801561309d5750600073ffffffffffffffffffffffffffffffffffffffff168473ffffffffffffffffffffffffffffffffffffffff1614155b90506000600960009054906101000a900473ffffffffffffffffffffffffffffffffffffffff1673ffffffffffffffffffffffffffffffffffffffff168673ffffffffffffffffffffffffffffffffffffffff161415905060008280156131015750815b80156131195750600b60019054906101000a900460ff165b905080156131e6576000600b60016101000a81548160ff021916908315150217905550600f60405180604001604052808973ffffffffffffffffffffffffffffffffffffffff16815260200142815250908060018154018082558091505060019003906000526020600020906002020160009091909190915060008201518160000160006101000a81548173ffffffffffffffffffffffffffffffffffffffff021916908373ffffffffffffffffffffffffffffffffffffffff1602179055506020820151816001015550505b50505050505050565b600073ffffffffffffffffffffffffffffffffffffffff168273ffffffffffffffffffffffffffffffffffffffff160361325e576040517f08c379a000000000000000000000000000000000000000000000000000000000815260040161325590614ea1565b60405180910390fd5b61326781612698565b156132a7576040517f08c379a000000000000000000000000000000000000000000000000000000000815260040161329e90614f0d565b60405180910390fd5b6132b5600083836001612f00565b6132be81612698565b156132fe576040517f08c379a00000000000000000000000000000000000000000000000000000000081526004016132f590614f0d565b60405180910390fd5b6001600360008473ffffffffffffffffffffffffffffffffffffffff1673ffffffffffffffffffffffffffffffffffffffff16815260200190815260200160002060008282540192505081905550816002600083815260200190815260200160002060006101000a81548173ffffffffffffffffffffffffffffffffffffffff021916908373ffffffffffffffffffffffffffffffffffffffff160217905550808273ffffffffffffffffffffffffffffffffffffffff16600073ffffffffffffffffffffffffffffffffffffffff167fddf252ad1be2c89b69c2b068fc378daa952ba7f163c4a11628f55a4df523b3ef60405160405180910390a4613408600083836001613026565b5050565b600061342d8473ffffffffffffffffffffffffffffffffffffffff16613599565b15613586578373ffffffffffffffffffffffffffffffffffffffff1663150b7a02613456611e5f565b8786866040518563ffffffff1660e01b81526004016134789493929190614f82565b6020604051808303816000875af19250505080156134b457506040513d601f19601f820116820180604052508101906134b19190614fe3565b60015b613536573d80600081146134e4576040519150601f19603f3d011682016040523d82523d6000602084013e6134e9565b606091505b50600081510361352e576040517f08c379a000000000000000000000000000000000000000000000000000000000815260040161352590614d95565b60405180910390fd5b805181602001fd5b63150b7a0260e01b7bffffffffffffffffffffffffffffffffffffffffffffffffffffffff1916817bffffffffffffffffffffffffffffffffffffffffffffffffffffffff19161491505061358b565b600190505b949350505050565b50505050565b6000808273ffffffffffffffffffffffffffffffffffffffff163b119050919050565b6000604051905090565b600080fd5b600080fd5b600073ffffffffffffffffffffffffffffffffffffffff82169050919050565b60006135fb826135d0565b9050919050565b61360b816135f0565b811461361657600080fd5b50565b60008135905061362881613602565b92915050565b60006bffffffffffffffffffffffff82169050919050565b61364f8161362e565b811461365a57600080fd5b50565b60008135905061366c81613646565b92915050565b60008060408385031215613689576136886135c6565b5b600061369785828601613619565b92505060206136a88582860161365d565b9150509250929050565b60007fffffffff0000000000000000000000000000000000000000000000000000000082169050919050565b6136e7816136b2565b81146136f257600080fd5b50565b600081359050613704816136de565b92915050565b6000602082840312156137205761371f6135c6565b5b600061372e848285016136f5565b91505092915050565b60008115159050919050565b61374c81613737565b82525050565b60006020820190506137676000830184613743565b92915050565b600081519050919050565b600082825260208201905092915050565b60005b838110156137a757808201518184015260208101905061378c565b60008484015250505050565b6000601f19601f8301169050919050565b60006137cf8261376d565b6137d98185613778565b93506137e9818560208601613789565b6137f2816137b3565b840191505092915050565b6000602082019050818103600083015261381781846137c4565b905092915050565b6000819050919050565b6138328161381f565b811461383d57600080fd5b50565b60008135905061384f81613829565b92915050565b60006020828403121561386b5761386a6135c6565b5b600061387984828501613840565b91505092915050565b61388b816135f0565b82525050565b60006020820190506138a66000830184613882565b92915050565b600080604083850312156138c3576138c26135c6565b5b60006138d185828601613619565b92505060206138e285828601613840565b9150509250929050565b6138f58161381f565b82525050565b600060208201905061391060008301846138ec565b92915050565b600060408201905061392b6000830185613882565b61393860208301846138ec565b9392505050565b600080600060608486031215613958576139576135c6565b5b600061396686828701613619565b935050602061397786828701613619565b925050604061398886828701613840565b9150509250925092565b600080604083850312156139a9576139a86135c6565b5b60006139b785828601613840565b92505060206139c885828601613840565b9150509250929050565b6000819050919050565b60006139f76139f26139ed846135d0565b6139d2565b6135d0565b9050919050565b6000613a09826139dc565b9050919050565b6000613a1b826139fe565b9050919050565b613a2b81613a10565b82525050565b6000602082019050613a466000830184613a22565b92915050565b600080fd5b600080fd5b7f4e487b7100000000000000000000000000000000000000000000000000000000600052604160045260246000fd5b613a8e826137b3565b810181811067ffffffffffffffff82111715613aad57613aac613a56565b5b80604052505050565b6000613ac06135bc565b9050613acc8282613a85565b919050565b600067ffffffffffffffff821115613aec57613aeb613a56565b5b613af5826137b3565b9050602081019050919050565b82818337600083830152505050565b6000613b24613b1f84613ad1565b613ab6565b905082815260208101848484011115613b4057613b3f613a51565b5b613b4b848285613b02565b509392505050565b600082601f830112613b6857613b67613a4c565b5b8135613b78848260208601613b11565b91505092915050565b600060208284031215613b9757613b966135c6565b5b600082013567ffffffffffffffff811115613bb557613bb46135cb565b5b613bc184828501613b53565b91505092915050565b600060208284031215613be057613bdf6135c6565b5b6000613bee84828501613619565b91505092915050565b613c0081613737565b8114613c0b57600080fd5b50565b600081359050613c1d81613bf7565b92915050565b60008060408385031215613c3a57613c396135c6565b5b6000613c4885828601613619565b9250506020613c5985828601613c0e565b9150509250929050565b600067ffffffffffffffff821115613c7e57613c7d613a56565b5b613c87826137b3565b9050602081019050919050565b6000613ca7613ca284613c63565b613ab6565b905082815260208101848484011115613cc357613cc2613a51565b5b613cce848285613b02565b509392505050565b600082601f830112613ceb57613cea613a4c565b5b8135613cfb848260208601613c94565b91505092915050565b60008060008060808587031215613d1e57613d1d6135c6565b5b6000613d2c87828801613619565b9450506020613d3d87828801613619565b9350506040613d4e87828801613840565b925050606085013567ffffffffffffffff811115613d6f57613d6e6135cb565b5b613d7b87828801613cd6565b91505092959194509250565b60008060408385031215613d9e57613d9d6135c6565b5b6000613dac85828601613619565b9250506020613dbd85828601613619565b9150509250929050565b7f43616c6c6572206973206e6f7420746865206f776e6572210000000000000000600082015250565b6000613dfd601883613778565b9150613e0882613dc7565b602082019050919050565b60006020820190508181036000830152613e2c81613df0565b9050919050565b7f52656365697665722063616e6e6f742062652061207830206164647265737321600082015250565b6000613e69602083613778565b9150613e7482613e33565b602082019050919050565b60006020820190508181036000830152613e9881613e5c565b9050919050565b7f4e487b7100000000000000000000000000000000000000000000000000000000600052602260045260246000fd5b60006002820490506001821680613ee657607f821691505b602082108103613ef957613ef8613e9f565b5b50919050565b7f4e487b7100000000000000000000000000000000000000000000000000000000600052601160045260246000fd5b6000613f398261381f565b9150613f448361381f565b9250828202613f528161381f565b91508282048414831517613f6957613f68613eff565b5b5092915050565b7f4e487b7100000000000000000000000000000000000000000000000000000000600052601260045260246000fd5b6000613faa8261381f565b9150613fb58361381f565b925082613fc557613fc4613f70565b5b828204905092915050565b7f496e73756666696369656e742046756e64732100000000000000000000000000600082015250565b6000614006601383613778565b915061401182613fd0565b602082019050919050565b6000602082019050818103600083015261403581613ff9565b9050919050565b7f496e76616c696420555249210000000000000000000000000000000000000000600082015250565b6000614072600c83613778565b915061407d8261403c565b602082019050919050565b600060208201905081810360008301526140a181614065565b9050919050565b60008190508160005260206000209050919050565b60006020601f8301049050919050565b600082821b905092915050565b60006008830261410a7fffffffffffffffffffffffffffffffffffffffffffffffffffffffffffffffff826140cd565b61411486836140cd565b95508019841693508086168417925050509392505050565b600061414761414261413d8461381f565b6139d2565b61381f565b9050919050565b6000819050919050565b6141618361412c565b61417561416d8261414e565b8484546140da565b825550505050565b600090565b61418a61417d565b614195818484614158565b505050565b5b818110156141b9576141ae600082614182565b60018101905061419b565b5050565b601f8211156141fe576141cf816140a8565b6141d8846140bd565b810160208510156141e7578190505b6141fb6141f3856140bd565b83018261419a565b50505b505050565b600082821c905092915050565b600061422160001984600802614203565b1980831691505092915050565b600061423a8383614210565b9150826002028217905092915050565b6142538261376d565b67ffffffffffffffff81111561426c5761426b613a56565b5b6142768254613ece565b6142818282856141bd565b600060209050601f8311600181146142b457600084156142a2578287015190505b6142ac858261422e565b865550614314565b601f1984166142c2866140a8565b60005b828110156142ea578489015182556001820191506020850194506020810190506142c5565b868310156143075784890151614303601f891682614210565b8355505b6001600288020188555050505b505050505050565b7f4552433732313a20696e76616c696420746f6b656e2049440000000000000000600082015250565b6000614352601883613778565b915061435d8261431c565b602082019050919050565b6000602082019050818103600083015261438181614345565b9050919050565b7f4552433732313a2061646472657373207a65726f206973206e6f74206120766160008201527f6c6964206f776e65720000000000000000000000000000000000000000000000602082015250565b60006143e4602983613778565b91506143ef82614388565b604082019050919050565b60006020820190508181036000830152614413816143d7565b9050919050565b60006144258261381f565b91506144308361381f565b925082820190508082111561444857614447613eff565b5b92915050565b7f4c494d49545f4558434545444544000000000000000000000000000000000000600082015250565b6000614484600e83613778565b915061448f8261444e565b602082019050919050565b60006040820190506144af6000830184613882565b81810360208301526144c081614477565b905092915050565b7f596f75206861766520657863656564656420746865205055524348415345204c60008201527f494d49542e000000000000000000000000000000000000000000000000000000602082015250565b6000614524602583613778565b915061452f826144c8565b604082019050919050565b6000602082019050818103600083015261455381614517565b9050919050565b7f496e636f72726563742045746865722076616c75652073656e742e0000000000600082015250565b6000614590601b83613778565b915061459b8261455a565b602082019050919050565b600060208201905081810360008301526145bf81614583565b9050919050565b7f49276d20736f727279207765207265616368656420746865206361702e000000600082015250565b60006145fc601d83613778565b9150614607826145c6565b602082019050919050565b6000602082019050818103600083015261462b816145ef565b9050919050565b600061463d8261381f565b91507fffffffffffffffffffffffffffffffffffffffffffffffffffffffffffffffff820361466f5761466e613eff565b5b600182019050919050565b600060808201905061468f6000830187613882565b61469c60208301866138ec565b6146a960408301856138ec565b6146b660608301846138ec565b95945050505050565b600081905092915050565b60006146d58261376d565b6146df81856146bf565b93506146ef818560208601613789565b80840191505092915050565b7f2e6a736f6e000000000000000000000000000000000000000000000000000000600082015250565b60006147316005836146bf565b915061473c826146fb565b600582019050919050565b600061475382856146ca565b915061475f82846146ca565b915061476a82614724565b91508190509392505050565b7f4f776e6572732068617320616c7265616479206d696e7465642068697320736860008201527f6172652100000000000000000000000000000000000000000000000000000000602082015250565b60006147d2602483613778565b91506147dd82614776565b604082019050919050565b60006020820190508181036000830152614801816147c5565b9050919050565b7f496e76616c696420416464726573732100000000000000000000000000000000600082015250565b600061483e601083613778565b915061484982614808565b602082019050919050565b6000602082019050818103600083015261486d81614831565b9050919050565b7f596f752061726520616c726561647920746865206f776e657221000000000000600082015250565b60006148aa601a83613778565b91506148b582614874565b602082019050919050565b600060208201905081810360008301526148d98161489d565b9050919050565b7f455243323938313a20726f79616c7479206665652077696c6c2065786365656460008201527f2073616c65507269636500000000000000000000000000000000000000000000602082015250565b600061493c602a83613778565b9150614947826148e0565b604082019050919050565b6000602082019050818103600083015261496b8161492f565b9050919050565b7f455243323938313a20696e76616c696420726563656976657200000000000000600082015250565b60006149a8601983613778565b91506149b382614972565b602082019050919050565b600060208201905081810360008301526149d78161499b565b9050919050565b60006040820190506149f36000830185613882565b614a006020830184613882565b9392505050565b600081519050614a1681613bf7565b92915050565b600060208284031215614a3257614a316135c6565b5b6000614a4084828501614a07565b91505092915050565b7f4552433732313a20617070726f76616c20746f2063757272656e74206f776e6560008201527f7200000000000000000000000000000000000000000000000000000000000000602082015250565b6000614aa5602183613778565b9150614ab082614a49565b604082019050919050565b60006020820190508181036000830152614ad481614a98565b9050919050565b7f4552433732313a20617070726f76652063616c6c6572206973206e6f7420746f60008201527f6b656e206f776e6572206f7220617070726f76656420666f7220616c6c000000602082015250565b6000614b37603d83613778565b9150614b4282614adb565b604082019050919050565b60006020820190508181036000830152614b6681614b2a565b9050919050565b7f4552433732313a2063616c6c6572206973206e6f7420746f6b656e206f776e6560008201527f72206f7220617070726f76656400000000000000000000000000000000000000602082015250565b6000614bc9602d83613778565b9150614bd482614b6d565b604082019050919050565b60006020820190508181036000830152614bf881614bbc565b9050919050565b7f4552433732313a207472616e736665722066726f6d20696e636f72726563742060008201527f6f776e6572000000000000000000000000000000000000000000000000000000602082015250565b6000614c5b602583613778565b9150614c6682614bff565b604082019050919050565b60006020820190508181036000830152614c8a81614c4e565b9050919050565b7f4552433732313a207472616e7366657220746f20746865207a65726f2061646460008201527f7265737300000000000000000000000000000000000000000000000000000000602082015250565b6000614ced602483613778565b9150614cf882614c91565b604082019050919050565b60006020820190508181036000830152614d1c81614ce0565b9050919050565b7f4552433732313a207472616e7366657220746f206e6f6e20455243373231526560008201527f63656976657220696d706c656d656e7465720000000000000000000000000000602082015250565b6000614d7f603283613778565b9150614d8a82614d23565b604082019050919050565b60006020820190508181036000830152614dae81614d72565b9050919050565b7f4552433732313a20617070726f766520746f2063616c6c657200000000000000600082015250565b6000614deb601983613778565b9150614df682614db5565b602082019050919050565b60006020820190508181036000830152614e1a81614dde565b9050919050565b6000614e2c8261381f565b9150614e378361381f565b9250828203905081811115614e4f57614e4e613eff565b5b92915050565b7f4552433732313a206d696e7420746f20746865207a65726f2061646472657373600082015250565b6000614e8b602083613778565b9150614e9682614e55565b602082019050919050565b60006020820190508181036000830152614eba81614e7e565b9050919050565b7f4552433732313a20746f6b656e20616c7265616479206d696e74656400000000600082015250565b6000614ef7601c83613778565b9150614f0282614ec1565b602082019050919050565b60006020820190508181036000830152614f2681614eea565b9050919050565b600081519050919050565b600082825260208201905092915050565b6000614f5482614f2d565b614f5e8185614f38565b9350614f6e818560208601613789565b614f77816137b3565b840191505092915050565b6000608082019050614f976000830187613882565b614fa46020830186613882565b614fb160408301856138ec565b8181036060830152614fc38184614f49565b905095945050505050565b600081519050614fdd816136de565b92915050565b600060208284031215614ff957614ff86135c6565b5b600061500784828501614fce565b9150509291505056fea2646970667358221220f8b4382bd31df659b289ec90d8a1ec8d72d4ac3059878d32d48241f8b484eb5564736f6c63430008110033697066733a2f2f516d64634c596d714577756e57446646717779476979776e4d555662633857656b457541583366705657346670612f68747470733a2f2f697066732e66696c65626173652e696f2f697066732f516d6168356e3967656a476743707a4b72674b717833316a73526559624378757936656e335975747638694b4b78",
  "linkReferences": {},
  "deployedLinkReferences": {}
}