{
  "_format": "hh-sol-artifact-1",
  "contractName": "PsyDucks",
  "sourceName": "contracts/psyducks.sol",
  "abi": [
    {
      "inputs": [],
      "stateMutability": "nonpayable",
      "type": "constructor"
    },
    {
      "inputs": [
        {
          "internalType": "address",
          "name": "operator",
          "type": "address"
        }
      ],
      "name": "OperatorNotAllowed",
      "type": "error"
    },
    {
      "anonymous": false,
      "inputs": [
        {
          "indexed": true,
          "internalType": "address",
          "name": "owner",
          "type": "address"
        },
        {
          "indexed": true,
          "internalType": "address",
          "name": "approved",
          "type": "address"
        },
        {
          "indexed": true,
          "internalType": "uint256",
          "name": "tokenId",
          "type": "uint256"
        }
      ],
      "name": "Approval",
      "type": "event"
    },
    {
      "anonymous": false,
      "inputs": [
        {
          "indexed": true,
          "internalType": "address",
          "name": "owner",
          "type": "address"
        },
        {
          "indexed": true,
          "internalType": "address",
          "name": "operator",
          "type": "address"
        },
        {
          "indexed": false,
          "internalType": "bool",
          "name": "approved",
          "type": "bool"
        }
      ],
      "name": "ApprovalForAll",
      "type": "event"
    },
    {
      "anonymous": false,
      "inputs": [
        {
          "indexed": false,
          "internalType": "address",
          "name": "sentTo",
          "type": "address"
        },
        {
          "indexed": false,
          "internalType": "uint256",
          "name": "amount",
          "type": "uint256"
        },
        {
          "indexed": false,
          "internalType": "uint256",
          "name": "timestamp",
          "type": "uint256"
        }
      ],
      "name": "Cashback",
      "type": "event"
    },
    {
      "anonymous": false,
      "inputs": [
        {
          "indexed": false,
          "internalType": "address",
          "name": "from",
          "type": "address"
        },
        {
          "indexed": false,
          "internalType": "string",
          "name": "message",
          "type": "string"
        }
      ],
      "name": "LimitExceeded",
      "type": "event"
    },
    {
      "anonymous": false,
      "inputs": [
        {
          "indexed": false,
          "internalType": "address",
          "name": "purchasedBy",
          "type": "address"
        },
        {
          "indexed": false,
          "internalType": "uint256",
          "name": "amount",
          "type": "uint256"
        },
        {
          "indexed": false,
          "internalType": "uint256",
          "name": "number",
          "type": "uint256"
        },
        {
          "indexed": false,
          "internalType": "uint256",
          "name": "timestamp",
          "type": "uint256"
        }
      ],
      "name": "Purchased",
      "type": "event"
    },
    {
      "anonymous": false,
      "inputs": [
        {
          "indexed": true,
          "internalType": "address",
          "name": "from",
          "type": "address"
        },
        {
          "indexed": true,
          "internalType": "address",
          "name": "to",
          "type": "address"
        },
        {
          "indexed": true,
          "internalType": "uint256",
          "name": "tokenId",
          "type": "uint256"
        }
      ],
      "name": "Transfer",
      "type": "event"
    },
    {
      "inputs": [],
      "name": "BASE_URI",
      "outputs": [
        {
          "internalType": "string",
          "name": "",
          "type": "string"
        }
      ],
      "stateMutability": "view",
      "type": "function"
    },
    {
      "inputs": [],
      "name": "CONTRACT_URI",
      "outputs": [
        {
          "internalType": "string",
          "name": "",
          "type": "string"
        }
      ],
      "stateMutability": "view",
      "type": "function"
    },
    {
      "inputs": [],
      "name": "INIT_CASH_BACK",
      "outputs": [
        {
          "internalType": "bool",
          "name": "",
          "type": "bool"
        }
      ],
      "stateMutability": "view",
      "type": "function"
    },
    {
      "inputs": [],
      "name": "MAX_CONTRACT_VALUE",
      "outputs": [
        {
          "internalType": "uint256",
          "name": "",
          "type": "uint256"
        }
      ],
      "stateMutability": "view",
      "type": "function"
    },
    {
      "inputs": [],
      "name": "MAX_INITIAL_SUPPLY",
      "outputs": [
        {
          "internalType": "uint256",
          "name": "",
          "type": "uint256"
        }
      ],
      "stateMutability": "view",
      "type": "function"
    },
    {
      "inputs": [],
      "name": "MAX_MINTABLE",
      "outputs": [
        {
          "internalType": "uint256",
          "name": "",
          "type": "uint256"
        }
      ],
      "stateMutability": "view",
      "type": "function"
    },
    {
      "inputs": [],
      "name": "MAX_SUPPLY",
      "outputs": [
        {
          "internalType": "uint256",
          "name": "",
          "type": "uint256"
        }
      ],
      "stateMutability": "view",
      "type": "function"
    },
    {
      "inputs": [],
      "name": "MIN_CASH_BACK_VALUE",
      "outputs": [
        {
          "internalType": "uint256",
          "name": "",
          "type": "uint256"
        }
      ],
      "stateMutability": "view",
      "type": "function"
    },
    {
      "inputs": [],
      "name": "OPERATOR_FILTER_REGISTRY",
      "outputs": [
        {
          "internalType": "contract IOperatorFilterRegistry",
          "name": "",
          "type": "address"
        }
      ],
      "stateMutability": "view",
      "type": "function"
    },
    {
      "inputs": [],
      "name": "OWNERS_SHARE",
      "outputs": [
        {
          "internalType": "uint256",
          "name": "",
          "type": "uint256"
        }
      ],
      "stateMutability": "view",
      "type": "function"
    },
    {
      "inputs": [],
      "name": "OWNERS_SHARE_MINTED",
      "outputs": [
        {
          "internalType": "bool",
          "name": "",
          "type": "bool"
        }
      ],
      "stateMutability": "view",
      "type": "function"
    },
    {
      "inputs": [],
      "name": "PHASE",
      "outputs": [
        {
          "internalType": "uint256",
          "name": "",
          "type": "uint256"
        }
      ],
      "stateMutability": "view",
      "type": "function"
    },
    {
      "inputs": [],
      "name": "PURCHASE_LIMIT",
      "outputs": [
        {
          "internalType": "uint256",
          "name": "",
          "type": "uint256"
        }
      ],
      "stateMutability": "view",
      "type": "function"
    },
    {
      "inputs": [],
      "name": "SOLD_OUT",
      "outputs": [
        {
          "internalType": "bool",
          "name": "",
          "type": "bool"
        }
      ],
      "stateMutability": "view",
      "type": "function"
    },
    {
      "inputs": [
        {
          "internalType": "uint256",
          "name": "",
          "type": "uint256"
        }
      ],
      "name": "WINNERS",
      "outputs": [
        {
          "internalType": "address",
          "name": "_address",
          "type": "address"
        },
        {
          "internalType": "uint256",
          "name": "amount",
          "type": "uint256"
        },
        {
          "internalType": "uint256",
          "name": "timestamp",
          "type": "uint256"
        }
      ],
      "stateMutability": "view",
      "type": "function"
    },
    {
      "inputs": [],
      "name": "_PRICE",
      "outputs": [
        {
          "internalType": "uint256",
          "name": "",
          "type": "uint256"
        }
      ],
      "stateMutability": "view",
      "type": "function"
    },
    {
      "inputs": [],
      "name": "activatePhaseTwo",
      "outputs": [],
      "stateMutability": "nonpayable",
      "type": "function"
    },
    {
      "inputs": [
        {
          "internalType": "address",
          "name": "operator",
          "type": "address"
        },
        {
          "internalType": "uint256",
          "name": "tokenId",
          "type": "uint256"
        }
      ],
      "name": "approve",
      "outputs": [],
      "stateMutability": "nonpayable",
      "type": "function"
    },
    {
      "inputs": [
        {
          "internalType": "address",
          "name": "owner",
          "type": "address"
        }
      ],
      "name": "balanceOf",
      "outputs": [
        {
          "internalType": "uint256",
          "name": "",
          "type": "uint256"
        }
      ],
      "stateMutability": "view",
      "type": "function"
    },
    {
      "inputs": [],
      "name": "contractURI",
      "outputs": [
        {
          "internalType": "string",
          "name": "",
          "type": "string"
        }
      ],
      "stateMutability": "view",
      "type": "function"
    },
    {
      "inputs": [],
      "name": "endPhase",
      "outputs": [],
      "stateMutability": "nonpayable",
      "type": "function"
    },
    {
      "inputs": [
        {
          "internalType": "uint256",
          "name": "tokenId",
          "type": "uint256"
        }
      ],
      "name": "getApproved",
      "outputs": [
        {
          "internalType": "address",
          "name": "",
          "type": "address"
        }
      ],
      "stateMutability": "view",
      "type": "function"
    },
    {
      "inputs": [],
      "name": "initiateCashback",
      "outputs": [],
      "stateMutability": "nonpayable",
      "type": "function"
    },
    {
      "inputs": [
        {
          "internalType": "address",
          "name": "owner",
          "type": "address"
        },
        {
          "internalType": "address",
          "name": "operator",
          "type": "address"
        }
      ],
      "name": "isApprovedForAll",
      "outputs": [
        {
          "internalType": "bool",
          "name": "",
          "type": "bool"
        }
      ],
      "stateMutability": "view",
      "type": "function"
    },
    {
      "inputs": [
        {
          "internalType": "uint256",
          "name": "amount",
          "type": "uint256"
        }
      ],
      "name": "mint",
      "outputs": [],
      "stateMutability": "payable",
      "type": "function"
    },
    {
      "inputs": [],
      "name": "name",
      "outputs": [
        {
          "internalType": "string",
          "name": "",
          "type": "string"
        }
      ],
      "stateMutability": "view",
      "type": "function"
    },
    {
      "inputs": [
        {
          "internalType": "uint256",
          "name": "tokenId",
          "type": "uint256"
        }
      ],
      "name": "ownerOf",
      "outputs": [
        {
          "internalType": "address",
          "name": "",
          "type": "address"
        }
      ],
      "stateMutability": "view",
      "type": "function"
    },
    {
      "inputs": [],
      "name": "reserve",
      "outputs": [],
      "stateMutability": "nonpayable",
      "type": "function"
    },
    {
      "inputs": [
        {
          "internalType": "uint256",
          "name": "_tokenId",
          "type": "uint256"
        },
        {
          "internalType": "uint256",
          "name": "_salePrice",
          "type": "uint256"
        }
      ],
      "name": "royaltyInfo",
      "outputs": [
        {
          "internalType": "address",
          "name": "",
          "type": "address"
        },
        {
          "internalType": "uint256",
          "name": "",
          "type": "uint256"
        }
      ],
      "stateMutability": "view",
      "type": "function"
    },
    {
      "inputs": [
        {
          "internalType": "address",
          "name": "from",
          "type": "address"
        },
        {
          "internalType": "address",
          "name": "to",
          "type": "address"
        },
        {
          "internalType": "uint256",
          "name": "tokenId",
          "type": "uint256"
        }
      ],
      "name": "safeTransferFrom",
      "outputs": [],
      "stateMutability": "nonpayable",
      "type": "function"
    },
    {
      "inputs": [
        {
          "internalType": "address",
          "name": "from",
          "type": "address"
        },
        {
          "internalType": "address",
          "name": "to",
          "type": "address"
        },
        {
          "internalType": "uint256",
          "name": "tokenId",
          "type": "uint256"
        },
        {
          "internalType": "bytes",
          "name": "data",
          "type": "bytes"
        }
      ],
      "name": "safeTransferFrom",
      "outputs": [],
      "stateMutability": "nonpayable",
      "type": "function"
    },
    {
      "inputs": [
        {
          "internalType": "address",
          "name": "operator",
          "type": "address"
        },
        {
          "internalType": "bool",
          "name": "approved",
          "type": "bool"
        }
      ],
      "name": "setApprovalForAll",
      "outputs": [],
      "stateMutability": "nonpayable",
      "type": "function"
    },
    {
      "inputs": [
        {
          "internalType": "string",
          "name": "uri",
          "type": "string"
        }
      ],
      "name": "setBaseURI",
      "outputs": [],
      "stateMutability": "nonpayable",
      "type": "function"
    },
    {
      "inputs": [
        {
          "internalType": "string",
          "name": "uri",
          "type": "string"
        }
      ],
      "name": "setContractURI",
      "outputs": [],
      "stateMutability": "nonpayable",
      "type": "function"
    },
    {
      "inputs": [
        {
          "internalType": "address",
          "name": "_receiver",
          "type": "address"
        },
        {
          "internalType": "uint96",
          "name": "fee",
          "type": "uint96"
        }
      ],
      "name": "setCreatorsFee",
      "outputs": [],
      "stateMutability": "nonpayable",
      "type": "function"
    },
    {
      "inputs": [
        {
          "internalType": "bytes4",
          "name": "interfaceId",
          "type": "bytes4"
        }
      ],
      "name": "supportsInterface",
      "outputs": [
        {
          "internalType": "bool",
          "name": "",
          "type": "bool"
        }
      ],
      "stateMutability": "view",
      "type": "function"
    },
    {
      "inputs": [],
      "name": "symbol",
      "outputs": [
        {
          "internalType": "string",
          "name": "",
          "type": "string"
        }
      ],
      "stateMutability": "view",
      "type": "function"
    },
    {
      "inputs": [
        {
          "internalType": "uint256",
          "name": "tokenId",
          "type": "uint256"
        }
      ],
      "name": "tokenURI",
      "outputs": [
        {
          "internalType": "string",
          "name": "",
          "type": "string"
        }
      ],
      "stateMutability": "view",
      "type": "function"
    },
    {
      "inputs": [],
      "name": "totalSupply",
      "outputs": [
        {
          "internalType": "uint256",
          "name": "",
          "type": "uint256"
        }
      ],
      "stateMutability": "view",
      "type": "function"
    },
    {
      "inputs": [],
      "name": "totalWinners",
      "outputs": [
        {
          "internalType": "uint256",
          "name": "",
          "type": "uint256"
        }
      ],
      "stateMutability": "view",
      "type": "function"
    },
    {
      "inputs": [
        {
          "internalType": "address",
          "name": "from",
          "type": "address"
        },
        {
          "internalType": "address",
          "name": "to",
          "type": "address"
        },
        {
          "internalType": "uint256",
          "name": "tokenId",
          "type": "uint256"
        }
      ],
      "name": "transferFrom",
      "outputs": [],
      "stateMutability": "nonpayable",
      "type": "function"
    },
    {
      "inputs": [
        {
          "internalType": "address",
          "name": "to",
          "type": "address"
        }
      ],
      "name": "transferOwnership",
      "outputs": [],
      "stateMutability": "nonpayable",
      "type": "function"
    },
    {
      "inputs": [],
      "name": "withdraw",
      "outputs": [],
      "stateMutability": "nonpayable",
      "type": "function"
    }
  ],
  "bytecode": "0x60806040526001600a556000600b60006101000a81548160ff0219169083151502179055506000600b60016101000a81548160ff0219169083151502179055506000600b60026101000a81548160ff021916908315150217905550601e6127106200006b919062000721565b600c5567013fbe85edc90000600d556014600e55683635c9adc5dea00000600f5560405180606001604052806036815260200162005f636036913960119081620000b69190620009cc565b5060405180606001604052806036815260200162005f2d6036913960129081620000e19190620009cc565b50348015620000ef57600080fd5b50733cc6cdda760b79bafa08df41ecfa224f810dceb660016040518060400160405280600881526020017f5073794475636b730000000000000000000000000000000000000000000000008152506040518060400160405280600381526020017f50535900000000000000000000000000000000000000000000000000000000008152508160009081620001849190620009cc565b508060019081620001969190620009cc565b50505060006daaeb6d7670e522a718067333cd4e73ffffffffffffffffffffffffffffffffffffffff163b11156200038e57801562000254576daaeb6d7670e522a718067333cd4e73ffffffffffffffffffffffffffffffffffffffff16637d3e3dbe30846040518363ffffffff1660e01b81526004016200021a92919062000af8565b600060405180830381600087803b1580156200023557600080fd5b505af11580156200024a573d6000803e3d6000fd5b505050506200038d565b600073ffffffffffffffffffffffffffffffffffffffff168273ffffffffffffffffffffffffffffffffffffffff16146200030e576daaeb6d7670e522a718067333cd4e73ffffffffffffffffffffffffffffffffffffffff1663a0af290330846040518363ffffffff1660e01b8152600401620002d492919062000af8565b600060405180830381600087803b158015620002ef57600080fd5b505af115801562000304573d6000803e3d6000fd5b505050506200038c565b6daaeb6d7670e522a718067333cd4e73ffffffffffffffffffffffffffffffffffffffff16634420e486306040518263ffffffff1660e01b815260040162000357919062000b25565b600060405180830381600087803b1580156200037257600080fd5b505af115801562000387573d6000803e3d6000fd5b505050505b5b5b5050620003a06200040960201b60201c565b600960006101000a81548173ffffffffffffffffffffffffffffffffffffffff021916908373ffffffffffffffffffffffffffffffffffffffff16021790555062000403620003f46200040960201b60201c565b6103e86200041160201b60201c565b62000d41565b600033905090565b620004216200040960201b60201c565b73ffffffffffffffffffffffffffffffffffffffff16600960009054906101000a900473ffffffffffffffffffffffffffffffffffffffff1673ffffffffffffffffffffffffffffffffffffffff1614620004b3576040517f08c379a0000000000000000000000000000000000000000000000000000000008152600401620004aa9062000ba3565b60405180910390fd5b600073ffffffffffffffffffffffffffffffffffffffff168273ffffffffffffffffffffffffffffffffffffffff160362000525576040517f08c379a00000000000000000000000000000000000000000000000000000000081526004016200051c9062000c15565b60405180910390fd5b6200053782826200053b60201b60201c565b5050565b6200054b620006de60201b60201c565b6bffffffffffffffffffffffff16816bffffffffffffffffffffffff161115620005ac576040517f08c379a0000000000000000000000000000000000000000000000000000000008152600401620005a39062000cad565b60405180910390fd5b600073ffffffffffffffffffffffffffffffffffffffff168273ffffffffffffffffffffffffffffffffffffffff16036200061e576040517f08c379a0000000000000000000000000000000000000000000000000000000008152600401620006159062000d1f565b60405180910390fd5b60405180604001604052808373ffffffffffffffffffffffffffffffffffffffff168152602001826bffffffffffffffffffffffff16815250600660008201518160000160006101000a81548173ffffffffffffffffffffffffffffffffffffffff021916908373ffffffffffffffffffffffffffffffffffffffff16021790555060208201518160000160146101000a8154816bffffffffffffffffffffffff02191690836bffffffffffffffffffffffff1602179055509050505050565b6000612710905090565b6000819050919050565b7f4e487b7100000000000000000000000000000000000000000000000000000000600052601160045260246000fd5b60006200072e82620006e8565b91506200073b83620006e8565b9250828203905081811115620007565762000755620006f2565b5b92915050565b600081519050919050565b7f4e487b7100000000000000000000000000000000000000000000000000000000600052604160045260246000fd5b7f4e487b7100000000000000000000000000000000000000000000000000000000600052602260045260246000fd5b60006002820490506001821680620007de57607f821691505b602082108103620007f457620007f362000796565b5b50919050565b60008190508160005260206000209050919050565b60006020601f8301049050919050565b600082821b905092915050565b6000600883026200085e7fffffffffffffffffffffffffffffffffffffffffffffffffffffffffffffffff826200081f565b6200086a86836200081f565b95508019841693508086168417925050509392505050565b6000819050919050565b6000620008ad620008a7620008a184620006e8565b62000882565b620006e8565b9050919050565b6000819050919050565b620008c9836200088c565b620008e1620008d882620008b4565b8484546200082c565b825550505050565b600090565b620008f8620008e9565b62000905818484620008be565b505050565b5b818110156200092d5762000921600082620008ee565b6001810190506200090b565b5050565b601f8211156200097c576200094681620007fa565b62000951846200080f565b8101602085101562000961578190505b6200097962000970856200080f565b8301826200090a565b50505b505050565b600082821c905092915050565b6000620009a16000198460080262000981565b1980831691505092915050565b6000620009bc83836200098e565b9150826002028217905092915050565b620009d7826200075c565b67ffffffffffffffff811115620009f357620009f262000767565b5b620009ff8254620007c5565b62000a0c82828562000931565b600060209050601f83116001811462000a44576000841562000a2f578287015190505b62000a3b8582620009ae565b86555062000aab565b601f19841662000a5486620007fa565b60005b8281101562000a7e5784890151825560018201915060208501945060208101905062000a57565b8683101562000a9e578489015162000a9a601f8916826200098e565b8355505b6001600288020188555050505b505050505050565b600073ffffffffffffffffffffffffffffffffffffffff82169050919050565b600062000ae08262000ab3565b9050919050565b62000af28162000ad3565b82525050565b600060408201905062000b0f600083018562000ae7565b62000b1e602083018462000ae7565b9392505050565b600060208201905062000b3c600083018462000ae7565b92915050565b600082825260208201905092915050565b7f43616c6c6572206973206e6f7420746865206f776e6572210000000000000000600082015250565b600062000b8b60188362000b42565b915062000b988262000b53565b602082019050919050565b6000602082019050818103600083015262000bbe8162000b7c565b9050919050565b7f52656365697665722063616e6e6f742062652061207830206164647265737321600082015250565b600062000bfd60208362000b42565b915062000c0a8262000bc5565b602082019050919050565b6000602082019050818103600083015262000c308162000bee565b9050919050565b7f455243323938313a20726f79616c7479206665652077696c6c2065786365656460008201527f2073616c65507269636500000000000000000000000000000000000000000000602082015250565b600062000c95602a8362000b42565b915062000ca28262000c37565b604082019050919050565b6000602082019050818103600083015262000cc88162000c86565b9050919050565b7f455243323938313a20696e76616c696420726563656976657200000000000000600082015250565b600062000d0760198362000b42565b915062000d148262000ccf565b602082019050919050565b6000602082019050818103600083015262000d3a8162000cf8565b9050919050565b6151dc8062000d516000396000f3fe60806040526004361061025c5760003560e01c806370a0823111610144578063c87b56dd116100b6578063d7a43faf1161007a578063d7a43faf14610896578063dbddb26a146108c1578063e8a3d485146108ec578063e985e9c514610917578063f2fde38b14610954578063fc96f3601461097d5761025c565b8063c87b56dd146107d5578063cd3293de14610812578063cd4a892e14610829578063d21efc3514610854578063d75e61101461086b5761025c565b8063a22cb46511610108578063a22cb465146106d7578063aa8dd3db14610700578063aa9c16181461072b578063b88d4fde14610756578063b8eb8e611461077f578063bcc941b6146107aa5761025c565b806370a08231146105ff578063738e30741461063c578063938e3d7b1461066757806395d89b4114610690578063a0712d68146106bb5761025c565b806323b872dd116101dd5780633f879faf116101a15780633f879faf146104ef57806341f434341461051a57806342842e0e1461054557806355f804b31461056e57806356b4f673146105975780636352211e146105c25761025c565b806323b872dd1461041b5780632a55205a1461044457806332cb6b0c146104825780633ccfd60b146104ad5780633e5a3da4146104c45761025c565b806309e64e9a1161022457806309e64e9a14610358578063142e1f8f146103835780631506e35a1461039a57806318160ddd146103b15780631df85ba3146103dc5761025c565b806301a1b28b1461026157806301ffc9a71461028a57806306fdde03146102c7578063081812fc146102f2578063095ea7b31461032f575b600080fd5b34801561026d57600080fd5b5061028860048036038101906102839190613828565b6109a8565b005b34801561029657600080fd5b506102b160048036038101906102ac91906138c0565b610abc565b6040516102be9190613908565b60405180910390f35b3480156102d357600080fd5b506102dc610ace565b6040516102e991906139b3565b60405180910390f35b3480156102fe57600080fd5b5061031960048036038101906103149190613a0b565b610b60565b6040516103269190613a47565b60405180910390f35b34801561033b57600080fd5b5061035660048036038101906103519190613a62565b610ba6565b005b34801561036457600080fd5b5061036d610bbf565b60405161037a9190613ab1565b60405180910390f35b34801561038f57600080fd5b50610398610bc5565b005b3480156103a657600080fd5b506103af610cb2565b005b3480156103bd57600080fd5b506103c6610d66565b6040516103d39190613ab1565b60405180910390f35b3480156103e857600080fd5b5061040360048036038101906103fe9190613a0b565b610d77565b60405161041293929190613acc565b60405180910390f35b34801561042757600080fd5b50610442600480360381019061043d9190613b03565b610dd1565b005b34801561045057600080fd5b5061046b60048036038101906104669190613b56565b610e20565b604051610479929190613b96565b60405180910390f35b34801561048e57600080fd5b5061049761100a565b6040516104a49190613ab1565b60405180910390f35b3480156104b957600080fd5b506104c2611010565b005b3480156104d057600080fd5b506104d961115b565b6040516104e69190613908565b60405180910390f35b3480156104fb57600080fd5b5061050461116e565b6040516105119190613ab1565b60405180910390f35b34801561052657600080fd5b5061052f611174565b60405161053c9190613c1e565b60405180910390f35b34801561055157600080fd5b5061056c60048036038101906105679190613b03565b611186565b005b34801561057a57600080fd5b5061059560048036038101906105909190613d6e565b6111d5565b005b3480156105a357600080fd5b506105ac6112c9565b6040516105b991906139b3565b60405180910390f35b3480156105ce57600080fd5b506105e960048036038101906105e49190613a0b565b611357565b6040516105f69190613a47565b60405180910390f35b34801561060b57600080fd5b5061062660048036038101906106219190613db7565b6113dd565b6040516106339190613ab1565b60405180910390f35b34801561064857600080fd5b50610651611494565b60405161065e9190613908565b60405180910390f35b34801561067357600080fd5b5061068e60048036038101906106899190613d6e565b6114a7565b005b34801561069c57600080fd5b506106a561159b565b6040516106b291906139b3565b60405180910390f35b6106d560048036038101906106d09190613a0b565b61162d565b005b3480156106e357600080fd5b506106fe60048036038101906106f99190613e10565b61187f565b005b34801561070c57600080fd5b50610715611898565b6040516107229190613ab1565b60405180910390f35b34801561073757600080fd5b5061074061189d565b60405161074d9190613ab1565b60405180910390f35b34801561076257600080fd5b5061077d60048036038101906107789190613ef1565b6118a3565b005b34801561078b57600080fd5b506107946118f4565b6040516107a19190613ab1565b60405180910390f35b3480156107b657600080fd5b506107bf6118fa565b6040516107cc9190613ab1565b60405180910390f35b3480156107e157600080fd5b506107fc60048036038101906107f79190613a0b565b611907565b60405161080991906139b3565b60405180910390f35b34801561081e57600080fd5b5061082761196f565b005b34801561083557600080fd5b5061083e611ad2565b60405161084b9190613908565b60405180910390f35b34801561086057600080fd5b50610869611ae5565b005b34801561087757600080fd5b50610880611bac565b60405161088d9190613ab1565b60405180910390f35b3480156108a257600080fd5b506108ab611bb2565b6040516108b89190613ab1565b60405180910390f35b3480156108cd57600080fd5b506108d6611bbe565b6040516108e391906139b3565b60405180910390f35b3480156108f857600080fd5b50610901611c4c565b60405161090e91906139b3565b60405180910390f35b34801561092357600080fd5b5061093e60048036038101906109399190613f74565b611cde565b60405161094b9190613908565b60405180910390f35b34801561096057600080fd5b5061097b60048036038101906109769190613db7565b611d72565b005b34801561098957600080fd5b50610992611f4c565b60405161099f9190613ab1565b60405180910390f35b6109b0611f52565b73ffffffffffffffffffffffffffffffffffffffff16600960009054906101000a900473ffffffffffffffffffffffffffffffffffffffff1673ffffffffffffffffffffffffffffffffffffffff1614610a3f576040517f08c379a0000000000000000000000000000000000000000000000000000000008152600401610a3690614000565b60405180910390fd5b600073ffffffffffffffffffffffffffffffffffffffff168273ffffffffffffffffffffffffffffffffffffffff1603610aae576040517f08c379a0000000000000000000000000000000000000000000000000000000008152600401610aa59061406c565b60405180910390fd5b610ab88282611f5a565b5050565b6000610ac7826120ef565b9050919050565b606060008054610add906140bb565b80601f0160208091040260200160405190810160405280929190818152602001828054610b09906140bb565b8015610b565780601f10610b2b57610100808354040283529160200191610b56565b820191906000526020600020905b815481529060010190602001808311610b3957829003601f168201915b5050505050905090565b6000610b6b82612169565b6004600083815260200190815260200160002060009054906101000a900473ffffffffffffffffffffffffffffffffffffffff169050919050565b81610bb0816121b4565b610bba83836122b1565b505050565b61271081565b610bcd611f52565b73ffffffffffffffffffffffffffffffffffffffff16600960009054906101000a900473ffffffffffffffffffffffffffffffffffffffff1673ffffffffffffffffffffffffffffffffffffffff1614610c5c576040517f08c379a0000000000000000000000000000000000000000000000000000000008152600401610c5390614000565b60405180910390fd5b6002600a819055506000600b60006101000a81548160ff021916908315150217905550670c7d713b49da0000600d819055506028600e81905550614e20600c8190555069021e19e0c9bab2400000600f81905550565b610cba611f52565b73ffffffffffffffffffffffffffffffffffffffff16600960009054906101000a900473ffffffffffffffffffffffffffffffffffffffff1673ffffffffffffffffffffffffffffffffffffffff1614610d49576040517f08c379a0000000000000000000000000000000000000000000000000000000008152600401610d4090614000565b60405180910390fd5b6001600b60016101000a81548160ff021916908315150217905550565b6000610d7260086123c8565b905090565b60108181548110610d8757600080fd5b90600052602060002090600302016000915090508060000160009054906101000a900473ffffffffffffffffffffffffffffffffffffffff16908060010154908060020154905083565b823373ffffffffffffffffffffffffffffffffffffffff168173ffffffffffffffffffffffffffffffffffffffff1614610e0f57610e0e336121b4565b5b610e1a8484846123d6565b50505050565b6000806000600760008681526020019081526020016000206040518060400160405290816000820160009054906101000a900473ffffffffffffffffffffffffffffffffffffffff1673ffffffffffffffffffffffffffffffffffffffff1673ffffffffffffffffffffffffffffffffffffffff1681526020016000820160149054906101000a90046bffffffffffffffffffffffff166bffffffffffffffffffffffff166bffffffffffffffffffffffff16815250509050600073ffffffffffffffffffffffffffffffffffffffff16816000015173ffffffffffffffffffffffffffffffffffffffff1603610fb55760066040518060400160405290816000820160009054906101000a900473ffffffffffffffffffffffffffffffffffffffff1673ffffffffffffffffffffffffffffffffffffffff1673ffffffffffffffffffffffffffffffffffffffff1681526020016000820160149054906101000a90046bffffffffffffffffffffffff166bffffffffffffffffffffffff166bffffffffffffffffffffffff168152505090505b6000610fbf612436565b6bffffffffffffffffffffffff1682602001516bffffffffffffffffffffffff1686610feb919061411b565b610ff5919061418c565b90508160000151819350935050509250929050565b614e2081565b611018611f52565b73ffffffffffffffffffffffffffffffffffffffff16600960009054906101000a900473ffffffffffffffffffffffffffffffffffffffff1673ffffffffffffffffffffffffffffffffffffffff16146110a7576040517f08c379a000000000000000000000000000000000000000000000000000000000815260040161109e90614000565b60405180910390fd5b6000479050600081116110ef576040517f08c379a00000000000000000000000000000000000000000000000000000000081526004016110e690614209565b60405180910390fd5b600960009054906101000a900473ffffffffffffffffffffffffffffffffffffffff1673ffffffffffffffffffffffffffffffffffffffff166108fc829081150290604051600060405180830381858888f19350505050158015611157573d6000803e3d6000fd5b5050565b600b60009054906101000a900460ff1681565b600c5481565b6daaeb6d7670e522a718067333cd4e81565b823373ffffffffffffffffffffffffffffffffffffffff168173ffffffffffffffffffffffffffffffffffffffff16146111c4576111c3336121b4565b5b6111cf848484612440565b50505050565b6111dd611f52565b73ffffffffffffffffffffffffffffffffffffffff16600960009054906101000a900473ffffffffffffffffffffffffffffffffffffffff1673ffffffffffffffffffffffffffffffffffffffff161461126c576040517f08c379a000000000000000000000000000000000000000000000000000000000815260040161126390614000565b60405180910390fd5b600081905060008151036112b5576040517f08c379a00000000000000000000000000000000000000000000000000000000081526004016112ac90614275565b60405180910390fd5b81601190816112c49190614437565b505050565b601280546112d6906140bb565b80601f0160208091040260200160405190810160405280929190818152602001828054611302906140bb565b801561134f5780601f106113245761010080835404028352916020019161134f565b820191906000526020600020905b81548152906001019060200180831161133257829003601f168201915b505050505081565b60008061136383612460565b9050600073ffffffffffffffffffffffffffffffffffffffff168173ffffffffffffffffffffffffffffffffffffffff16036113d4576040517f08c379a00000000000000000000000000000000000000000000000000000000081526004016113cb90614555565b60405180910390fd5b80915050919050565b60008073ffffffffffffffffffffffffffffffffffffffff168273ffffffffffffffffffffffffffffffffffffffff160361144d576040517f08c379a0000000000000000000000000000000000000000000000000000000008152600401611444906145e7565b60405180910390fd5b600360008373ffffffffffffffffffffffffffffffffffffffff1673ffffffffffffffffffffffffffffffffffffffff168152602001908152602001600020549050919050565b600b60029054906101000a900460ff1681565b6114af611f52565b73ffffffffffffffffffffffffffffffffffffffff16600960009054906101000a900473ffffffffffffffffffffffffffffffffffffffff1673ffffffffffffffffffffffffffffffffffffffff161461153e576040517f08c379a000000000000000000000000000000000000000000000000000000000815260040161153590614000565b60405180910390fd5b60008190506000815103611587576040517f08c379a000000000000000000000000000000000000000000000000000000000815260040161157e90614275565b60405180910390fd5b81601290816115969190614437565b505050565b6060600180546115aa906140bb565b80601f01602080910402602001604051908101604052809291908181526020018280546115d6906140bb565b80156116235780601f106115f857610100808354040283529160200191611623565b820191906000526020600020905b81548152906001019060200180831161160657829003601f168201915b5050505050905090565b60008161164061163b611f52565b6113dd565b61164a9190614607565b9050600082600d5461165c919061411b565b9050600e5482116116a6577f700afc125fa7401d8c1aaf5376e3e8232e94d8664f959a19bd39ff39437f9224611690611f52565b60405161169d9190614687565b60405180910390a15b600e54836116ba6116b5611f52565b6113dd565b6116c49190614607565b1115611705576040517f08c379a00000000000000000000000000000000000000000000000000000000081526004016116fc90614727565b60405180910390fd5b600960009054906101000a900473ffffffffffffffffffffffffffffffffffffffff1673ffffffffffffffffffffffffffffffffffffffff16611746611f52565b73ffffffffffffffffffffffffffffffffffffffff16146117a557803410156117a4576040517f08c379a000000000000000000000000000000000000000000000000000000000815260040161179b90614793565b60405180910390fd5b5b60005b8381101561183557600c546117bd60086123c8565b11156117fe576040517f08c379a00000000000000000000000000000000000000000000000000000000081526004016117f5906147ff565b60405180910390fd5b611808600861249d565b611822611813611f52565b61181d60086123c8565b6124b3565b808061182d9061481f565b9150506117a8565b507f2bdd59583c8e5cc64165e86af2482dbe93e85c98b355b788aa592465b3f6920e61185f611f52565b3485426040516118729493929190614867565b60405180910390a1505050565b81611889816121b4565b61189383836124d1565b505050565b601e81565b600f5481565b833373ffffffffffffffffffffffffffffffffffffffff168173ffffffffffffffffffffffffffffffffffffffff16146118e1576118e0336121b4565b5b6118ed858585856124e7565b5050505050565b600a5481565b6000601080549050905090565b606061191282612169565b600061191c612549565b9050600081511161193c5760405180602001604052806000815250611967565b80611946846125db565b6040516020016119579291906148e8565b6040516020818303038152906040525b915050919050565b611977611f52565b73ffffffffffffffffffffffffffffffffffffffff16600960009054906101000a900473ffffffffffffffffffffffffffffffffffffffff1673ffffffffffffffffffffffffffffffffffffffff1614611a06576040517f08c379a00000000000000000000000000000000000000000000000000000000081526004016119fd90614000565b60405180910390fd5b600b60029054906101000a900460ff1615611a56576040517f08c379a0000000000000000000000000000000000000000000000000000000008152600401611a4d9061497e565b60405180910390fd5b60005b601e811015611ab457611a6c600861249d565b611aa1600960009054906101000a900473ffffffffffffffffffffffffffffffffffffffff16611a9c60086123c8565b6124b3565b8080611aac9061481f565b915050611a59565b506001600b60026101000a81548160ff021916908315150217905550565b600b60019054906101000a900460ff1681565b611aed611f52565b73ffffffffffffffffffffffffffffffffffffffff16600960009054906101000a900473ffffffffffffffffffffffffffffffffffffffff1673ffffffffffffffffffffffffffffffffffffffff1614611b7c576040517f08c379a0000000000000000000000000000000000000000000000000000000008152600401611b7390614000565b60405180910390fd5b600c54611b8960086123c8565b03611baa576001600b60006101000a81548160ff0219169083151502179055505b565b600e5481565b678ac7230489e8000081565b60118054611bcb906140bb565b80601f0160208091040260200160405190810160405280929190818152602001828054611bf7906140bb565b8015611c445780601f10611c1957610100808354040283529160200191611c44565b820191906000526020600020905b815481529060010190602001808311611c2757829003601f168201915b505050505081565b606060128054611c5b906140bb565b80601f0160208091040260200160405190810160405280929190818152602001828054611c87906140bb565b8015611cd45780601f10611ca957610100808354040283529160200191611cd4565b820191906000526020600020905b815481529060010190602001808311611cb757829003601f168201915b5050505050905090565b6000600560008473ffffffffffffffffffffffffffffffffffffffff1673ffffffffffffffffffffffffffffffffffffffff16815260200190815260200160002060008373ffffffffffffffffffffffffffffffffffffffff1673ffffffffffffffffffffffffffffffffffffffff16815260200190815260200160002060009054906101000a900460ff16905092915050565b611d7a611f52565b73ffffffffffffffffffffffffffffffffffffffff16600960009054906101000a900473ffffffffffffffffffffffffffffffffffffffff1673ffffffffffffffffffffffffffffffffffffffff1614611e09576040517f08c379a0000000000000000000000000000000000000000000000000000000008152600401611e0090614000565b60405180910390fd5b600073ffffffffffffffffffffffffffffffffffffffff168173ffffffffffffffffffffffffffffffffffffffff1603611e78576040517f08c379a0000000000000000000000000000000000000000000000000000000008152600401611e6f906149ea565b60405180910390fd5b600960009054906101000a900473ffffffffffffffffffffffffffffffffffffffff1673ffffffffffffffffffffffffffffffffffffffff168173ffffffffffffffffffffffffffffffffffffffff1603611f08576040517f08c379a0000000000000000000000000000000000000000000000000000000008152600401611eff90614a56565b60405180910390fd5b80600960006101000a81548173ffffffffffffffffffffffffffffffffffffffff021916908373ffffffffffffffffffffffffffffffffffffffff16021790555050565b600d5481565b600033905090565b611f62612436565b6bffffffffffffffffffffffff16816bffffffffffffffffffffffff161115611fc0576040517f08c379a0000000000000000000000000000000000000000000000000000000008152600401611fb790614ae8565b60405180910390fd5b600073ffffffffffffffffffffffffffffffffffffffff168273ffffffffffffffffffffffffffffffffffffffff160361202f576040517f08c379a000000000000000000000000000000000000000000000000000000000815260040161202690614b54565b60405180910390fd5b60405180604001604052808373ffffffffffffffffffffffffffffffffffffffff168152602001826bffffffffffffffffffffffff16815250600660008201518160000160006101000a81548173ffffffffffffffffffffffffffffffffffffffff021916908373ffffffffffffffffffffffffffffffffffffffff16021790555060208201518160000160146101000a8154816bffffffffffffffffffffffff02191690836bffffffffffffffffffffffff1602179055509050505050565b60007f2a55205a000000000000000000000000000000000000000000000000000000007bffffffffffffffffffffffffffffffffffffffffffffffffffffffff1916827bffffffffffffffffffffffffffffffffffffffffffffffffffffffff191614806121625750612161826126a9565b5b9050919050565b6121728161278b565b6121b1576040517f08c379a00000000000000000000000000000000000000000000000000000000081526004016121a890614555565b60405180910390fd5b50565b60006daaeb6d7670e522a718067333cd4e73ffffffffffffffffffffffffffffffffffffffff163b11156122ae576daaeb6d7670e522a718067333cd4e73ffffffffffffffffffffffffffffffffffffffff1663c617113430836040518363ffffffff1660e01b815260040161222b929190614b74565b602060405180830381865afa158015612248573d6000803e3d6000fd5b505050506040513d601f19601f8201168201806040525081019061226c9190614bb2565b6122ad57806040517fede71dcc0000000000000000000000000000000000000000000000000000000081526004016122a49190613a47565b60405180910390fd5b5b50565b60006122bc82611357565b90508073ffffffffffffffffffffffffffffffffffffffff168373ffffffffffffffffffffffffffffffffffffffff160361232c576040517f08c379a000000000000000000000000000000000000000000000000000000000815260040161232390614c51565b60405180910390fd5b8073ffffffffffffffffffffffffffffffffffffffff1661234b611f52565b73ffffffffffffffffffffffffffffffffffffffff16148061237a575061237981612374611f52565b611cde565b5b6123b9576040517f08c379a00000000000000000000000000000000000000000000000000000000081526004016123b090614ce3565b60405180910390fd5b6123c383836127cc565b505050565b600081600001549050919050565b6123e76123e1611f52565b82612885565b612426576040517f08c379a000000000000000000000000000000000000000000000000000000000815260040161241d90614d75565b60405180910390fd5b61243183838361291a565b505050565b6000612710905090565b61245b838383604051806020016040528060008152506118a3565b505050565b60006002600083815260200190815260200160002060009054906101000a900473ffffffffffffffffffffffffffffffffffffffff169050919050565b6001816000016000828254019250508190555050565b6124cd828260405180602001604052806000815250612c13565b5050565b6124e36124dc611f52565b8383612c6e565b5050565b6124f86124f2611f52565b83612885565b612537576040517f08c379a000000000000000000000000000000000000000000000000000000000815260040161252e90614d75565b60405180910390fd5b61254384848484612dda565b50505050565b606060118054612558906140bb565b80601f0160208091040260200160405190810160405280929190818152602001828054612584906140bb565b80156125d15780601f106125a6576101008083540402835291602001916125d1565b820191906000526020600020905b8154815290600101906020018083116125b457829003601f168201915b5050505050905090565b6060600060016125ea84612e36565b01905060008167ffffffffffffffff81111561260957612608613c43565b5b6040519080825280601f01601f19166020018201604052801561263b5781602001600182028036833780820191505090505b509050600082602001820190505b60011561269e578080600190039150507f3031323334353637383961626364656600000000000000000000000000000000600a86061a8153600a85816126925761269161415d565b5b04945060008503612649575b819350505050919050565b60007f80ac58cd000000000000000000000000000000000000000000000000000000007bffffffffffffffffffffffffffffffffffffffffffffffffffffffff1916827bffffffffffffffffffffffffffffffffffffffffffffffffffffffff1916148061277457507f5b5e139f000000000000000000000000000000000000000000000000000000007bffffffffffffffffffffffffffffffffffffffffffffffffffffffff1916827bffffffffffffffffffffffffffffffffffffffffffffffffffffffff1916145b80612784575061278382612f89565b5b9050919050565b60008073ffffffffffffffffffffffffffffffffffffffff166127ad83612460565b73ffffffffffffffffffffffffffffffffffffffff1614159050919050565b816004600083815260200190815260200160002060006101000a81548173ffffffffffffffffffffffffffffffffffffffff021916908373ffffffffffffffffffffffffffffffffffffffff160217905550808273ffffffffffffffffffffffffffffffffffffffff1661283f83611357565b73ffffffffffffffffffffffffffffffffffffffff167f8c5be1e5ebec7d5bd14f71427d1e84f3dd0314c0f7b2291e5b200ac8c7c3b92560405160405180910390a45050565b60008061289183611357565b90508073ffffffffffffffffffffffffffffffffffffffff168473ffffffffffffffffffffffffffffffffffffffff1614806128d357506128d28185611cde565b5b8061291157508373ffffffffffffffffffffffffffffffffffffffff166128f984610b60565b73ffffffffffffffffffffffffffffffffffffffff16145b91505092915050565b8273ffffffffffffffffffffffffffffffffffffffff1661293a82611357565b73ffffffffffffffffffffffffffffffffffffffff1614612990576040517f08c379a000000000000000000000000000000000000000000000000000000000815260040161298790614e07565b60405180910390fd5b600073ffffffffffffffffffffffffffffffffffffffff168273ffffffffffffffffffffffffffffffffffffffff16036129ff576040517f08c379a00000000000000000000000000000000000000000000000000000000081526004016129f690614e99565b60405180910390fd5b612a0c8383836001612ff3565b8273ffffffffffffffffffffffffffffffffffffffff16612a2c82611357565b73ffffffffffffffffffffffffffffffffffffffff1614612a82576040517f08c379a0000000000000000000000000000000000000000000000000000000008152600401612a7990614e07565b60405180910390fd5b6004600082815260200190815260200160002060006101000a81549073ffffffffffffffffffffffffffffffffffffffff02191690556001600360008573ffffffffffffffffffffffffffffffffffffffff1673ffffffffffffffffffffffffffffffffffffffff168152602001908152602001600020600082825403925050819055506001600360008473ffffffffffffffffffffffffffffffffffffffff1673ffffffffffffffffffffffffffffffffffffffff16815260200190815260200160002060008282540192505081905550816002600083815260200190815260200160002060006101000a81548173ffffffffffffffffffffffffffffffffffffffff021916908373ffffffffffffffffffffffffffffffffffffffff160217905550808273ffffffffffffffffffffffffffffffffffffffff168473ffffffffffffffffffffffffffffffffffffffff167fddf252ad1be2c89b69c2b068fc378daa952ba7f163c4a11628f55a4df523b3ef60405160405180910390a4612c0e8383836001613119565b505050565b612c1d83836133a5565b612c2a60008484846135c2565b612c69576040517f08c379a0000000000000000000000000000000000000000000000000000000008152600401612c6090614f2b565b60405180910390fd5b505050565b8173ffffffffffffffffffffffffffffffffffffffff168373ffffffffffffffffffffffffffffffffffffffff1603612cdc576040517f08c379a0000000000000000000000000000000000000000000000000000000008152600401612cd390614f97565b60405180910390fd5b80600560008573ffffffffffffffffffffffffffffffffffffffff1673ffffffffffffffffffffffffffffffffffffffff16815260200190815260200160002060008473ffffffffffffffffffffffffffffffffffffffff1673ffffffffffffffffffffffffffffffffffffffff16815260200190815260200160002060006101000a81548160ff0219169083151502179055508173ffffffffffffffffffffffffffffffffffffffff168373ffffffffffffffffffffffffffffffffffffffff167f17307eab39ab6107e8899845ad3d59bd9653f200f220920489ca2b5937696c3183604051612dcd9190613908565b60405180910390a3505050565b612de584848461291a565b612df1848484846135c2565b612e30576040517f08c379a0000000000000000000000000000000000000000000000000000000008152600401612e2790614f2b565b60405180910390fd5b50505050565b600080600090507a184f03e93ff9f4daa797ed6e38ed64bf6a1f0100000000000000008310612e94577a184f03e93ff9f4daa797ed6e38ed64bf6a1f0100000000000000008381612e8a57612e8961415d565b5b0492506040810190505b6d04ee2d6d415b85acef81000000008310612ed1576d04ee2d6d415b85acef81000000008381612ec757612ec661415d565b5b0492506020810190505b662386f26fc100008310612f0057662386f26fc100008381612ef657612ef561415d565b5b0492506010810190505b6305f5e1008310612f29576305f5e1008381612f1f57612f1e61415d565b5b0492506008810190505b6127108310612f4e576127108381612f4457612f4361415d565b5b0492506004810190505b60648310612f715760648381612f6757612f6661415d565b5b0492506002810190505b600a8310612f80576001810190505b80915050919050565b60007f01ffc9a7000000000000000000000000000000000000000000000000000000007bffffffffffffffffffffffffffffffffffffffffffffffffffffffff1916827bffffffffffffffffffffffffffffffffffffffffffffffffffffffff1916149050919050565b600181111561311357600073ffffffffffffffffffffffffffffffffffffffff168473ffffffffffffffffffffffffffffffffffffffff16146130875780600360008673ffffffffffffffffffffffffffffffffffffffff1673ffffffffffffffffffffffffffffffffffffffff168152602001908152602001600020600082825461307f9190614fb7565b925050819055505b600073ffffffffffffffffffffffffffffffffffffffff168373ffffffffffffffffffffffffffffffffffffffff16146131125780600360008573ffffffffffffffffffffffffffffffffffffffff1673ffffffffffffffffffffffffffffffffffffffff168152602001908152602001600020600082825461310a9190614607565b925050819055505b5b50505050565b61312584848484613749565b600047905060008073ffffffffffffffffffffffffffffffffffffffff168673ffffffffffffffffffffffffffffffffffffffff16141580156131955750600073ffffffffffffffffffffffffffffffffffffffff168573ffffffffffffffffffffffffffffffffffffffff1614155b90506000600960009054906101000a900473ffffffffffffffffffffffffffffffffffffffff1673ffffffffffffffffffffffffffffffffffffffff168773ffffffffffffffffffffffffffffffffffffffff161415905060008280156131f95750815b801561320c5750678ac7230489e8000084115b9050600b60019054906101000a900460ff1680156132275750805b1561339b5760008890506000606486613240919061418c565b90508173ffffffffffffffffffffffffffffffffffffffff166108fc829081150290604051600060405180830381858888f19350505050158015613288573d6000803e3d6000fd5b506000600b60016101000a81548160ff021916908315150217905550601060405180606001604052808c73ffffffffffffffffffffffffffffffffffffffff16815260200183815260200142815250908060018154018082558091505060019003906000526020600020906003020160009091909190915060008201518160000160006101000a81548173ffffffffffffffffffffffffffffffffffffffff021916908373ffffffffffffffffffffffffffffffffffffffff160217905550602082015181600101556040820151816002015550507fd85bb46331dc6cb8f6bdffe3ffe065defeceb97602e50fb759e42e16dfe77a8e8a824260405161339093929190613acc565b60405180910390a150505b5050505050505050565b600073ffffffffffffffffffffffffffffffffffffffff168273ffffffffffffffffffffffffffffffffffffffff1603613414576040517f08c379a000000000000000000000000000000000000000000000000000000000815260040161340b90615037565b60405180910390fd5b61341d8161278b565b1561345d576040517f08c379a0000000000000000000000000000000000000000000000000000000008152600401613454906150a3565b60405180910390fd5b61346b600083836001612ff3565b6134748161278b565b156134b4576040517f08c379a00000000000000000000000000000000000000000000000000000000081526004016134ab906150a3565b60405180910390fd5b6001600360008473ffffffffffffffffffffffffffffffffffffffff1673ffffffffffffffffffffffffffffffffffffffff16815260200190815260200160002060008282540192505081905550816002600083815260200190815260200160002060006101000a81548173ffffffffffffffffffffffffffffffffffffffff021916908373ffffffffffffffffffffffffffffffffffffffff160217905550808273ffffffffffffffffffffffffffffffffffffffff16600073ffffffffffffffffffffffffffffffffffffffff167fddf252ad1be2c89b69c2b068fc378daa952ba7f163c4a11628f55a4df523b3ef60405160405180910390a46135be600083836001613119565b5050565b60006135e38473ffffffffffffffffffffffffffffffffffffffff1661374f565b1561373c578373ffffffffffffffffffffffffffffffffffffffff1663150b7a0261360c611f52565b8786866040518563ffffffff1660e01b815260040161362e9493929190615118565b6020604051808303816000875af192505050801561366a57506040513d601f19601f820116820180604052508101906136679190615179565b60015b6136ec573d806000811461369a576040519150601f19603f3d011682016040523d82523d6000602084013e61369f565b606091505b5060008151036136e4576040517f08c379a00000000000000000000000000000000000000000000000000000000081526004016136db90614f2b565b60405180910390fd5b805181602001fd5b63150b7a0260e01b7bffffffffffffffffffffffffffffffffffffffffffffffffffffffff1916817bffffffffffffffffffffffffffffffffffffffffffffffffffffffff191614915050613741565b600190505b949350505050565b50505050565b6000808273ffffffffffffffffffffffffffffffffffffffff163b119050919050565b6000604051905090565b600080fd5b600080fd5b600073ffffffffffffffffffffffffffffffffffffffff82169050919050565b60006137b182613786565b9050919050565b6137c1816137a6565b81146137cc57600080fd5b50565b6000813590506137de816137b8565b92915050565b60006bffffffffffffffffffffffff82169050919050565b613805816137e4565b811461381057600080fd5b50565b600081359050613822816137fc565b92915050565b6000806040838503121561383f5761383e61377c565b5b600061384d858286016137cf565b925050602061385e85828601613813565b9150509250929050565b60007fffffffff0000000000000000000000000000000000000000000000000000000082169050919050565b61389d81613868565b81146138a857600080fd5b50565b6000813590506138ba81613894565b92915050565b6000602082840312156138d6576138d561377c565b5b60006138e4848285016138ab565b91505092915050565b60008115159050919050565b613902816138ed565b82525050565b600060208201905061391d60008301846138f9565b92915050565b600081519050919050565b600082825260208201905092915050565b60005b8381101561395d578082015181840152602081019050613942565b60008484015250505050565b6000601f19601f8301169050919050565b600061398582613923565b61398f818561392e565b935061399f81856020860161393f565b6139a881613969565b840191505092915050565b600060208201905081810360008301526139cd818461397a565b905092915050565b6000819050919050565b6139e8816139d5565b81146139f357600080fd5b50565b600081359050613a05816139df565b92915050565b600060208284031215613a2157613a2061377c565b5b6000613a2f848285016139f6565b91505092915050565b613a41816137a6565b82525050565b6000602082019050613a5c6000830184613a38565b92915050565b60008060408385031215613a7957613a7861377c565b5b6000613a87858286016137cf565b9250506020613a98858286016139f6565b9150509250929050565b613aab816139d5565b82525050565b6000602082019050613ac66000830184613aa2565b92915050565b6000606082019050613ae16000830186613a38565b613aee6020830185613aa2565b613afb6040830184613aa2565b949350505050565b600080600060608486031215613b1c57613b1b61377c565b5b6000613b2a868287016137cf565b9350506020613b3b868287016137cf565b9250506040613b4c868287016139f6565b9150509250925092565b60008060408385031215613b6d57613b6c61377c565b5b6000613b7b858286016139f6565b9250506020613b8c858286016139f6565b9150509250929050565b6000604082019050613bab6000830185613a38565b613bb86020830184613aa2565b9392505050565b6000819050919050565b6000613be4613bdf613bda84613786565b613bbf565b613786565b9050919050565b6000613bf682613bc9565b9050919050565b6000613c0882613beb565b9050919050565b613c1881613bfd565b82525050565b6000602082019050613c336000830184613c0f565b92915050565b600080fd5b600080fd5b7f4e487b7100000000000000000000000000000000000000000000000000000000600052604160045260246000fd5b613c7b82613969565b810181811067ffffffffffffffff82111715613c9a57613c99613c43565b5b80604052505050565b6000613cad613772565b9050613cb98282613c72565b919050565b600067ffffffffffffffff821115613cd957613cd8613c43565b5b613ce282613969565b9050602081019050919050565b82818337600083830152505050565b6000613d11613d0c84613cbe565b613ca3565b905082815260208101848484011115613d2d57613d2c613c3e565b5b613d38848285613cef565b509392505050565b600082601f830112613d5557613d54613c39565b5b8135613d65848260208601613cfe565b91505092915050565b600060208284031215613d8457613d8361377c565b5b600082013567ffffffffffffffff811115613da257613da1613781565b5b613dae84828501613d40565b91505092915050565b600060208284031215613dcd57613dcc61377c565b5b6000613ddb848285016137cf565b91505092915050565b613ded816138ed565b8114613df857600080fd5b50565b600081359050613e0a81613de4565b92915050565b60008060408385031215613e2757613e2661377c565b5b6000613e35858286016137cf565b9250506020613e4685828601613dfb565b9150509250929050565b600067ffffffffffffffff821115613e6b57613e6a613c43565b5b613e7482613969565b9050602081019050919050565b6000613e94613e8f84613e50565b613ca3565b905082815260208101848484011115613eb057613eaf613c3e565b5b613ebb848285613cef565b509392505050565b600082601f830112613ed857613ed7613c39565b5b8135613ee8848260208601613e81565b91505092915050565b60008060008060808587031215613f0b57613f0a61377c565b5b6000613f19878288016137cf565b9450506020613f2a878288016137cf565b9350506040613f3b878288016139f6565b925050606085013567ffffffffffffffff811115613f5c57613f5b613781565b5b613f6887828801613ec3565b91505092959194509250565b60008060408385031215613f8b57613f8a61377c565b5b6000613f99858286016137cf565b9250506020613faa858286016137cf565b9150509250929050565b7f43616c6c6572206973206e6f7420746865206f776e6572210000000000000000600082015250565b6000613fea60188361392e565b9150613ff582613fb4565b602082019050919050565b6000602082019050818103600083015261401981613fdd565b9050919050565b7f52656365697665722063616e6e6f742062652061207830206164647265737321600082015250565b600061405660208361392e565b915061406182614020565b602082019050919050565b6000602082019050818103600083015261408581614049565b9050919050565b7f4e487b7100000000000000000000000000000000000000000000000000000000600052602260045260246000fd5b600060028204905060018216806140d357607f821691505b6020821081036140e6576140e561408c565b5b50919050565b7f4e487b7100000000000000000000000000000000000000000000000000000000600052601160045260246000fd5b6000614126826139d5565b9150614131836139d5565b925082820261413f816139d5565b91508282048414831517614156576141556140ec565b5b5092915050565b7f4e487b7100000000000000000000000000000000000000000000000000000000600052601260045260246000fd5b6000614197826139d5565b91506141a2836139d5565b9250826141b2576141b161415d565b5b828204905092915050565b7f496e73756666696369656e742046756e64732100000000000000000000000000600082015250565b60006141f360138361392e565b91506141fe826141bd565b602082019050919050565b60006020820190508181036000830152614222816141e6565b9050919050565b7f496e76616c696420555249210000000000000000000000000000000000000000600082015250565b600061425f600c8361392e565b915061426a82614229565b602082019050919050565b6000602082019050818103600083015261428e81614252565b9050919050565b60008190508160005260206000209050919050565b60006020601f8301049050919050565b600082821b905092915050565b6000600883026142f77fffffffffffffffffffffffffffffffffffffffffffffffffffffffffffffffff826142ba565b61430186836142ba565b95508019841693508086168417925050509392505050565b600061433461432f61432a846139d5565b613bbf565b6139d5565b9050919050565b6000819050919050565b61434e83614319565b61436261435a8261433b565b8484546142c7565b825550505050565b600090565b61437761436a565b614382818484614345565b505050565b5b818110156143a65761439b60008261436f565b600181019050614388565b5050565b601f8211156143eb576143bc81614295565b6143c5846142aa565b810160208510156143d4578190505b6143e86143e0856142aa565b830182614387565b50505b505050565b600082821c905092915050565b600061440e600019846008026143f0565b1980831691505092915050565b600061442783836143fd565b9150826002028217905092915050565b61444082613923565b67ffffffffffffffff81111561445957614458613c43565b5b61446382546140bb565b61446e8282856143aa565b600060209050601f8311600181146144a1576000841561448f578287015190505b614499858261441b565b865550614501565b601f1984166144af86614295565b60005b828110156144d7578489015182556001820191506020850194506020810190506144b2565b868310156144f457848901516144f0601f8916826143fd565b8355505b6001600288020188555050505b505050505050565b7f4552433732313a20696e76616c696420746f6b656e2049440000000000000000600082015250565b600061453f60188361392e565b915061454a82614509565b602082019050919050565b6000602082019050818103600083015261456e81614532565b9050919050565b7f4552433732313a2061646472657373207a65726f206973206e6f74206120766160008201527f6c6964206f776e65720000000000000000000000000000000000000000000000602082015250565b60006145d160298361392e565b91506145dc82614575565b604082019050919050565b60006020820190508181036000830152614600816145c4565b9050919050565b6000614612826139d5565b915061461d836139d5565b9250828201905080821115614635576146346140ec565b5b92915050565b7f4c494d49545f4558434545444544000000000000000000000000000000000000600082015250565b6000614671600e8361392e565b915061467c8261463b565b602082019050919050565b600060408201905061469c6000830184613a38565b81810360208301526146ad81614664565b905092915050565b7f596f75206861766520657863656564656420746865205055524348415345204c60008201527f494d49542e000000000000000000000000000000000000000000000000000000602082015250565b600061471160258361392e565b915061471c826146b5565b604082019050919050565b6000602082019050818103600083015261474081614704565b9050919050565b7f496e636f72726563742045746865722076616c75652073656e742e0000000000600082015250565b600061477d601b8361392e565b915061478882614747565b602082019050919050565b600060208201905081810360008301526147ac81614770565b9050919050565b7f49276d20736f727279207765207265616368656420746865206361702e000000600082015250565b60006147e9601d8361392e565b91506147f4826147b3565b602082019050919050565b60006020820190508181036000830152614818816147dc565b9050919050565b600061482a826139d5565b91507fffffffffffffffffffffffffffffffffffffffffffffffffffffffffffffffff820361485c5761485b6140ec565b5b600182019050919050565b600060808201905061487c6000830187613a38565b6148896020830186613aa2565b6148966040830185613aa2565b6148a36060830184613aa2565b95945050505050565b600081905092915050565b60006148c282613923565b6148cc81856148ac565b93506148dc81856020860161393f565b80840191505092915050565b60006148f482856148b7565b915061490082846148b7565b91508190509392505050565b7f4f776e6572732068617320616c7265616479206d696e7465642068697320736860008201527f6172652100000000000000000000000000000000000000000000000000000000602082015250565b600061496860248361392e565b91506149738261490c565b604082019050919050565b600060208201905081810360008301526149978161495b565b9050919050565b7f496e76616c696420416464726573732100000000000000000000000000000000600082015250565b60006149d460108361392e565b91506149df8261499e565b602082019050919050565b60006020820190508181036000830152614a03816149c7565b9050919050565b7f596f752061726520616c726561647920746865206f776e657221000000000000600082015250565b6000614a40601a8361392e565b9150614a4b82614a0a565b602082019050919050565b60006020820190508181036000830152614a6f81614a33565b9050919050565b7f455243323938313a20726f79616c7479206665652077696c6c2065786365656460008201527f2073616c65507269636500000000000000000000000000000000000000000000602082015250565b6000614ad2602a8361392e565b9150614add82614a76565b604082019050919050565b60006020820190508181036000830152614b0181614ac5565b9050919050565b7f455243323938313a20696e76616c696420726563656976657200000000000000600082015250565b6000614b3e60198361392e565b9150614b4982614b08565b602082019050919050565b60006020820190508181036000830152614b6d81614b31565b9050919050565b6000604082019050614b896000830185613a38565b614b966020830184613a38565b9392505050565b600081519050614bac81613de4565b92915050565b600060208284031215614bc857614bc761377c565b5b6000614bd684828501614b9d565b91505092915050565b7f4552433732313a20617070726f76616c20746f2063757272656e74206f776e6560008201527f7200000000000000000000000000000000000000000000000000000000000000602082015250565b6000614c3b60218361392e565b9150614c4682614bdf565b604082019050919050565b60006020820190508181036000830152614c6a81614c2e565b9050919050565b7f4552433732313a20617070726f76652063616c6c6572206973206e6f7420746f60008201527f6b656e206f776e6572206f7220617070726f76656420666f7220616c6c000000602082015250565b6000614ccd603d8361392e565b9150614cd882614c71565b604082019050919050565b60006020820190508181036000830152614cfc81614cc0565b9050919050565b7f4552433732313a2063616c6c6572206973206e6f7420746f6b656e206f776e6560008201527f72206f7220617070726f76656400000000000000000000000000000000000000602082015250565b6000614d5f602d8361392e565b9150614d6a82614d03565b604082019050919050565b60006020820190508181036000830152614d8e81614d52565b9050919050565b7f4552433732313a207472616e736665722066726f6d20696e636f72726563742060008201527f6f776e6572000000000000000000000000000000000000000000000000000000602082015250565b6000614df160258361392e565b9150614dfc82614d95565b604082019050919050565b60006020820190508181036000830152614e2081614de4565b9050919050565b7f4552433732313a207472616e7366657220746f20746865207a65726f2061646460008201527f7265737300000000000000000000000000000000000000000000000000000000602082015250565b6000614e8360248361392e565b9150614e8e82614e27565b604082019050919050565b60006020820190508181036000830152614eb281614e76565b9050919050565b7f4552433732313a207472616e7366657220746f206e6f6e20455243373231526560008201527f63656976657220696d706c656d656e7465720000000000000000000000000000602082015250565b6000614f1560328361392e565b9150614f2082614eb9565b604082019050919050565b60006020820190508181036000830152614f4481614f08565b9050919050565b7f4552433732313a20617070726f766520746f2063616c6c657200000000000000600082015250565b6000614f8160198361392e565b9150614f8c82614f4b565b602082019050919050565b60006020820190508181036000830152614fb081614f74565b9050919050565b6000614fc2826139d5565b9150614fcd836139d5565b9250828203905081811115614fe557614fe46140ec565b5b92915050565b7f4552433732313a206d696e7420746f20746865207a65726f2061646472657373600082015250565b600061502160208361392e565b915061502c82614feb565b602082019050919050565b6000602082019050818103600083015261505081615014565b9050919050565b7f4552433732313a20746f6b656e20616c7265616479206d696e74656400000000600082015250565b600061508d601c8361392e565b915061509882615057565b602082019050919050565b600060208201905081810360008301526150bc81615080565b9050919050565b600081519050919050565b600082825260208201905092915050565b60006150ea826150c3565b6150f481856150ce565b935061510481856020860161393f565b61510d81613969565b840191505092915050565b600060808201905061512d6000830187613a38565b61513a6020830186613a38565b6151476040830185613aa2565b818103606083015261515981846150df565b905095945050505050565b60008151905061517381613894565b92915050565b60006020828403121561518f5761518e61377c565b5b600061519d84828501615164565b9150509291505056fea2646970667358221220ba164bbdbf05302b88fce61d7dcee3b3a40bd03fbb63eb3bd0f0a1a896de7f3564736f6c63430008110033697066733a2f2f516d50633959786a3177454770325034574a714a434a345a4b735352706a685964616137336b6a6a5444646a79312f697066733a2f2f516d54364e5436667a43564d6543374469417967704238646d44394277774e6179326b724a32563247636255574a2f",
  "linkReferences": {},
  "deployedLinkReferences": {}
}