{
  "_format": "hh-sol-artifact-1",
  "contractName": "Unpsyned",
  "sourceName": "contracts/unsigned.sol",
  "abi": [
    {
      "inputs": [],
      "stateMutability": "nonpayable",
      "type": "constructor"
    },
    {
      "anonymous": false,
      "inputs": [
        {
          "indexed": true,
          "internalType": "address",
          "name": "owner",
          "type": "address"
        },
        {
          "indexed": true,
          "internalType": "address",
          "name": "approved",
          "type": "address"
        },
        {
          "indexed": true,
          "internalType": "uint256",
          "name": "tokenId",
          "type": "uint256"
        }
      ],
      "name": "Approval",
      "type": "event"
    },
    {
      "anonymous": false,
      "inputs": [
        {
          "indexed": true,
          "internalType": "address",
          "name": "owner",
          "type": "address"
        },
        {
          "indexed": true,
          "internalType": "address",
          "name": "operator",
          "type": "address"
        },
        {
          "indexed": false,
          "internalType": "bool",
          "name": "approved",
          "type": "bool"
        }
      ],
      "name": "ApprovalForAll",
      "type": "event"
    },
    {
      "anonymous": false,
      "inputs": [
        {
          "indexed": false,
          "internalType": "address",
          "name": "purchasedBy",
          "type": "address"
        },
        {
          "indexed": false,
          "internalType": "uint256",
          "name": "amount",
          "type": "uint256"
        },
        {
          "indexed": false,
          "internalType": "uint256",
          "name": "number",
          "type": "uint256"
        },
        {
          "indexed": false,
          "internalType": "uint256",
          "name": "timestamp",
          "type": "uint256"
        }
      ],
      "name": "Purchased",
      "type": "event"
    },
    {
      "anonymous": false,
      "inputs": [
        {
          "indexed": true,
          "internalType": "address",
          "name": "from",
          "type": "address"
        },
        {
          "indexed": true,
          "internalType": "address",
          "name": "to",
          "type": "address"
        },
        {
          "indexed": true,
          "internalType": "uint256",
          "name": "tokenId",
          "type": "uint256"
        }
      ],
      "name": "Transfer",
      "type": "event"
    },
    {
      "inputs": [],
      "name": "BASE_URI",
      "outputs": [
        {
          "internalType": "string",
          "name": "",
          "type": "string"
        }
      ],
      "stateMutability": "view",
      "type": "function"
    },
    {
      "inputs": [],
      "name": "CONTRACT_URI",
      "outputs": [
        {
          "internalType": "string",
          "name": "",
          "type": "string"
        }
      ],
      "stateMutability": "view",
      "type": "function"
    },
    {
      "inputs": [],
      "name": "MAX_SUPPLY",
      "outputs": [
        {
          "internalType": "uint256",
          "name": "",
          "type": "uint256"
        }
      ],
      "stateMutability": "view",
      "type": "function"
    },
    {
      "inputs": [],
      "name": "PURCHASE_LIMIT",
      "outputs": [
        {
          "internalType": "uint256",
          "name": "",
          "type": "uint256"
        }
      ],
      "stateMutability": "view",
      "type": "function"
    },
    {
      "inputs": [
        {
          "internalType": "uint256",
          "name": "",
          "type": "uint256"
        }
      ],
      "name": "WINNERS",
      "outputs": [
        {
          "internalType": "address",
          "name": "_address",
          "type": "address"
        },
        {
          "internalType": "uint256",
          "name": "timestamp",
          "type": "uint256"
        }
      ],
      "stateMutability": "view",
      "type": "function"
    },
    {
      "inputs": [],
      "name": "_PRICE",
      "outputs": [
        {
          "internalType": "uint256",
          "name": "",
          "type": "uint256"
        }
      ],
      "stateMutability": "view",
      "type": "function"
    },
    {
      "inputs": [
        {
          "internalType": "address",
          "name": "to",
          "type": "address"
        },
        {
          "internalType": "uint256",
          "name": "tokenId",
          "type": "uint256"
        }
      ],
      "name": "approve",
      "outputs": [],
      "stateMutability": "nonpayable",
      "type": "function"
    },
    {
      "inputs": [
        {
          "internalType": "address",
          "name": "owner",
          "type": "address"
        }
      ],
      "name": "balanceOf",
      "outputs": [
        {
          "internalType": "uint256",
          "name": "",
          "type": "uint256"
        }
      ],
      "stateMutability": "view",
      "type": "function"
    },
    {
      "inputs": [],
      "name": "contractURI",
      "outputs": [
        {
          "internalType": "string",
          "name": "",
          "type": "string"
        }
      ],
      "stateMutability": "view",
      "type": "function"
    },
    {
      "inputs": [],
      "name": "destroy",
      "outputs": [],
      "stateMutability": "nonpayable",
      "type": "function"
    },
    {
      "inputs": [
        {
          "internalType": "uint256",
          "name": "tokenId",
          "type": "uint256"
        }
      ],
      "name": "getApproved",
      "outputs": [
        {
          "internalType": "address",
          "name": "",
          "type": "address"
        }
      ],
      "stateMutability": "view",
      "type": "function"
    },
    {
      "inputs": [
        {
          "internalType": "address",
          "name": "owner",
          "type": "address"
        },
        {
          "internalType": "address",
          "name": "operator",
          "type": "address"
        }
      ],
      "name": "isApprovedForAll",
      "outputs": [
        {
          "internalType": "bool",
          "name": "",
          "type": "bool"
        }
      ],
      "stateMutability": "view",
      "type": "function"
    },
    {
      "inputs": [
        {
          "internalType": "uint256",
          "name": "amount",
          "type": "uint256"
        }
      ],
      "name": "mint",
      "outputs": [],
      "stateMutability": "payable",
      "type": "function"
    },
    {
      "inputs": [],
      "name": "name",
      "outputs": [
        {
          "internalType": "string",
          "name": "",
          "type": "string"
        }
      ],
      "stateMutability": "view",
      "type": "function"
    },
    {
      "inputs": [
        {
          "internalType": "uint256",
          "name": "tokenId",
          "type": "uint256"
        }
      ],
      "name": "ownerOf",
      "outputs": [
        {
          "internalType": "address",
          "name": "",
          "type": "address"
        }
      ],
      "stateMutability": "view",
      "type": "function"
    },
    {
      "inputs": [
        {
          "internalType": "uint256",
          "name": "amount",
          "type": "uint256"
        }
      ],
      "name": "reserve",
      "outputs": [],
      "stateMutability": "nonpayable",
      "type": "function"
    },
    {
      "inputs": [
        {
          "internalType": "address",
          "name": "from",
          "type": "address"
        },
        {
          "internalType": "address",
          "name": "to",
          "type": "address"
        },
        {
          "internalType": "uint256",
          "name": "tokenId",
          "type": "uint256"
        }
      ],
      "name": "safeTransferFrom",
      "outputs": [],
      "stateMutability": "nonpayable",
      "type": "function"
    },
    {
      "inputs": [
        {
          "internalType": "address",
          "name": "from",
          "type": "address"
        },
        {
          "internalType": "address",
          "name": "to",
          "type": "address"
        },
        {
          "internalType": "uint256",
          "name": "tokenId",
          "type": "uint256"
        },
        {
          "internalType": "bytes",
          "name": "data",
          "type": "bytes"
        }
      ],
      "name": "safeTransferFrom",
      "outputs": [],
      "stateMutability": "nonpayable",
      "type": "function"
    },
    {
      "inputs": [
        {
          "internalType": "address",
          "name": "operator",
          "type": "address"
        },
        {
          "internalType": "bool",
          "name": "approved",
          "type": "bool"
        }
      ],
      "name": "setApprovalForAll",
      "outputs": [],
      "stateMutability": "nonpayable",
      "type": "function"
    },
    {
      "inputs": [
        {
          "internalType": "string",
          "name": "uri",
          "type": "string"
        }
      ],
      "name": "setBaseURI",
      "outputs": [],
      "stateMutability": "nonpayable",
      "type": "function"
    },
    {
      "inputs": [
        {
          "internalType": "string",
          "name": "uri",
          "type": "string"
        }
      ],
      "name": "setContractURI",
      "outputs": [],
      "stateMutability": "nonpayable",
      "type": "function"
    },
    {
      "inputs": [
        {
          "internalType": "uint256",
          "name": "price",
          "type": "uint256"
        }
      ],
      "name": "setPrice",
      "outputs": [],
      "stateMutability": "nonpayable",
      "type": "function"
    },
    {
      "inputs": [
        {
          "internalType": "address",
          "name": "from",
          "type": "address"
        }
      ],
      "name": "setWinner",
      "outputs": [],
      "stateMutability": "nonpayable",
      "type": "function"
    },
    {
      "inputs": [
        {
          "internalType": "bytes4",
          "name": "interfaceId",
          "type": "bytes4"
        }
      ],
      "name": "supportsInterface",
      "outputs": [
        {
          "internalType": "bool",
          "name": "",
          "type": "bool"
        }
      ],
      "stateMutability": "view",
      "type": "function"
    },
    {
      "inputs": [],
      "name": "symbol",
      "outputs": [
        {
          "internalType": "string",
          "name": "",
          "type": "string"
        }
      ],
      "stateMutability": "view",
      "type": "function"
    },
    {
      "inputs": [
        {
          "internalType": "uint256",
          "name": "tokenId",
          "type": "uint256"
        }
      ],
      "name": "tokenURI",
      "outputs": [
        {
          "internalType": "string",
          "name": "",
          "type": "string"
        }
      ],
      "stateMutability": "view",
      "type": "function"
    },
    {
      "inputs": [],
      "name": "totalSupply",
      "outputs": [
        {
          "internalType": "uint256",
          "name": "",
          "type": "uint256"
        }
      ],
      "stateMutability": "view",
      "type": "function"
    },
    {
      "inputs": [],
      "name": "totalWinners",
      "outputs": [
        {
          "internalType": "uint256",
          "name": "",
          "type": "uint256"
        }
      ],
      "stateMutability": "view",
      "type": "function"
    },
    {
      "inputs": [
        {
          "internalType": "address",
          "name": "from",
          "type": "address"
        },
        {
          "internalType": "address",
          "name": "to",
          "type": "address"
        },
        {
          "internalType": "uint256",
          "name": "tokenId",
          "type": "uint256"
        }
      ],
      "name": "transferFrom",
      "outputs": [],
      "stateMutability": "nonpayable",
      "type": "function"
    },
    {
      "inputs": [
        {
          "internalType": "address",
          "name": "to",
          "type": "address"
        }
      ],
      "name": "transferOwnership",
      "outputs": [],
      "stateMutability": "nonpayable",
      "type": "function"
    },
    {
      "inputs": [],
      "name": "withdraw",
      "outputs": [],
      "stateMutability": "nonpayable",
      "type": "function"
    }
  ],
  "bytecode": "0x6080604052600060085560646009556040518060600160405280603681526020016200456b60369139600b9081620000389190620003dc565b506040518060800160405280604c8152602001620045a1604c9139600c9081620000639190620003dc565b503480156200007157600080fd5b506040518060400160405280600881526020017f554e5053594e45440000000000000000000000000000000000000000000000008152506040518060400160405280600a81526020017f554e5f5053595f4e4544000000000000000000000000000000000000000000008152508160009081620000ef9190620003dc565b508060019081620001019190620003dc565b505050620001146200015a60201b60201c565b600760006101000a81548173ffffffffffffffffffffffffffffffffffffffff021916908373ffffffffffffffffffffffffffffffffffffffff160217905550620004c3565b600033905090565b600081519050919050565b7f4e487b7100000000000000000000000000000000000000000000000000000000600052604160045260246000fd5b7f4e487b7100000000000000000000000000000000000000000000000000000000600052602260045260246000fd5b60006002820490506001821680620001e457607f821691505b602082108103620001fa57620001f96200019c565b5b50919050565b60008190508160005260206000209050919050565b60006020601f8301049050919050565b600082821b905092915050565b600060088302620002647fffffffffffffffffffffffffffffffffffffffffffffffffffffffffffffffff8262000225565b62000270868362000225565b95508019841693508086168417925050509392505050565b6000819050919050565b6000819050919050565b6000620002bd620002b7620002b18462000288565b62000292565b62000288565b9050919050565b6000819050919050565b620002d9836200029c565b620002f1620002e882620002c4565b84845462000232565b825550505050565b600090565b62000308620002f9565b62000315818484620002ce565b505050565b5b818110156200033d5762000331600082620002fe565b6001810190506200031b565b5050565b601f8211156200038c57620003568162000200565b620003618462000215565b8101602085101562000371578190505b62000389620003808562000215565b8301826200031a565b50505b505050565b600082821c905092915050565b6000620003b16000198460080262000391565b1980831691505092915050565b6000620003cc83836200039e565b9150826002028217905092915050565b620003e78262000162565b67ffffffffffffffff8111156200040357620004026200016d565b5b6200040f8254620001cb565b6200041c82828562000341565b600060209050601f8311600181146200045457600084156200043f578287015190505b6200044b8582620003be565b865550620004bb565b601f198416620004648662000200565b60005b828110156200048e5784890151825560018201915060208501945060208101905062000467565b86831015620004ae5784890151620004aa601f8916826200039e565b8355505b6001600288020188555050505b505050505050565b61409880620004d36000396000f3fe6080604052600436106101d85760003560e01c806383197ef011610102578063c87b56dd11610095578063e8a3d48511610064578063e8a3d48514610688578063e985e9c5146106b3578063f2fde38b146106f0578063fc96f36014610719576101d8565b8063c87b56dd146105cc578063d75e611014610609578063d9fca76914610634578063dbddb26a1461065d576101d8565b8063a0712d68116100d1578063a0712d6814610533578063a22cb4651461054f578063b88d4fde14610578578063bcc941b6146105a1576101d8565b806383197ef01461049f57806391b7f5ed146104b6578063938e3d7b146104df57806395d89b4114610508576101d8565b806332cb6b0c1161017a57806356b4f6731161014957806356b4f673146103d15780636352211e146103fc57806370a0823114610439578063819b25ba14610476576101d8565b806332cb6b0c1461033d5780633ccfd60b1461036857806342842e0e1461037f57806355f804b3146103a8576101d8565b8063095ea7b3116101b6578063095ea7b31461028257806318160ddd146102ab5780631df85ba3146102d657806323b872dd14610314576101d8565b806301ffc9a7146101dd57806306fdde031461021a578063081812fc14610245575b600080fd5b3480156101e957600080fd5b5061020460048036038101906101ff9190612ac0565b610744565b6040516102119190612b08565b60405180910390f35b34801561022657600080fd5b5061022f610826565b60405161023c9190612bb3565b60405180910390f35b34801561025157600080fd5b5061026c60048036038101906102679190612c0b565b6108b8565b6040516102799190612c79565b60405180910390f35b34801561028e57600080fd5b506102a960048036038101906102a49190612cc0565b6108fe565b005b3480156102b757600080fd5b506102c0610a15565b6040516102cd9190612d0f565b60405180910390f35b3480156102e257600080fd5b506102fd60048036038101906102f89190612c0b565b610a26565b60405161030b929190612d2a565b60405180910390f35b34801561032057600080fd5b5061033b60048036038101906103369190612d53565b610a7a565b005b34801561034957600080fd5b50610352610ada565b60405161035f9190612d0f565b60405180910390f35b34801561037457600080fd5b5061037d610ae0565b005b34801561038b57600080fd5b506103a660048036038101906103a19190612d53565b610c2b565b005b3480156103b457600080fd5b506103cf60048036038101906103ca9190612edb565b610c4b565b005b3480156103dd57600080fd5b506103e6610d3f565b6040516103f39190612bb3565b60405180910390f35b34801561040857600080fd5b50610423600480360381019061041e9190612c0b565b610dcd565b6040516104309190612c79565b60405180910390f35b34801561044557600080fd5b50610460600480360381019061045b9190612f24565b610e53565b60405161046d9190612d0f565b60405180910390f35b34801561048257600080fd5b5061049d60048036038101906104989190612c0b565b610f0a565b005b3480156104ab57600080fd5b506104b4611002565b005b3480156104c257600080fd5b506104dd60048036038101906104d89190612c0b565b6110d4565b005b3480156104eb57600080fd5b5061050660048036038101906105019190612edb565b611175565b005b34801561051457600080fd5b5061051d611269565b60405161052a9190612bb3565b60405180910390f35b61054d60048036038101906105489190612c0b565b6112fb565b005b34801561055b57600080fd5b5061057660048036038101906105719190612f7d565b61148e565b005b34801561058457600080fd5b5061059f600480360381019061059a919061305e565b6114a4565b005b3480156105ad57600080fd5b506105b6611506565b6040516105c39190612d0f565b60405180910390f35b3480156105d857600080fd5b506105f360048036038101906105ee9190612c0b565b611513565b6040516106009190612bb3565b60405180910390f35b34801561061557600080fd5b5061061e61157b565b60405161062b9190612d0f565b60405180910390f35b34801561064057600080fd5b5061065b60048036038101906106569190612f24565b611581565b005b34801561066957600080fd5b50610672611733565b60405161067f9190612bb3565b60405180910390f35b34801561069457600080fd5b5061069d6117c1565b6040516106aa9190612bb3565b60405180910390f35b3480156106bf57600080fd5b506106da60048036038101906106d591906130e1565b611853565b6040516106e79190612b08565b60405180910390f35b3480156106fc57600080fd5b5061071760048036038101906107129190612f24565b6118e7565b005b34801561072557600080fd5b5061072e611ac1565b60405161073b9190612d0f565b60405180910390f35b60007f80ac58cd000000000000000000000000000000000000000000000000000000007bffffffffffffffffffffffffffffffffffffffffffffffffffffffff1916827bffffffffffffffffffffffffffffffffffffffffffffffffffffffff1916148061080f57507f5b5e139f000000000000000000000000000000000000000000000000000000007bffffffffffffffffffffffffffffffffffffffffffffffffffffffff1916827bffffffffffffffffffffffffffffffffffffffffffffffffffffffff1916145b8061081f575061081e82611ac7565b5b9050919050565b60606000805461083590613150565b80601f016020809104026020016040519081016040528092919081815260200182805461086190613150565b80156108ae5780601f10610883576101008083540402835291602001916108ae565b820191906000526020600020905b81548152906001019060200180831161089157829003601f168201915b5050505050905090565b60006108c382611b31565b6004600083815260200190815260200160002060009054906101000a900473ffffffffffffffffffffffffffffffffffffffff169050919050565b600061090982610dcd565b90508073ffffffffffffffffffffffffffffffffffffffff168373ffffffffffffffffffffffffffffffffffffffff1603610979576040517f08c379a0000000000000000000000000000000000000000000000000000000008152600401610970906131f3565b60405180910390fd5b8073ffffffffffffffffffffffffffffffffffffffff16610998611b7c565b73ffffffffffffffffffffffffffffffffffffffff1614806109c757506109c6816109c1611b7c565b611853565b5b610a06576040517f08c379a00000000000000000000000000000000000000000000000000000000081526004016109fd90613285565b60405180910390fd5b610a108383611b84565b505050565b6000610a216006611c3d565b905090565b600a8181548110610a3657600080fd5b90600052602060002090600202016000915090508060000160009054906101000a900473ffffffffffffffffffffffffffffffffffffffff16908060010154905082565b610a8b610a85611b7c565b82611c4b565b610aca576040517f08c379a0000000000000000000000000000000000000000000000000000000008152600401610ac190613317565b60405180910390fd5b610ad5838383611ce0565b505050565b612b6781565b610ae8611b7c565b73ffffffffffffffffffffffffffffffffffffffff16600760009054906101000a900473ffffffffffffffffffffffffffffffffffffffff1673ffffffffffffffffffffffffffffffffffffffff1614610b77576040517f08c379a0000000000000000000000000000000000000000000000000000000008152600401610b6e90613383565b60405180910390fd5b600047905060008111610bbf576040517f08c379a0000000000000000000000000000000000000000000000000000000008152600401610bb6906133ef565b60405180910390fd5b600760009054906101000a900473ffffffffffffffffffffffffffffffffffffffff1673ffffffffffffffffffffffffffffffffffffffff166108fc829081150290604051600060405180830381858888f19350505050158015610c27573d6000803e3d6000fd5b5050565b610c46838383604051806020016040528060008152506114a4565b505050565b610c53611b7c565b73ffffffffffffffffffffffffffffffffffffffff16600760009054906101000a900473ffffffffffffffffffffffffffffffffffffffff1673ffffffffffffffffffffffffffffffffffffffff1614610ce2576040517f08c379a0000000000000000000000000000000000000000000000000000000008152600401610cd990613383565b60405180910390fd5b60008190506000815103610d2b576040517f08c379a0000000000000000000000000000000000000000000000000000000008152600401610d229061345b565b60405180910390fd5b81600b9081610d3a9190613627565b505050565b600c8054610d4c90613150565b80601f0160208091040260200160405190810160405280929190818152602001828054610d7890613150565b8015610dc55780601f10610d9a57610100808354040283529160200191610dc5565b820191906000526020600020905b815481529060010190602001808311610da857829003601f168201915b505050505081565b600080610dd983611fd9565b9050600073ffffffffffffffffffffffffffffffffffffffff168173ffffffffffffffffffffffffffffffffffffffff1603610e4a576040517f08c379a0000000000000000000000000000000000000000000000000000000008152600401610e4190613745565b60405180910390fd5b80915050919050565b60008073ffffffffffffffffffffffffffffffffffffffff168273ffffffffffffffffffffffffffffffffffffffff1603610ec3576040517f08c379a0000000000000000000000000000000000000000000000000000000008152600401610eba906137d7565b60405180910390fd5b600360008373ffffffffffffffffffffffffffffffffffffffff1673ffffffffffffffffffffffffffffffffffffffff168152602001908152602001600020549050919050565b610f12611b7c565b73ffffffffffffffffffffffffffffffffffffffff16600760009054906101000a900473ffffffffffffffffffffffffffffffffffffffff1673ffffffffffffffffffffffffffffffffffffffff1614610fa1576040517f08c379a0000000000000000000000000000000000000000000000000000000008152600401610f9890613383565b60405180910390fd5b60005b81811015610ffe57610fe1600760009054906101000a900473ffffffffffffffffffffffffffffffffffffffff16610fdc6006611c3d565b612016565b610feb6006612034565b8080610ff690613826565b915050610fa4565b5050565b61100a611b7c565b73ffffffffffffffffffffffffffffffffffffffff16600760009054906101000a900473ffffffffffffffffffffffffffffffffffffffff1673ffffffffffffffffffffffffffffffffffffffff1614611099576040517f08c379a000000000000000000000000000000000000000000000000000000000815260040161109090613383565b60405180910390fd5b600760009054906101000a900473ffffffffffffffffffffffffffffffffffffffff1673ffffffffffffffffffffffffffffffffffffffff16ff5b6110dc611b7c565b73ffffffffffffffffffffffffffffffffffffffff16600760009054906101000a900473ffffffffffffffffffffffffffffffffffffffff1673ffffffffffffffffffffffffffffffffffffffff161461116b576040517f08c379a000000000000000000000000000000000000000000000000000000000815260040161116290613383565b60405180910390fd5b8060088190555050565b61117d611b7c565b73ffffffffffffffffffffffffffffffffffffffff16600760009054906101000a900473ffffffffffffffffffffffffffffffffffffffff1673ffffffffffffffffffffffffffffffffffffffff161461120c576040517f08c379a000000000000000000000000000000000000000000000000000000000815260040161120390613383565b60405180910390fd5b60008190506000815103611255576040517f08c379a000000000000000000000000000000000000000000000000000000000815260040161124c9061345b565b60405180910390fd5b81600c90816112649190613627565b505050565b60606001805461127890613150565b80601f01602080910402602001604051908101604052809291908181526020018280546112a490613150565b80156112f15780601f106112c6576101008083540402835291602001916112f1565b820191906000526020600020905b8154815290600101906020018083116112d457829003601f168201915b5050505050905090565b60008161130e611309611b7c565b610e53565b611318919061386e565b905060008260085461132a91906138a2565b9050600954821115611371576040517f08c379a000000000000000000000000000000000000000000000000000000000815260040161136890613956565b60405180910390fd5b803410156113b4576040517f08c379a00000000000000000000000000000000000000000000000000000000081526004016113ab906139c2565b60405180910390fd5b60005b8381101561144457612b676113cc6006611c3d565b111561140d576040517f08c379a000000000000000000000000000000000000000000000000000000000815260040161140490613a2e565b60405180910390fd5b611427611418611b7c565b6114226006611c3d565b612016565b6114316006612034565b808061143c90613826565b9150506113b7565b507f2bdd59583c8e5cc64165e86af2482dbe93e85c98b355b788aa592465b3f6920e61146e611b7c565b3485426040516114819493929190613a4e565b60405180910390a1505050565b6114a0611499611b7c565b838361204a565b5050565b6114b56114af611b7c565b83611c4b565b6114f4576040517f08c379a00000000000000000000000000000000000000000000000000000000081526004016114eb90613317565b60405180910390fd5b611500848484846121b6565b50505050565b6000600a80549050905090565b606061151e82611b31565b6000611528612212565b905060008151116115485760405180602001604052806000815250611573565b80611552846122a4565b604051602001611563929190613b1b565b6040516020818303038152906040525b915050919050565b60095481565b611589611b7c565b73ffffffffffffffffffffffffffffffffffffffff16600760009054906101000a900473ffffffffffffffffffffffffffffffffffffffff1673ffffffffffffffffffffffffffffffffffffffff1614611618576040517f08c379a000000000000000000000000000000000000000000000000000000000815260040161160f90613383565b60405180910390fd5b600073ffffffffffffffffffffffffffffffffffffffff168173ffffffffffffffffffffffffffffffffffffffff1603611687576040517f08c379a000000000000000000000000000000000000000000000000000000000815260040161167e90613b96565b60405180910390fd5b600a60405180604001604052808373ffffffffffffffffffffffffffffffffffffffff16815260200142815250908060018154018082558091505060019003906000526020600020906002020160009091909190915060008201518160000160006101000a81548173ffffffffffffffffffffffffffffffffffffffff021916908373ffffffffffffffffffffffffffffffffffffffff16021790555060208201518160010155505050565b600b805461174090613150565b80601f016020809104026020016040519081016040528092919081815260200182805461176c90613150565b80156117b95780601f1061178e576101008083540402835291602001916117b9565b820191906000526020600020905b81548152906001019060200180831161179c57829003601f168201915b505050505081565b6060600c80546117d090613150565b80601f01602080910402602001604051908101604052809291908181526020018280546117fc90613150565b80156118495780601f1061181e57610100808354040283529160200191611849565b820191906000526020600020905b81548152906001019060200180831161182c57829003601f168201915b5050505050905090565b6000600560008473ffffffffffffffffffffffffffffffffffffffff1673ffffffffffffffffffffffffffffffffffffffff16815260200190815260200160002060008373ffffffffffffffffffffffffffffffffffffffff1673ffffffffffffffffffffffffffffffffffffffff16815260200190815260200160002060009054906101000a900460ff16905092915050565b6118ef611b7c565b73ffffffffffffffffffffffffffffffffffffffff16600760009054906101000a900473ffffffffffffffffffffffffffffffffffffffff1673ffffffffffffffffffffffffffffffffffffffff161461197e576040517f08c379a000000000000000000000000000000000000000000000000000000000815260040161197590613383565b60405180910390fd5b600073ffffffffffffffffffffffffffffffffffffffff168173ffffffffffffffffffffffffffffffffffffffff16036119ed576040517f08c379a00000000000000000000000000000000000000000000000000000000081526004016119e490613b96565b60405180910390fd5b600760009054906101000a900473ffffffffffffffffffffffffffffffffffffffff1673ffffffffffffffffffffffffffffffffffffffff168173ffffffffffffffffffffffffffffffffffffffff1603611a7d576040517f08c379a0000000000000000000000000000000000000000000000000000000008152600401611a7490613c02565b60405180910390fd5b80600760006101000a81548173ffffffffffffffffffffffffffffffffffffffff021916908373ffffffffffffffffffffffffffffffffffffffff16021790555050565b60085481565b60007f01ffc9a7000000000000000000000000000000000000000000000000000000007bffffffffffffffffffffffffffffffffffffffffffffffffffffffff1916827bffffffffffffffffffffffffffffffffffffffffffffffffffffffff1916149050919050565b611b3a81612372565b611b79576040517f08c379a0000000000000000000000000000000000000000000000000000000008152600401611b7090613745565b60405180910390fd5b50565b600033905090565b816004600083815260200190815260200160002060006101000a81548173ffffffffffffffffffffffffffffffffffffffff021916908373ffffffffffffffffffffffffffffffffffffffff160217905550808273ffffffffffffffffffffffffffffffffffffffff16611bf783610dcd565b73ffffffffffffffffffffffffffffffffffffffff167f8c5be1e5ebec7d5bd14f71427d1e84f3dd0314c0f7b2291e5b200ac8c7c3b92560405160405180910390a45050565b600081600001549050919050565b600080611c5783610dcd565b90508073ffffffffffffffffffffffffffffffffffffffff168473ffffffffffffffffffffffffffffffffffffffff161480611c995750611c988185611853565b5b80611cd757508373ffffffffffffffffffffffffffffffffffffffff16611cbf846108b8565b73ffffffffffffffffffffffffffffffffffffffff16145b91505092915050565b8273ffffffffffffffffffffffffffffffffffffffff16611d0082610dcd565b73ffffffffffffffffffffffffffffffffffffffff1614611d56576040517f08c379a0000000000000000000000000000000000000000000000000000000008152600401611d4d90613c94565b60405180910390fd5b600073ffffffffffffffffffffffffffffffffffffffff168273ffffffffffffffffffffffffffffffffffffffff1603611dc5576040517f08c379a0000000000000000000000000000000000000000000000000000000008152600401611dbc90613d26565b60405180910390fd5b611dd283838360016123b3565b8273ffffffffffffffffffffffffffffffffffffffff16611df282610dcd565b73ffffffffffffffffffffffffffffffffffffffff1614611e48576040517f08c379a0000000000000000000000000000000000000000000000000000000008152600401611e3f90613c94565b60405180910390fd5b6004600082815260200190815260200160002060006101000a81549073ffffffffffffffffffffffffffffffffffffffff02191690556001600360008573ffffffffffffffffffffffffffffffffffffffff1673ffffffffffffffffffffffffffffffffffffffff168152602001908152602001600020600082825403925050819055506001600360008473ffffffffffffffffffffffffffffffffffffffff1673ffffffffffffffffffffffffffffffffffffffff16815260200190815260200160002060008282540192505081905550816002600083815260200190815260200160002060006101000a81548173ffffffffffffffffffffffffffffffffffffffff021916908373ffffffffffffffffffffffffffffffffffffffff160217905550808273ffffffffffffffffffffffffffffffffffffffff168473ffffffffffffffffffffffffffffffffffffffff167fddf252ad1be2c89b69c2b068fc378daa952ba7f163c4a11628f55a4df523b3ef60405160405180910390a4611fd483838360016124d9565b505050565b60006002600083815260200190815260200160002060009054906101000a900473ffffffffffffffffffffffffffffffffffffffff169050919050565b6120308282604051806020016040528060008152506124df565b5050565b6001816000016000828254019250508190555050565b8173ffffffffffffffffffffffffffffffffffffffff168373ffffffffffffffffffffffffffffffffffffffff16036120b8576040517f08c379a00000000000000000000000000000000000000000000000000000000081526004016120af90613d92565b60405180910390fd5b80600560008573ffffffffffffffffffffffffffffffffffffffff1673ffffffffffffffffffffffffffffffffffffffff16815260200190815260200160002060008473ffffffffffffffffffffffffffffffffffffffff1673ffffffffffffffffffffffffffffffffffffffff16815260200190815260200160002060006101000a81548160ff0219169083151502179055508173ffffffffffffffffffffffffffffffffffffffff168373ffffffffffffffffffffffffffffffffffffffff167f17307eab39ab6107e8899845ad3d59bd9653f200f220920489ca2b5937696c31836040516121a99190612b08565b60405180910390a3505050565b6121c1848484611ce0565b6121cd8484848461253a565b61220c576040517f08c379a000000000000000000000000000000000000000000000000000000000815260040161220390613e24565b60405180910390fd5b50505050565b6060600b805461222190613150565b80601f016020809104026020016040519081016040528092919081815260200182805461224d90613150565b801561229a5780601f1061226f5761010080835404028352916020019161229a565b820191906000526020600020905b81548152906001019060200180831161227d57829003601f168201915b5050505050905090565b6060600060016122b3846126c1565b01905060008167ffffffffffffffff8111156122d2576122d1612db0565b5b6040519080825280601f01601f1916602001820160405280156123045781602001600182028036833780820191505090505b509050600082602001820190505b600115612367578080600190039150507f3031323334353637383961626364656600000000000000000000000000000000600a86061a8153600a858161235b5761235a613e44565b5b04945060008503612312575b819350505050919050565b60008073ffffffffffffffffffffffffffffffffffffffff1661239483611fd9565b73ffffffffffffffffffffffffffffffffffffffff1614159050919050565b60018111156124d357600073ffffffffffffffffffffffffffffffffffffffff168473ffffffffffffffffffffffffffffffffffffffff16146124475780600360008673ffffffffffffffffffffffffffffffffffffffff1673ffffffffffffffffffffffffffffffffffffffff168152602001908152602001600020600082825461243f9190613e73565b925050819055505b600073ffffffffffffffffffffffffffffffffffffffff168373ffffffffffffffffffffffffffffffffffffffff16146124d25780600360008573ffffffffffffffffffffffffffffffffffffffff1673ffffffffffffffffffffffffffffffffffffffff16815260200190815260200160002060008282546124ca919061386e565b925050819055505b5b50505050565b50505050565b6124e98383612814565b6124f6600084848461253a565b612535576040517f08c379a000000000000000000000000000000000000000000000000000000000815260040161252c90613e24565b60405180910390fd5b505050565b600061255b8473ffffffffffffffffffffffffffffffffffffffff16612a31565b156126b4578373ffffffffffffffffffffffffffffffffffffffff1663150b7a02612584611b7c565b8786866040518563ffffffff1660e01b81526004016125a69493929190613efc565b6020604051808303816000875af19250505080156125e257506040513d601f19601f820116820180604052508101906125df9190613f5d565b60015b612664573d8060008114612612576040519150601f19603f3d011682016040523d82523d6000602084013e612617565b606091505b50600081510361265c576040517f08c379a000000000000000000000000000000000000000000000000000000000815260040161265390613e24565b60405180910390fd5b805181602001fd5b63150b7a0260e01b7bffffffffffffffffffffffffffffffffffffffffffffffffffffffff1916817bffffffffffffffffffffffffffffffffffffffffffffffffffffffff1916149150506126b9565b600190505b949350505050565b600080600090507a184f03e93ff9f4daa797ed6e38ed64bf6a1f010000000000000000831061271f577a184f03e93ff9f4daa797ed6e38ed64bf6a1f010000000000000000838161271557612714613e44565b5b0492506040810190505b6d04ee2d6d415b85acef8100000000831061275c576d04ee2d6d415b85acef8100000000838161275257612751613e44565b5b0492506020810190505b662386f26fc10000831061278b57662386f26fc10000838161278157612780613e44565b5b0492506010810190505b6305f5e10083106127b4576305f5e10083816127aa576127a9613e44565b5b0492506008810190505b61271083106127d95761271083816127cf576127ce613e44565b5b0492506004810190505b606483106127fc57606483816127f2576127f1613e44565b5b0492506002810190505b600a831061280b576001810190505b80915050919050565b600073ffffffffffffffffffffffffffffffffffffffff168273ffffffffffffffffffffffffffffffffffffffff1603612883576040517f08c379a000000000000000000000000000000000000000000000000000000000815260040161287a90613fd6565b60405180910390fd5b61288c81612372565b156128cc576040517f08c379a00000000000000000000000000000000000000000000000000000000081526004016128c390614042565b60405180910390fd5b6128da6000838360016123b3565b6128e381612372565b15612923576040517f08c379a000000000000000000000000000000000000000000000000000000000815260040161291a90614042565b60405180910390fd5b6001600360008473ffffffffffffffffffffffffffffffffffffffff1673ffffffffffffffffffffffffffffffffffffffff16815260200190815260200160002060008282540192505081905550816002600083815260200190815260200160002060006101000a81548173ffffffffffffffffffffffffffffffffffffffff021916908373ffffffffffffffffffffffffffffffffffffffff160217905550808273ffffffffffffffffffffffffffffffffffffffff16600073ffffffffffffffffffffffffffffffffffffffff167fddf252ad1be2c89b69c2b068fc378daa952ba7f163c4a11628f55a4df523b3ef60405160405180910390a4612a2d6000838360016124d9565b5050565b6000808273ffffffffffffffffffffffffffffffffffffffff163b119050919050565b6000604051905090565b600080fd5b600080fd5b60007fffffffff0000000000000000000000000000000000000000000000000000000082169050919050565b612a9d81612a68565b8114612aa857600080fd5b50565b600081359050612aba81612a94565b92915050565b600060208284031215612ad657612ad5612a5e565b5b6000612ae484828501612aab565b91505092915050565b60008115159050919050565b612b0281612aed565b82525050565b6000602082019050612b1d6000830184612af9565b92915050565b600081519050919050565b600082825260208201905092915050565b60005b83811015612b5d578082015181840152602081019050612b42565b60008484015250505050565b6000601f19601f8301169050919050565b6000612b8582612b23565b612b8f8185612b2e565b9350612b9f818560208601612b3f565b612ba881612b69565b840191505092915050565b60006020820190508181036000830152612bcd8184612b7a565b905092915050565b6000819050919050565b612be881612bd5565b8114612bf357600080fd5b50565b600081359050612c0581612bdf565b92915050565b600060208284031215612c2157612c20612a5e565b5b6000612c2f84828501612bf6565b91505092915050565b600073ffffffffffffffffffffffffffffffffffffffff82169050919050565b6000612c6382612c38565b9050919050565b612c7381612c58565b82525050565b6000602082019050612c8e6000830184612c6a565b92915050565b612c9d81612c58565b8114612ca857600080fd5b50565b600081359050612cba81612c94565b92915050565b60008060408385031215612cd757612cd6612a5e565b5b6000612ce585828601612cab565b9250506020612cf685828601612bf6565b9150509250929050565b612d0981612bd5565b82525050565b6000602082019050612d246000830184612d00565b92915050565b6000604082019050612d3f6000830185612c6a565b612d4c6020830184612d00565b9392505050565b600080600060608486031215612d6c57612d6b612a5e565b5b6000612d7a86828701612cab565b9350506020612d8b86828701612cab565b9250506040612d9c86828701612bf6565b9150509250925092565b600080fd5b600080fd5b7f4e487b7100000000000000000000000000000000000000000000000000000000600052604160045260246000fd5b612de882612b69565b810181811067ffffffffffffffff82111715612e0757612e06612db0565b5b80604052505050565b6000612e1a612a54565b9050612e268282612ddf565b919050565b600067ffffffffffffffff821115612e4657612e45612db0565b5b612e4f82612b69565b9050602081019050919050565b82818337600083830152505050565b6000612e7e612e7984612e2b565b612e10565b905082815260208101848484011115612e9a57612e99612dab565b5b612ea5848285612e5c565b509392505050565b600082601f830112612ec257612ec1612da6565b5b8135612ed2848260208601612e6b565b91505092915050565b600060208284031215612ef157612ef0612a5e565b5b600082013567ffffffffffffffff811115612f0f57612f0e612a63565b5b612f1b84828501612ead565b91505092915050565b600060208284031215612f3a57612f39612a5e565b5b6000612f4884828501612cab565b91505092915050565b612f5a81612aed565b8114612f6557600080fd5b50565b600081359050612f7781612f51565b92915050565b60008060408385031215612f9457612f93612a5e565b5b6000612fa285828601612cab565b9250506020612fb385828601612f68565b9150509250929050565b600067ffffffffffffffff821115612fd857612fd7612db0565b5b612fe182612b69565b9050602081019050919050565b6000613001612ffc84612fbd565b612e10565b90508281526020810184848401111561301d5761301c612dab565b5b613028848285612e5c565b509392505050565b600082601f83011261304557613044612da6565b5b8135613055848260208601612fee565b91505092915050565b6000806000806080858703121561307857613077612a5e565b5b600061308687828801612cab565b945050602061309787828801612cab565b93505060406130a887828801612bf6565b925050606085013567ffffffffffffffff8111156130c9576130c8612a63565b5b6130d587828801613030565b91505092959194509250565b600080604083850312156130f8576130f7612a5e565b5b600061310685828601612cab565b925050602061311785828601612cab565b9150509250929050565b7f4e487b7100000000000000000000000000000000000000000000000000000000600052602260045260246000fd5b6000600282049050600182168061316857607f821691505b60208210810361317b5761317a613121565b5b50919050565b7f4552433732313a20617070726f76616c20746f2063757272656e74206f776e6560008201527f7200000000000000000000000000000000000000000000000000000000000000602082015250565b60006131dd602183612b2e565b91506131e882613181565b604082019050919050565b6000602082019050818103600083015261320c816131d0565b9050919050565b7f4552433732313a20617070726f76652063616c6c6572206973206e6f7420746f60008201527f6b656e206f776e6572206f7220617070726f76656420666f7220616c6c000000602082015250565b600061326f603d83612b2e565b915061327a82613213565b604082019050919050565b6000602082019050818103600083015261329e81613262565b9050919050565b7f4552433732313a2063616c6c6572206973206e6f7420746f6b656e206f776e6560008201527f72206f7220617070726f76656400000000000000000000000000000000000000602082015250565b6000613301602d83612b2e565b915061330c826132a5565b604082019050919050565b60006020820190508181036000830152613330816132f4565b9050919050565b7f43616c6c6572206973206e6f7420746865206f776e6572210000000000000000600082015250565b600061336d601883612b2e565b915061337882613337565b602082019050919050565b6000602082019050818103600083015261339c81613360565b9050919050565b7f496e73756666696369656e742046756e64732100000000000000000000000000600082015250565b60006133d9601383612b2e565b91506133e4826133a3565b602082019050919050565b60006020820190508181036000830152613408816133cc565b9050919050565b7f496e76616c696420555249210000000000000000000000000000000000000000600082015250565b6000613445600c83612b2e565b91506134508261340f565b602082019050919050565b6000602082019050818103600083015261347481613438565b9050919050565b60008190508160005260206000209050919050565b60006020601f8301049050919050565b600082821b905092915050565b6000600883026134dd7fffffffffffffffffffffffffffffffffffffffffffffffffffffffffffffffff826134a0565b6134e786836134a0565b95508019841693508086168417925050509392505050565b6000819050919050565b600061352461351f61351a84612bd5565b6134ff565b612bd5565b9050919050565b6000819050919050565b61353e83613509565b61355261354a8261352b565b8484546134ad565b825550505050565b600090565b61356761355a565b613572818484613535565b505050565b5b818110156135965761358b60008261355f565b600181019050613578565b5050565b601f8211156135db576135ac8161347b565b6135b584613490565b810160208510156135c4578190505b6135d86135d085613490565b830182613577565b50505b505050565b600082821c905092915050565b60006135fe600019846008026135e0565b1980831691505092915050565b600061361783836135ed565b9150826002028217905092915050565b61363082612b23565b67ffffffffffffffff81111561364957613648612db0565b5b6136538254613150565b61365e82828561359a565b600060209050601f831160018114613691576000841561367f578287015190505b613689858261360b565b8655506136f1565b601f19841661369f8661347b565b60005b828110156136c7578489015182556001820191506020850194506020810190506136a2565b868310156136e457848901516136e0601f8916826135ed565b8355505b6001600288020188555050505b505050505050565b7f4552433732313a20696e76616c696420746f6b656e2049440000000000000000600082015250565b600061372f601883612b2e565b915061373a826136f9565b602082019050919050565b6000602082019050818103600083015261375e81613722565b9050919050565b7f4552433732313a2061646472657373207a65726f206973206e6f74206120766160008201527f6c6964206f776e65720000000000000000000000000000000000000000000000602082015250565b60006137c1602983612b2e565b91506137cc82613765565b604082019050919050565b600060208201905081810360008301526137f0816137b4565b9050919050565b7f4e487b7100000000000000000000000000000000000000000000000000000000600052601160045260246000fd5b600061383182612bd5565b91507fffffffffffffffffffffffffffffffffffffffffffffffffffffffffffffffff8203613863576138626137f7565b5b600182019050919050565b600061387982612bd5565b915061388483612bd5565b925082820190508082111561389c5761389b6137f7565b5b92915050565b60006138ad82612bd5565b91506138b883612bd5565b92508282026138c681612bd5565b915082820484148315176138dd576138dc6137f7565b5b5092915050565b7f596f75206861766520657863656564656420746865205055524348415345204c60008201527f494d49542e000000000000000000000000000000000000000000000000000000602082015250565b6000613940602583612b2e565b915061394b826138e4565b604082019050919050565b6000602082019050818103600083015261396f81613933565b9050919050565b7f496e636f72726563742045746865722076616c75652073656e742e0000000000600082015250565b60006139ac601b83612b2e565b91506139b782613976565b602082019050919050565b600060208201905081810360008301526139db8161399f565b9050919050565b7f49276d20736f727279207765207265616368656420746865206361702e000000600082015250565b6000613a18601d83612b2e565b9150613a23826139e2565b602082019050919050565b60006020820190508181036000830152613a4781613a0b565b9050919050565b6000608082019050613a636000830187612c6a565b613a706020830186612d00565b613a7d6040830185612d00565b613a8a6060830184612d00565b95945050505050565b600081905092915050565b6000613aa982612b23565b613ab38185613a93565b9350613ac3818560208601612b3f565b80840191505092915050565b7f2e6a736f6e000000000000000000000000000000000000000000000000000000600082015250565b6000613b05600583613a93565b9150613b1082613acf565b600582019050919050565b6000613b278285613a9e565b9150613b338284613a9e565b9150613b3e82613af8565b91508190509392505050565b7f496e76616c696420416464726573732100000000000000000000000000000000600082015250565b6000613b80601083612b2e565b9150613b8b82613b4a565b602082019050919050565b60006020820190508181036000830152613baf81613b73565b9050919050565b7f596f752061726520616c726561647920746865206f776e657221000000000000600082015250565b6000613bec601a83612b2e565b9150613bf782613bb6565b602082019050919050565b60006020820190508181036000830152613c1b81613bdf565b9050919050565b7f4552433732313a207472616e736665722066726f6d20696e636f72726563742060008201527f6f776e6572000000000000000000000000000000000000000000000000000000602082015250565b6000613c7e602583612b2e565b9150613c8982613c22565b604082019050919050565b60006020820190508181036000830152613cad81613c71565b9050919050565b7f4552433732313a207472616e7366657220746f20746865207a65726f2061646460008201527f7265737300000000000000000000000000000000000000000000000000000000602082015250565b6000613d10602483612b2e565b9150613d1b82613cb4565b604082019050919050565b60006020820190508181036000830152613d3f81613d03565b9050919050565b7f4552433732313a20617070726f766520746f2063616c6c657200000000000000600082015250565b6000613d7c601983612b2e565b9150613d8782613d46565b602082019050919050565b60006020820190508181036000830152613dab81613d6f565b9050919050565b7f4552433732313a207472616e7366657220746f206e6f6e20455243373231526560008201527f63656976657220696d706c656d656e7465720000000000000000000000000000602082015250565b6000613e0e603283612b2e565b9150613e1982613db2565b604082019050919050565b60006020820190508181036000830152613e3d81613e01565b9050919050565b7f4e487b7100000000000000000000000000000000000000000000000000000000600052601260045260246000fd5b6000613e7e82612bd5565b9150613e8983612bd5565b9250828203905081811115613ea157613ea06137f7565b5b92915050565b600081519050919050565b600082825260208201905092915050565b6000613ece82613ea7565b613ed88185613eb2565b9350613ee8818560208601612b3f565b613ef181612b69565b840191505092915050565b6000608082019050613f116000830187612c6a565b613f1e6020830186612c6a565b613f2b6040830185612d00565b8181036060830152613f3d8184613ec3565b905095945050505050565b600081519050613f5781612a94565b92915050565b600060208284031215613f7357613f72612a5e565b5b6000613f8184828501613f48565b91505092915050565b7f4552433732313a206d696e7420746f20746865207a65726f2061646472657373600082015250565b6000613fc0602083612b2e565b9150613fcb82613f8a565b602082019050919050565b60006020820190508181036000830152613fef81613fb3565b9050919050565b7f4552433732313a20746f6b656e20616c7265616479206d696e74656400000000600082015250565b600061402c601c83612b2e565b915061403782613ff6565b602082019050919050565b6000602082019050818103600083015261405b8161401f565b905091905056fea26469706673582212205aec91c1a24e5c7698c702bdf0667a86f4d2950d1e8cf807c178abb59a74c04564736f6c63430008110033697066733a2f2f516d627a4536424a53337150346b56696859475a4e684e6e58426f7a636a3933387a3569506756574a57664e68632f68747470733a2f2f697066732e66696c65626173652e696f2f697066732f516d576a4472685736514b78646e79356a7670677a33713233585751527647386654476d6650586e7463386d5058",
  "linkReferences": {},
  "deployedLinkReferences": {}
}